{
  "_format": "hh-sol-artifact-1",
  "contractName": "ERC721NFT",
  "sourceName": "contracts/ERC721.sol",
  "abi": [
    {
      "inputs": [
        {
          "internalType": "address",
          "name": "marketplaceAddress",
          "type": "address"
        }
      ],
      "stateMutability": "nonpayable",
      "type": "constructor"
    },
    {
      "anonymous": false,
      "inputs": [
        {
          "indexed": true,
          "internalType": "address",
          "name": "owner",
          "type": "address"
        },
        {
          "indexed": true,
          "internalType": "address",
          "name": "approved",
          "type": "address"
        },
        {
          "indexed": true,
          "internalType": "uint256",
          "name": "tokenId",
          "type": "uint256"
        }
      ],
      "name": "Approval",
      "type": "event"
    },
    {
      "anonymous": false,
      "inputs": [
        {
          "indexed": true,
          "internalType": "address",
          "name": "owner",
          "type": "address"
        },
        {
          "indexed": true,
          "internalType": "address",
          "name": "operator",
          "type": "address"
        },
        {
          "indexed": false,
          "internalType": "bool",
          "name": "approved",
          "type": "bool"
        }
      ],
      "name": "ApprovalForAll",
      "type": "event"
    },
    {
      "anonymous": false,
      "inputs": [
        {
          "indexed": false,
          "internalType": "uint256",
          "name": "_fromTokenId",
          "type": "uint256"
        },
        {
          "indexed": false,
          "internalType": "uint256",
          "name": "_toTokenId",
          "type": "uint256"
        }
      ],
      "name": "BatchMetadataUpdate",
      "type": "event"
    },
    {
      "anonymous": false,
      "inputs": [
        {
          "indexed": false,
          "internalType": "uint256",
          "name": "_tokenId",
          "type": "uint256"
        }
      ],
      "name": "MetadataUpdate",
      "type": "event"
    },
    {
      "anonymous": false,
      "inputs": [
        {
          "indexed": true,
          "internalType": "address",
          "name": "from",
          "type": "address"
        },
        {
          "indexed": true,
          "internalType": "address",
          "name": "to",
          "type": "address"
        },
        {
          "indexed": true,
          "internalType": "uint256",
          "name": "tokenId",
          "type": "uint256"
        }
      ],
      "name": "Transfer",
      "type": "event"
    },
    {
      "anonymous": false,
      "inputs": [
        {
          "indexed": true,
          "internalType": "uint256",
          "name": "itemId",
          "type": "uint256"
        }
      ],
      "name": "tokenCreated",
      "type": "event"
    },
    {
      "inputs": [
        {
          "internalType": "address",
          "name": "to",
          "type": "address"
        },
        {
          "internalType": "uint256",
          "name": "tokenId",
          "type": "uint256"
        }
      ],
      "name": "approve",
      "outputs": [],
      "stateMutability": "nonpayable",
      "type": "function"
    },
    {
      "inputs": [
        {
          "internalType": "address",
          "name": "owner",
          "type": "address"
        }
      ],
      "name": "balanceOf",
      "outputs": [
        {
          "internalType": "uint256",
          "name": "",
          "type": "uint256"
        }
      ],
      "stateMutability": "view",
      "type": "function"
    },
    {
      "inputs": [],
      "name": "contractAddress",
      "outputs": [
        {
          "internalType": "address",
          "name": "",
          "type": "address"
        }
      ],
      "stateMutability": "view",
      "type": "function"
    },
    {
      "inputs": [
        {
          "internalType": "string",
          "name": "tokenURI",
          "type": "string"
        }
      ],
      "name": "createToken",
      "outputs": [],
      "stateMutability": "nonpayable",
      "type": "function"
    },
    {
      "inputs": [
        {
          "internalType": "uint256",
          "name": "tokenId",
          "type": "uint256"
        }
      ],
      "name": "getApproved",
      "outputs": [
        {
          "internalType": "address",
          "name": "",
          "type": "address"
        }
      ],
      "stateMutability": "view",
      "type": "function"
    },
    {
      "inputs": [
        {
          "internalType": "address",
          "name": "owner",
          "type": "address"
        },
        {
          "internalType": "address",
          "name": "operator",
          "type": "address"
        }
      ],
      "name": "isApprovedForAll",
      "outputs": [
        {
          "internalType": "bool",
          "name": "",
          "type": "bool"
        }
      ],
      "stateMutability": "view",
      "type": "function"
    },
    {
      "inputs": [],
      "name": "name",
      "outputs": [
        {
          "internalType": "string",
          "name": "",
          "type": "string"
        }
      ],
      "stateMutability": "view",
      "type": "function"
    },
    {
      "inputs": [
        {
          "internalType": "uint256",
          "name": "tokenId",
          "type": "uint256"
        }
      ],
      "name": "ownerOf",
      "outputs": [
        {
          "internalType": "address",
          "name": "",
          "type": "address"
        }
      ],
      "stateMutability": "view",
      "type": "function"
    },
    {
      "inputs": [
        {
          "internalType": "address",
          "name": "from",
          "type": "address"
        },
        {
          "internalType": "address",
          "name": "to",
          "type": "address"
        },
        {
          "internalType": "uint256",
          "name": "tokenId",
          "type": "uint256"
        }
      ],
      "name": "safeTransferFrom",
      "outputs": [],
      "stateMutability": "nonpayable",
      "type": "function"
    },
    {
      "inputs": [
        {
          "internalType": "address",
          "name": "from",
          "type": "address"
        },
        {
          "internalType": "address",
          "name": "to",
          "type": "address"
        },
        {
          "internalType": "uint256",
          "name": "tokenId",
          "type": "uint256"
        },
        {
          "internalType": "bytes",
          "name": "data",
          "type": "bytes"
        }
      ],
      "name": "safeTransferFrom",
      "outputs": [],
      "stateMutability": "nonpayable",
      "type": "function"
    },
    {
      "inputs": [
        {
          "internalType": "address",
          "name": "operator",
          "type": "address"
        },
        {
          "internalType": "bool",
          "name": "approved",
          "type": "bool"
        }
      ],
      "name": "setApprovalForAll",
      "outputs": [],
      "stateMutability": "nonpayable",
      "type": "function"
    },
    {
      "inputs": [
        {
          "internalType": "bytes4",
          "name": "interfaceId",
          "type": "bytes4"
        }
      ],
      "name": "supportsInterface",
      "outputs": [
        {
          "internalType": "bool",
          "name": "",
          "type": "bool"
        }
      ],
      "stateMutability": "view",
      "type": "function"
    },
    {
      "inputs": [],
      "name": "symbol",
      "outputs": [
        {
          "internalType": "string",
          "name": "",
          "type": "string"
        }
      ],
      "stateMutability": "view",
      "type": "function"
    },
    {
      "inputs": [
        {
          "internalType": "uint256",
          "name": "tokenId",
          "type": "uint256"
        }
      ],
      "name": "tokenURI",
      "outputs": [
        {
          "internalType": "string",
          "name": "",
          "type": "string"
        }
      ],
      "stateMutability": "view",
      "type": "function"
    },
    {
      "inputs": [
        {
          "internalType": "address",
          "name": "from",
          "type": "address"
        },
        {
          "internalType": "address",
          "name": "to",
          "type": "address"
        },
        {
          "internalType": "uint256",
          "name": "tokenId",
          "type": "uint256"
        }
      ],
      "name": "transferFrom",
      "outputs": [],
      "stateMutability": "nonpayable",
      "type": "function"
    }
  ],
  "bytecode": "0x60806040523480156200001157600080fd5b50604051620030c4380380620030c483398181016040528101906200003791906200017b565b6040518060400160405280600581526020017f4d794e46540000000000000000000000000000000000000000000000000000008152506040518060400160405280600481526020017f4d4e4654000000000000000000000000000000000000000000000000000000008152508160009081620000b4919062000427565b508060019081620000c6919062000427565b50505080600860006101000a81548173ffffffffffffffffffffffffffffffffffffffff021916908373ffffffffffffffffffffffffffffffffffffffff160217905550506200050e565b600080fd5b600073ffffffffffffffffffffffffffffffffffffffff82169050919050565b6000620001438262000116565b9050919050565b620001558162000136565b81146200016157600080fd5b50565b60008151905062000175816200014a565b92915050565b60006020828403121562000194576200019362000111565b5b6000620001a48482850162000164565b91505092915050565b600081519050919050565b7f4e487b7100000000000000000000000000000000000000000000000000000000600052604160045260246000fd5b7f4e487b7100000000000000000000000000000000000000000000000000000000600052602260045260246000fd5b600060028204905060018216806200022f57607f821691505b602082108103620002455762000244620001e7565b5b50919050565b60008190508160005260206000209050919050565b60006020601f8301049050919050565b600082821b905092915050565b600060088302620002af7fffffffffffffffffffffffffffffffffffffffffffffffffffffffffffffffff8262000270565b620002bb868362000270565b95508019841693508086168417925050509392505050565b6000819050919050565b6000819050919050565b60006200030862000302620002fc84620002d3565b620002dd565b620002d3565b9050919050565b6000819050919050565b6200032483620002e7565b6200033c62000333826200030f565b8484546200027d565b825550505050565b600090565b6200035362000344565b6200036081848462000319565b505050565b5b8181101562000388576200037c60008262000349565b60018101905062000366565b5050565b601f821115620003d757620003a1816200024b565b620003ac8462000260565b81016020851015620003bc578190505b620003d4620003cb8562000260565b83018262000365565b50505b505050565b600082821c905092915050565b6000620003fc60001984600802620003dc565b1980831691505092915050565b6000620004178383620003e9565b9150826002028217905092915050565b6200043282620001ad565b67ffffffffffffffff8111156200044e576200044d620001b8565b5b6200045a825462000216565b620004678282856200038c565b600060209050601f8311600181146200049f57600084156200048a578287015190505b62000496858262000409565b86555062000506565b601f198416620004af866200024b565b60005b82811015620004d957848901518255600182019150602085019450602081019050620004b2565b86831015620004f95784890151620004f5601f891682620003e9565b8355505b6001600288020188555050505b505050505050565b612ba6806200051e6000396000f3fe608060405234801561001057600080fd5b50600436106100f55760003560e01c80636352211e11610097578063b88d4fde11610066578063b88d4fde14610282578063c87b56dd1461029e578063e985e9c5146102ce578063f6b4dfb4146102fe576100f5565b80636352211e146101e857806370a082311461021857806395d89b4114610248578063a22cb46514610266576100f5565b8063095ea7b3116100d3578063095ea7b31461017857806323b872dd1461019457806342842e0e146101b057806345576f94146101cc576100f5565b806301ffc9a7146100fa57806306fdde031461012a578063081812fc14610148575b600080fd5b610114600480360381019061010f9190611aa8565b61031c565b6040516101219190611af0565b60405180910390f35b61013261037d565b60405161013f9190611b9b565b60405180910390f35b610162600480360381019061015d9190611bf3565b61040f565b60405161016f9190611c61565b60405180910390f35b610192600480360381019061018d9190611ca8565b610455565b005b6101ae60048036038101906101a99190611ce8565b61056c565b005b6101ca60048036038101906101c59190611ce8565b6105cc565b005b6101e660048036038101906101e19190611e70565b6105ec565b005b61020260048036038101906101fd9190611bf3565b610649565b60405161020f9190611c61565b60405180910390f35b610232600480360381019061022d9190611eb9565b6106cf565b60405161023f9190611ef5565b60405180910390f35b610250610786565b60405161025d9190611b9b565b60405180910390f35b610280600480360381019061027b9190611f3c565b610818565b005b61029c6004803603810190610297919061201d565b61082e565b005b6102b860048036038101906102b39190611bf3565b610890565b6040516102c59190611b9b565b60405180910390f35b6102e860048036038101906102e391906120a0565b6109a2565b6040516102f59190611af0565b60405180910390f35b610306610a36565b6040516103139190611c61565b60405180910390f35b6000634906490660e01b7bffffffffffffffffffffffffffffffffffffffffffffffffffffffff1916827bffffffffffffffffffffffffffffffffffffffffffffffffffffffff19161480610376575061037582610a5c565b5b9050919050565b60606000805461038c9061210f565b80601f01602080910402602001604051908101604052809291908181526020018280546103b89061210f565b80156104055780601f106103da57610100808354040283529160200191610405565b820191906000526020600020905b8154815290600101906020018083116103e857829003601f168201915b5050505050905090565b600061041a82610b3e565b6004600083815260200190815260200160002060009054906101000a900473ffffffffffffffffffffffffffffffffffffffff169050919050565b600061046082610649565b90508073ffffffffffffffffffffffffffffffffffffffff168373ffffffffffffffffffffffffffffffffffffffff16036104d0576040517f08c379a00000000000000000000000000000000000000000000000000000000081526004016104c7906121b2565b60405180910390fd5b8073ffffffffffffffffffffffffffffffffffffffff166104ef610b89565b73ffffffffffffffffffffffffffffffffffffffff16148061051e575061051d81610518610b89565b6109a2565b5b61055d576040517f08c379a000000000000000000000000000000000000000000000000000000000815260040161055490612244565b60405180910390fd5b6105678383610b91565b505050565b61057d610577610b89565b82610c4a565b6105bc576040517f08c379a00000000000000000000000000000000000000000000000000000000081526004016105b3906122d6565b60405180910390fd5b6105c7838383610cdf565b505050565b6105e78383836040518060200160405280600081525061082e565b505050565b6105f66007610fd8565b60006106026007610fee565b905061060e3382610ffc565b610618818361101a565b807f0a6b2a25f2764bb23ba81dc1f3c7e5885291c116a26ba73b46c15ed49483174160405160405180910390a25050565b600080610655836110be565b9050600073ffffffffffffffffffffffffffffffffffffffff168173ffffffffffffffffffffffffffffffffffffffff16036106c6576040517f08c379a00000000000000000000000000000000000000000000000000000000081526004016106bd90612342565b60405180910390fd5b80915050919050565b60008073ffffffffffffffffffffffffffffffffffffffff168273ffffffffffffffffffffffffffffffffffffffff160361073f576040517f08c379a0000000000000000000000000000000000000000000000000000000008152600401610736906123d4565b60405180910390fd5b600360008373ffffffffffffffffffffffffffffffffffffffff1673ffffffffffffffffffffffffffffffffffffffff168152602001908152602001600020549050919050565b6060600180546107959061210f565b80601f01602080910402602001604051908101604052809291908181526020018280546107c19061210f565b801561080e5780601f106107e35761010080835404028352916020019161080e565b820191906000526020600020905b8154815290600101906020018083116107f157829003601f168201915b5050505050905090565b61082a610823610b89565b83836110fb565b5050565b61083f610839610b89565b83610c4a565b61087e576040517f08c379a0000000000000000000000000000000000000000000000000000000008152600401610875906122d6565b60405180910390fd5b61088a84848484611267565b50505050565b606061089b82610b3e565b60006006600084815260200190815260200160002080546108bb9061210f565b80601f01602080910402602001604051908101604052809291908181526020018280546108e79061210f565b80156109345780601f1061090957610100808354040283529160200191610934565b820191906000526020600020905b81548152906001019060200180831161091757829003601f168201915b5050505050905060006109456112c3565b9050600081510361095a57819250505061099d565b60008251111561098f578082604051602001610977929190612430565b6040516020818303038152906040529250505061099d565b610998846112da565b925050505b919050565b6000600560008473ffffffffffffffffffffffffffffffffffffffff1673ffffffffffffffffffffffffffffffffffffffff16815260200190815260200160002060008373ffffffffffffffffffffffffffffffffffffffff1673ffffffffffffffffffffffffffffffffffffffff16815260200190815260200160002060009054906101000a900460ff16905092915050565b600860009054906101000a900473ffffffffffffffffffffffffffffffffffffffff1681565b60007f80ac58cd000000000000000000000000000000000000000000000000000000007bffffffffffffffffffffffffffffffffffffffffffffffffffffffff1916827bffffffffffffffffffffffffffffffffffffffffffffffffffffffff19161480610b2757507f5b5e139f000000000000000000000000000000000000000000000000000000007bffffffffffffffffffffffffffffffffffffffffffffffffffffffff1916827bffffffffffffffffffffffffffffffffffffffffffffffffffffffff1916145b80610b375750610b3682611342565b5b9050919050565b610b47816113ac565b610b86576040517f08c379a0000000000000000000000000000000000000000000000000000000008152600401610b7d90612342565b60405180910390fd5b50565b600033905090565b816004600083815260200190815260200160002060006101000a81548173ffffffffffffffffffffffffffffffffffffffff021916908373ffffffffffffffffffffffffffffffffffffffff160217905550808273ffffffffffffffffffffffffffffffffffffffff16610c0483610649565b73ffffffffffffffffffffffffffffffffffffffff167f8c5be1e5ebec7d5bd14f71427d1e84f3dd0314c0f7b2291e5b200ac8c7c3b92560405160405180910390a45050565b600080610c5683610649565b90508073ffffffffffffffffffffffffffffffffffffffff168473ffffffffffffffffffffffffffffffffffffffff161480610c985750610c9781856109a2565b5b80610cd657508373ffffffffffffffffffffffffffffffffffffffff16610cbe8461040f565b73ffffffffffffffffffffffffffffffffffffffff16145b91505092915050565b8273ffffffffffffffffffffffffffffffffffffffff16610cff82610649565b73ffffffffffffffffffffffffffffffffffffffff1614610d55576040517f08c379a0000000000000000000000000000000000000000000000000000000008152600401610d4c906124c6565b60405180910390fd5b600073ffffffffffffffffffffffffffffffffffffffff168273ffffffffffffffffffffffffffffffffffffffff1603610dc4576040517f08c379a0000000000000000000000000000000000000000000000000000000008152600401610dbb90612558565b60405180910390fd5b610dd183838360016113ed565b8273ffffffffffffffffffffffffffffffffffffffff16610df182610649565b73ffffffffffffffffffffffffffffffffffffffff1614610e47576040517f08c379a0000000000000000000000000000000000000000000000000000000008152600401610e3e906124c6565b60405180910390fd5b6004600082815260200190815260200160002060006101000a81549073ffffffffffffffffffffffffffffffffffffffff02191690556001600360008573ffffffffffffffffffffffffffffffffffffffff1673ffffffffffffffffffffffffffffffffffffffff168152602001908152602001600020600082825403925050819055506001600360008473ffffffffffffffffffffffffffffffffffffffff1673ffffffffffffffffffffffffffffffffffffffff16815260200190815260200160002060008282540192505081905550816002600083815260200190815260200160002060006101000a81548173ffffffffffffffffffffffffffffffffffffffff021916908373ffffffffffffffffffffffffffffffffffffffff160217905550808273ffffffffffffffffffffffffffffffffffffffff168473ffffffffffffffffffffffffffffffffffffffff167fddf252ad1be2c89b69c2b068fc378daa952ba7f163c4a11628f55a4df523b3ef60405160405180910390a4610fd383838360016113f3565b505050565b6001816000016000828254019250508190555050565b600081600001549050919050565b6110168282604051806020016040528060008152506113f9565b5050565b611023826113ac565b611062576040517f08c379a0000000000000000000000000000000000000000000000000000000008152600401611059906125ea565b60405180910390fd5b8060066000848152602001908152602001600020908161108291906127b6565b507ff8e1a15aba9398e019f0b49df1a4fde98ee17ae345cb5f6b5e2c27f5033e8ce7826040516110b29190611ef5565b60405180910390a15050565b60006002600083815260200190815260200160002060009054906101000a900473ffffffffffffffffffffffffffffffffffffffff169050919050565b8173ffffffffffffffffffffffffffffffffffffffff168373ffffffffffffffffffffffffffffffffffffffff1603611169576040517f08c379a0000000000000000000000000000000000000000000000000000000008152600401611160906128d4565b60405180910390fd5b80600560008573ffffffffffffffffffffffffffffffffffffffff1673ffffffffffffffffffffffffffffffffffffffff16815260200190815260200160002060008473ffffffffffffffffffffffffffffffffffffffff1673ffffffffffffffffffffffffffffffffffffffff16815260200190815260200160002060006101000a81548160ff0219169083151502179055508173ffffffffffffffffffffffffffffffffffffffff168373ffffffffffffffffffffffffffffffffffffffff167f17307eab39ab6107e8899845ad3d59bd9653f200f220920489ca2b5937696c318360405161125a9190611af0565b60405180910390a3505050565b611272848484610cdf565b61127e84848484611454565b6112bd576040517f08c379a00000000000000000000000000000000000000000000000000000000081526004016112b490612966565b60405180910390fd5b50505050565b606060405180602001604052806000815250905090565b60606112e582610b3e565b60006112ef6112c3565b9050600081511161130f576040518060200160405280600081525061133a565b80611319846115db565b60405160200161132a929190612430565b6040516020818303038152906040525b915050919050565b60007f01ffc9a7000000000000000000000000000000000000000000000000000000007bffffffffffffffffffffffffffffffffffffffffffffffffffffffff1916827bffffffffffffffffffffffffffffffffffffffffffffffffffffffff1916149050919050565b60008073ffffffffffffffffffffffffffffffffffffffff166113ce836110be565b73ffffffffffffffffffffffffffffffffffffffff1614159050919050565b50505050565b50505050565b61140383836116a9565b6114106000848484611454565b61144f576040517f08c379a000000000000000000000000000000000000000000000000000000000815260040161144690612966565b60405180910390fd5b505050565b60006114758473ffffffffffffffffffffffffffffffffffffffff166118c6565b156115ce578373ffffffffffffffffffffffffffffffffffffffff1663150b7a0261149e610b89565b8786866040518563ffffffff1660e01b81526004016114c094939291906129db565b6020604051808303816000875af19250505080156114fc57506040513d601f19601f820116820180604052508101906114f99190612a3c565b60015b61157e573d806000811461152c576040519150601f19603f3d011682016040523d82523d6000602084013e611531565b606091505b506000815103611576576040517f08c379a000000000000000000000000000000000000000000000000000000000815260040161156d90612966565b60405180910390fd5b805181602001fd5b63150b7a0260e01b7bffffffffffffffffffffffffffffffffffffffffffffffffffffffff1916817bffffffffffffffffffffffffffffffffffffffffffffffffffffffff1916149150506115d3565b600190505b949350505050565b6060600060016115ea846118e9565b01905060008167ffffffffffffffff81111561160957611608611d45565b5b6040519080825280601f01601f19166020018201604052801561163b5781602001600182028036833780820191505090505b509050600082602001820190505b60011561169e578080600190039150507f3031323334353637383961626364656600000000000000000000000000000000600a86061a8153600a858161169257611691612a69565b5b04945060008503611649575b819350505050919050565b600073ffffffffffffffffffffffffffffffffffffffff168273ffffffffffffffffffffffffffffffffffffffff1603611718576040517f08c379a000000000000000000000000000000000000000000000000000000000815260040161170f90612ae4565b60405180910390fd5b611721816113ac565b15611761576040517f08c379a000000000000000000000000000000000000000000000000000000000815260040161175890612b50565b60405180910390fd5b61176f6000838360016113ed565b611778816113ac565b156117b8576040517f08c379a00000000000000000000000000000000000000000000000000000000081526004016117af90612b50565b60405180910390fd5b6001600360008473ffffffffffffffffffffffffffffffffffffffff1673ffffffffffffffffffffffffffffffffffffffff16815260200190815260200160002060008282540192505081905550816002600083815260200190815260200160002060006101000a81548173ffffffffffffffffffffffffffffffffffffffff021916908373ffffffffffffffffffffffffffffffffffffffff160217905550808273ffffffffffffffffffffffffffffffffffffffff16600073ffffffffffffffffffffffffffffffffffffffff167fddf252ad1be2c89b69c2b068fc378daa952ba7f163c4a11628f55a4df523b3ef60405160405180910390a46118c26000838360016113f3565b5050565b6000808273ffffffffffffffffffffffffffffffffffffffff163b119050919050565b600080600090507a184f03e93ff9f4daa797ed6e38ed64bf6a1f0100000000000000008310611947577a184f03e93ff9f4daa797ed6e38ed64bf6a1f010000000000000000838161193d5761193c612a69565b5b0492506040810190505b6d04ee2d6d415b85acef81000000008310611984576d04ee2d6d415b85acef8100000000838161197a57611979612a69565b5b0492506020810190505b662386f26fc1000083106119b357662386f26fc1000083816119a9576119a8612a69565b5b0492506010810190505b6305f5e10083106119dc576305f5e10083816119d2576119d1612a69565b5b0492506008810190505b6127108310611a015761271083816119f7576119f6612a69565b5b0492506004810190505b60648310611a245760648381611a1a57611a19612a69565b5b0492506002810190505b600a8310611a33576001810190505b80915050919050565b6000604051905090565b600080fd5b600080fd5b60007fffffffff0000000000000000000000000000000000000000000000000000000082169050919050565b611a8581611a50565b8114611a9057600080fd5b50565b600081359050611aa281611a7c565b92915050565b600060208284031215611abe57611abd611a46565b5b6000611acc84828501611a93565b91505092915050565b60008115159050919050565b611aea81611ad5565b82525050565b6000602082019050611b056000830184611ae1565b92915050565b600081519050919050565b600082825260208201905092915050565b60005b83811015611b45578082015181840152602081019050611b2a565b60008484015250505050565b6000601f19601f8301169050919050565b6000611b6d82611b0b565b611b778185611b16565b9350611b87818560208601611b27565b611b9081611b51565b840191505092915050565b60006020820190508181036000830152611bb58184611b62565b905092915050565b6000819050919050565b611bd081611bbd565b8114611bdb57600080fd5b50565b600081359050611bed81611bc7565b92915050565b600060208284031215611c0957611c08611a46565b5b6000611c1784828501611bde565b91505092915050565b600073ffffffffffffffffffffffffffffffffffffffff82169050919050565b6000611c4b82611c20565b9050919050565b611c5b81611c40565b82525050565b6000602082019050611c766000830184611c52565b92915050565b611c8581611c40565b8114611c9057600080fd5b50565b600081359050611ca281611c7c565b92915050565b60008060408385031215611cbf57611cbe611a46565b5b6000611ccd85828601611c93565b9250506020611cde85828601611bde565b9150509250929050565b600080600060608486031215611d0157611d00611a46565b5b6000611d0f86828701611c93565b9350506020611d2086828701611c93565b9250506040611d3186828701611bde565b9150509250925092565b600080fd5b600080fd5b7f4e487b7100000000000000000000000000000000000000000000000000000000600052604160045260246000fd5b611d7d82611b51565b810181811067ffffffffffffffff82111715611d9c57611d9b611d45565b5b80604052505050565b6000611daf611a3c565b9050611dbb8282611d74565b919050565b600067ffffffffffffffff821115611ddb57611dda611d45565b5b611de482611b51565b9050602081019050919050565b82818337600083830152505050565b6000611e13611e0e84611dc0565b611da5565b905082815260208101848484011115611e2f57611e2e611d40565b5b611e3a848285611df1565b509392505050565b600082601f830112611e5757611e56611d3b565b5b8135611e67848260208601611e00565b91505092915050565b600060208284031215611e8657611e85611a46565b5b600082013567ffffffffffffffff811115611ea457611ea3611a4b565b5b611eb084828501611e42565b91505092915050565b600060208284031215611ecf57611ece611a46565b5b6000611edd84828501611c93565b91505092915050565b611eef81611bbd565b82525050565b6000602082019050611f0a6000830184611ee6565b92915050565b611f1981611ad5565b8114611f2457600080fd5b50565b600081359050611f3681611f10565b92915050565b60008060408385031215611f5357611f52611a46565b5b6000611f6185828601611c93565b9250506020611f7285828601611f27565b9150509250929050565b600067ffffffffffffffff821115611f9757611f96611d45565b5b611fa082611b51565b9050602081019050919050565b6000611fc0611fbb84611f7c565b611da5565b905082815260208101848484011115611fdc57611fdb611d40565b5b611fe7848285611df1565b509392505050565b600082601f83011261200457612003611d3b565b5b8135612014848260208601611fad565b91505092915050565b6000806000806080858703121561203757612036611a46565b5b600061204587828801611c93565b945050602061205687828801611c93565b935050604061206787828801611bde565b925050606085013567ffffffffffffffff81111561208857612087611a4b565b5b61209487828801611fef565b91505092959194509250565b600080604083850312156120b7576120b6611a46565b5b60006120c585828601611c93565b92505060206120d685828601611c93565b9150509250929050565b7f4e487b7100000000000000000000000000000000000000000000000000000000600052602260045260246000fd5b6000600282049050600182168061212757607f821691505b60208210810361213a576121396120e0565b5b50919050565b7f4552433732313a20617070726f76616c20746f2063757272656e74206f776e6560008201527f7200000000000000000000000000000000000000000000000000000000000000602082015250565b600061219c602183611b16565b91506121a782612140565b604082019050919050565b600060208201905081810360008301526121cb8161218f565b9050919050565b7f4552433732313a20617070726f76652063616c6c6572206973206e6f7420746f60008201527f6b656e206f776e6572206f7220617070726f76656420666f7220616c6c000000602082015250565b600061222e603d83611b16565b9150612239826121d2565b604082019050919050565b6000602082019050818103600083015261225d81612221565b9050919050565b7f4552433732313a2063616c6c6572206973206e6f7420746f6b656e206f776e6560008201527f72206f7220617070726f76656400000000000000000000000000000000000000602082015250565b60006122c0602d83611b16565b91506122cb82612264565b604082019050919050565b600060208201905081810360008301526122ef816122b3565b9050919050565b7f4552433732313a20696e76616c696420746f6b656e2049440000000000000000600082015250565b600061232c601883611b16565b9150612337826122f6565b602082019050919050565b6000602082019050818103600083015261235b8161231f565b9050919050565b7f4552433732313a2061646472657373207a65726f206973206e6f74206120766160008201527f6c6964206f776e65720000000000000000000000000000000000000000000000602082015250565b60006123be602983611b16565b91506123c982612362565b604082019050919050565b600060208201905081810360008301526123ed816123b1565b9050919050565b600081905092915050565b600061240a82611b0b565b61241481856123f4565b9350612424818560208601611b27565b80840191505092915050565b600061243c82856123ff565b915061244882846123ff565b91508190509392505050565b7f4552433732313a207472616e736665722066726f6d20696e636f72726563742060008201527f6f776e6572000000000000000000000000000000000000000000000000000000602082015250565b60006124b0602583611b16565b91506124bb82612454565b604082019050919050565b600060208201905081810360008301526124df816124a3565b9050919050565b7f4552433732313a207472616e7366657220746f20746865207a65726f2061646460008201527f7265737300000000000000000000000000000000000000000000000000000000602082015250565b6000612542602483611b16565b915061254d826124e6565b604082019050919050565b6000602082019050818103600083015261257181612535565b9050919050565b7f45524337323155524953746f726167653a2055524920736574206f66206e6f6e60008201527f6578697374656e7420746f6b656e000000000000000000000000000000000000602082015250565b60006125d4602e83611b16565b91506125df82612578565b604082019050919050565b60006020820190508181036000830152612603816125c7565b9050919050565b60008190508160005260206000209050919050565b60006020601f8301049050919050565b600082821b905092915050565b60006008830261266c7fffffffffffffffffffffffffffffffffffffffffffffffffffffffffffffffff8261262f565b612676868361262f565b95508019841693508086168417925050509392505050565b6000819050919050565b60006126b36126ae6126a984611bbd565b61268e565b611bbd565b9050919050565b6000819050919050565b6126cd83612698565b6126e16126d9826126ba565b84845461263c565b825550505050565b600090565b6126f66126e9565b6127018184846126c4565b505050565b5b818110156127255761271a6000826126ee565b600181019050612707565b5050565b601f82111561276a5761273b8161260a565b6127448461261f565b81016020851015612753578190505b61276761275f8561261f565b830182612706565b50505b505050565b600082821c905092915050565b600061278d6000198460080261276f565b1980831691505092915050565b60006127a6838361277c565b9150826002028217905092915050565b6127bf82611b0b565b67ffffffffffffffff8111156127d8576127d7611d45565b5b6127e2825461210f565b6127ed828285612729565b600060209050601f831160018114612820576000841561280e578287015190505b612818858261279a565b865550612880565b601f19841661282e8661260a565b60005b8281101561285657848901518255600182019150602085019450602081019050612831565b86831015612873578489015161286f601f89168261277c565b8355505b6001600288020188555050505b505050505050565b7f4552433732313a20617070726f766520746f2063616c6c657200000000000000600082015250565b60006128be601983611b16565b91506128c982612888565b602082019050919050565b600060208201905081810360008301526128ed816128b1565b9050919050565b7f4552433732313a207472616e7366657220746f206e6f6e20455243373231526560008201527f63656976657220696d706c656d656e7465720000000000000000000000000000602082015250565b6000612950603283611b16565b915061295b826128f4565b604082019050919050565b6000602082019050818103600083015261297f81612943565b9050919050565b600081519050919050565b600082825260208201905092915050565b60006129ad82612986565b6129b78185612991565b93506129c7818560208601611b27565b6129d081611b51565b840191505092915050565b60006080820190506129f06000830187611c52565b6129fd6020830186611c52565b612a0a6040830185611ee6565b8181036060830152612a1c81846129a2565b905095945050505050565b600081519050612a3681611a7c565b92915050565b600060208284031215612a5257612a51611a46565b5b6000612a6084828501612a27565b91505092915050565b7f4e487b7100000000000000000000000000000000000000000000000000000000600052601260045260246000fd5b7f4552433732313a206d696e7420746f20746865207a65726f2061646472657373600082015250565b6000612ace602083611b16565b9150612ad982612a98565b602082019050919050565b60006020820190508181036000830152612afd81612ac1565b9050919050565b7f4552433732313a20746f6b656e20616c7265616479206d696e74656400000000600082015250565b6000612b3a601c83611b16565b9150612b4582612b04565b602082019050919050565b60006020820190508181036000830152612b6981612b2d565b905091905056fea26469706673582212200c4c6749a9bd59d854e4153ee95c6f8654ff22011b6f1e4150c9ebf7d1e2c7ef64736f6c63430008130033",
  "linkReferences": {},
  "deployedLinkReferences": {}
}