{
  "_format": "hh-sol-artifact-1",
  "contractName": "NFTMarket",
  "sourceName": "contracts/NFTMarket.sol",
  "abi": [
    {
      "inputs": [],
      "stateMutability": "nonpayable",
      "type": "constructor"
    },
    {
      "anonymous": false,
      "inputs": [
        {
          "indexed": true,
          "internalType": "uint256",
          "name": "itemId",
          "type": "uint256"
        },
        {
          "indexed": true,
          "internalType": "address",
          "name": "nftContract",
          "type": "address"
        },
        {
          "indexed": true,
          "internalType": "uint256",
          "name": "tokenId",
          "type": "uint256"
        },
        {
          "indexed": false,
          "internalType": "address",
          "name": "seller",
          "type": "address"
        },
        {
          "indexed": false,
          "internalType": "address",
          "name": "owner",
          "type": "address"
        },
        {
          "indexed": false,
          "internalType": "uint256",
          "name": "price",
          "type": "uint256"
        },
        {
          "indexed": false,
          "internalType": "bool",
          "name": "sold",
          "type": "bool"
        }
      ],
      "name": "MarketItemCreated",
      "type": "event"
    },
    {
      "anonymous": false,
      "inputs": [
        {
          "indexed": true,
          "internalType": "bytes32",
          "name": "role",
          "type": "bytes32"
        },
        {
          "indexed": true,
          "internalType": "bytes32",
          "name": "previousAdminRole",
          "type": "bytes32"
        },
        {
          "indexed": true,
          "internalType": "bytes32",
          "name": "newAdminRole",
          "type": "bytes32"
        }
      ],
      "name": "RoleAdminChanged",
      "type": "event"
    },
    {
      "anonymous": false,
      "inputs": [
        {
          "indexed": true,
          "internalType": "bytes32",
          "name": "role",
          "type": "bytes32"
        },
        {
          "indexed": true,
          "internalType": "address",
          "name": "account",
          "type": "address"
        },
        {
          "indexed": true,
          "internalType": "address",
          "name": "sender",
          "type": "address"
        }
      ],
      "name": "RoleGranted",
      "type": "event"
    },
    {
      "anonymous": false,
      "inputs": [
        {
          "indexed": true,
          "internalType": "bytes32",
          "name": "role",
          "type": "bytes32"
        },
        {
          "indexed": true,
          "internalType": "address",
          "name": "account",
          "type": "address"
        },
        {
          "indexed": true,
          "internalType": "address",
          "name": "sender",
          "type": "address"
        }
      ],
      "name": "RoleRevoked",
      "type": "event"
    },
    {
      "inputs": [],
      "name": "DEFAULT_ADMIN_ROLE",
      "outputs": [
        {
          "internalType": "bytes32",
          "name": "",
          "type": "bytes32"
        }
      ],
      "stateMutability": "view",
      "type": "function"
    },
    {
      "inputs": [
        {
          "internalType": "uint256",
          "name": "itemId",
          "type": "uint256"
        }
      ],
      "name": "buyItem",
      "outputs": [],
      "stateMutability": "payable",
      "type": "function"
    },
    {
      "inputs": [],
      "name": "fetchListedItems",
      "outputs": [
        {
          "components": [
            {
              "internalType": "uint256",
              "name": "itemId",
              "type": "uint256"
            },
            {
              "internalType": "address",
              "name": "assetContract",
              "type": "address"
            },
            {
              "internalType": "uint256",
              "name": "tokenId",
              "type": "uint256"
            },
            {
              "internalType": "address payable",
              "name": "seller",
              "type": "address"
            },
            {
              "internalType": "address payable",
              "name": "owner",
              "type": "address"
            },
            {
              "internalType": "uint256",
              "name": "price",
              "type": "uint256"
            },
            {
              "internalType": "bool",
              "name": "sold",
              "type": "bool"
            },
            {
              "internalType": "enum NFTMarket.TokenType",
              "name": "tokenType",
              "type": "uint8"
            }
          ],
          "internalType": "struct NFTMarket.MarketItem[]",
          "name": "",
          "type": "tuple[]"
        }
      ],
      "stateMutability": "view",
      "type": "function"
    },
    {
      "inputs": [],
      "name": "fetchMarketItems",
      "outputs": [
        {
          "components": [
            {
              "internalType": "uint256",
              "name": "itemId",
              "type": "uint256"
            },
            {
              "internalType": "address",
              "name": "assetContract",
              "type": "address"
            },
            {
              "internalType": "uint256",
              "name": "tokenId",
              "type": "uint256"
            },
            {
              "internalType": "address payable",
              "name": "seller",
              "type": "address"
            },
            {
              "internalType": "address payable",
              "name": "owner",
              "type": "address"
            },
            {
              "internalType": "uint256",
              "name": "price",
              "type": "uint256"
            },
            {
              "internalType": "bool",
              "name": "sold",
              "type": "bool"
            },
            {
              "internalType": "enum NFTMarket.TokenType",
              "name": "tokenType",
              "type": "uint8"
            }
          ],
          "internalType": "struct NFTMarket.MarketItem[]",
          "name": "",
          "type": "tuple[]"
        }
      ],
      "stateMutability": "view",
      "type": "function"
    },
    {
      "inputs": [],
      "name": "fetchMyItems",
      "outputs": [
        {
          "components": [
            {
              "internalType": "uint256",
              "name": "itemId",
              "type": "uint256"
            },
            {
              "internalType": "address",
              "name": "assetContract",
              "type": "address"
            },
            {
              "internalType": "uint256",
              "name": "tokenId",
              "type": "uint256"
            },
            {
              "internalType": "address payable",
              "name": "seller",
              "type": "address"
            },
            {
              "internalType": "address payable",
              "name": "owner",
              "type": "address"
            },
            {
              "internalType": "uint256",
              "name": "price",
              "type": "uint256"
            },
            {
              "internalType": "bool",
              "name": "sold",
              "type": "bool"
            },
            {
              "internalType": "enum NFTMarket.TokenType",
              "name": "tokenType",
              "type": "uint8"
            }
          ],
          "internalType": "struct NFTMarket.MarketItem[]",
          "name": "",
          "type": "tuple[]"
        }
      ],
      "stateMutability": "view",
      "type": "function"
    },
    {
      "inputs": [
        {
          "internalType": "bytes32",
          "name": "role",
          "type": "bytes32"
        }
      ],
      "name": "getRoleAdmin",
      "outputs": [
        {
          "internalType": "bytes32",
          "name": "",
          "type": "bytes32"
        }
      ],
      "stateMutability": "view",
      "type": "function"
    },
    {
      "inputs": [
        {
          "internalType": "bytes32",
          "name": "role",
          "type": "bytes32"
        },
        {
          "internalType": "uint256",
          "name": "index",
          "type": "uint256"
        }
      ],
      "name": "getRoleMember",
      "outputs": [
        {
          "internalType": "address",
          "name": "",
          "type": "address"
        }
      ],
      "stateMutability": "view",
      "type": "function"
    },
    {
      "inputs": [
        {
          "internalType": "bytes32",
          "name": "role",
          "type": "bytes32"
        }
      ],
      "name": "getRoleMemberCount",
      "outputs": [
        {
          "internalType": "uint256",
          "name": "",
          "type": "uint256"
        }
      ],
      "stateMutability": "view",
      "type": "function"
    },
    {
      "inputs": [
        {
          "internalType": "bytes32",
          "name": "role",
          "type": "bytes32"
        },
        {
          "internalType": "address",
          "name": "account",
          "type": "address"
        }
      ],
      "name": "grantRole",
      "outputs": [],
      "stateMutability": "nonpayable",
      "type": "function"
    },
    {
      "inputs": [
        {
          "internalType": "bytes32",
          "name": "role",
          "type": "bytes32"
        },
        {
          "internalType": "address",
          "name": "account",
          "type": "address"
        }
      ],
      "name": "hasRole",
      "outputs": [
        {
          "internalType": "bool",
          "name": "",
          "type": "bool"
        }
      ],
      "stateMutability": "view",
      "type": "function"
    },
    {
      "inputs": [
        {
          "internalType": "address",
          "name": "nftContract",
          "type": "address"
        },
        {
          "internalType": "uint256",
          "name": "tokenId",
          "type": "uint256"
        },
        {
          "internalType": "uint256",
          "name": "price",
          "type": "uint256"
        }
      ],
      "name": "listItem",
      "outputs": [],
      "stateMutability": "payable",
      "type": "function"
    },
    {
      "inputs": [
        {
          "internalType": "address",
          "name": "",
          "type": "address"
        },
        {
          "internalType": "address",
          "name": "",
          "type": "address"
        },
        {
          "internalType": "uint256[]",
          "name": "",
          "type": "uint256[]"
        },
        {
          "internalType": "uint256[]",
          "name": "",
          "type": "uint256[]"
        },
        {
          "internalType": "bytes",
          "name": "",
          "type": "bytes"
        }
      ],
      "name": "onERC1155BatchReceived",
      "outputs": [
        {
          "internalType": "bytes4",
          "name": "",
          "type": "bytes4"
        }
      ],
      "stateMutability": "nonpayable",
      "type": "function"
    },
    {
      "inputs": [
        {
          "internalType": "address",
          "name": "",
          "type": "address"
        },
        {
          "internalType": "address",
          "name": "",
          "type": "address"
        },
        {
          "internalType": "uint256",
          "name": "",
          "type": "uint256"
        },
        {
          "internalType": "uint256",
          "name": "",
          "type": "uint256"
        },
        {
          "internalType": "bytes",
          "name": "",
          "type": "bytes"
        }
      ],
      "name": "onERC1155Received",
      "outputs": [
        {
          "internalType": "bytes4",
          "name": "",
          "type": "bytes4"
        }
      ],
      "stateMutability": "nonpayable",
      "type": "function"
    },
    {
      "inputs": [
        {
          "internalType": "address",
          "name": "",
          "type": "address"
        },
        {
          "internalType": "address",
          "name": "",
          "type": "address"
        },
        {
          "internalType": "uint256",
          "name": "",
          "type": "uint256"
        },
        {
          "internalType": "bytes",
          "name": "",
          "type": "bytes"
        }
      ],
      "name": "onERC721Received",
      "outputs": [
        {
          "internalType": "bytes4",
          "name": "",
          "type": "bytes4"
        }
      ],
      "stateMutability": "pure",
      "type": "function"
    },
    {
      "inputs": [
        {
          "internalType": "bytes32",
          "name": "role",
          "type": "bytes32"
        },
        {
          "internalType": "address",
          "name": "account",
          "type": "address"
        }
      ],
      "name": "renounceRole",
      "outputs": [],
      "stateMutability": "nonpayable",
      "type": "function"
    },
    {
      "inputs": [
        {
          "internalType": "bytes32",
          "name": "role",
          "type": "bytes32"
        },
        {
          "internalType": "address",
          "name": "account",
          "type": "address"
        }
      ],
      "name": "revokeRole",
      "outputs": [],
      "stateMutability": "nonpayable",
      "type": "function"
    },
    {
      "inputs": [
        {
          "internalType": "bytes4",
          "name": "interfaceId",
          "type": "bytes4"
        }
      ],
      "name": "supportsInterface",
      "outputs": [
        {
          "internalType": "bool",
          "name": "",
          "type": "bool"
        }
      ],
      "stateMutability": "view",
      "type": "function"
    }
  ],
  "bytecode": "0x608060405234801561001057600080fd5b50600160008190555033600560006101000a81548173ffffffffffffffffffffffffffffffffffffffff021916908373ffffffffffffffffffffffffffffffffffffffff160217905550613932806100696000396000f3fe6080604052600436106100fe5760003560e01c80639010d07c11610095578063ca15c87311610064578063ca15c87314610360578063cfd31e2c1461039d578063d547741f146103c8578063e7fb74c7146103f1578063f23a6e611461040d576100fe565b80639010d07c1461027e57806391d14854146102bb578063a217fddf146102f8578063bc197c8114610323576100fe565b8063248a9ca3116100d1578063248a9ca3146101d35780632f2ff15d1461021057806336568abe1461023957806389bfd38f14610262576100fe565b806301ffc9a7146101035780630f08efe014610140578063150b7a021461016b57806315c9ae10146101a8575b600080fd5b34801561010f57600080fd5b5061012a60048036038101906101259190612737565b61044a565b604051610137919061277f565b60405180910390f35b34801561014c57600080fd5b5061015561052c565b60405161016291906129ed565b60405180910390f35b34801561017757600080fd5b50610192600480360381019061018d9190612acc565b610847565b60405161019f9190612b63565b60405180910390f35b3480156101b457600080fd5b506101bd61085c565b6040516101ca91906129ed565b60405180910390f35b3480156101df57600080fd5b506101fa60048036038101906101f59190612bb4565b610bfa565b6040516102079190612bf0565b60405180910390f35b34801561021c57600080fd5b5061023760048036038101906102329190612c0b565b610c1a565b005b34801561024557600080fd5b50610260600480360381019061025b9190612c0b565b610c3b565b005b61027c60048036038101906102779190612c4b565b610cbe565b005b34801561028a57600080fd5b506102a560048036038101906102a09190612c9e565b611121565b6040516102b29190612ced565b60405180910390f35b3480156102c757600080fd5b506102e260048036038101906102dd9190612c0b565b611150565b6040516102ef919061277f565b60405180910390f35b34801561030457600080fd5b5061030d6111bb565b60405161031a9190612bf0565b60405180910390f35b34801561032f57600080fd5b5061034a60048036038101906103459190612f0c565b6111c2565b6040516103579190612b63565b60405180910390f35b34801561036c57600080fd5b5061038760048036038101906103829190612bb4565b6111d7565b6040516103949190612fea565b60405180910390f35b3480156103a957600080fd5b506103b26111fb565b6040516103bf91906129ed565b60405180910390f35b3480156103d457600080fd5b506103ef60048036038101906103ea9190612c0b565b611599565b005b61040b60048036038101906104069190613005565b6115ba565b005b34801561041957600080fd5b50610434600480360381019061042f9190613032565b6119ab565b6040516104419190612b63565b60405180910390f35b60007f4e2312e0000000000000000000000000000000000000000000000000000000007bffffffffffffffffffffffffffffffffffffffffffffffffffffffff1916827bffffffffffffffffffffffffffffffffffffffffffffffffffffffff1916148061051557507f150b7a02000000000000000000000000000000000000000000000000000000007bffffffffffffffffffffffffffffffffffffffffffffffffffffffff1916827bffffffffffffffffffffffffffffffffffffffffffffffffffffffff1916145b806105255750610524826119c0565b5b9050919050565b6060600061053a6003611a3a565b905060006105486004611a3a565b6105526003611a3a565b61055c91906130f8565b90506000808267ffffffffffffffff81111561057b5761057a612d19565b5b6040519080825280602002602001820160405280156105b457816020015b6105a1612630565b8152602001906001900390816105995790505b50905060005b8481101561083c57600073ffffffffffffffffffffffffffffffffffffffff16600660006001846105eb919061312c565b815260200190815260200160002060040160009054906101000a900473ffffffffffffffffffffffffffffffffffffffff1673ffffffffffffffffffffffffffffffffffffffff16036108295760006006600060018461064b919061312c565b815260200190815260200160002060000154905060006006600083815260200190815260200160002090508060405180610100016040529081600082015481526020016001820160009054906101000a900473ffffffffffffffffffffffffffffffffffffffff1673ffffffffffffffffffffffffffffffffffffffff1673ffffffffffffffffffffffffffffffffffffffff168152602001600282015481526020016003820160009054906101000a900473ffffffffffffffffffffffffffffffffffffffff1673ffffffffffffffffffffffffffffffffffffffff1673ffffffffffffffffffffffffffffffffffffffff1681526020016004820160009054906101000a900473ffffffffffffffffffffffffffffffffffffffff1673ffffffffffffffffffffffffffffffffffffffff1673ffffffffffffffffffffffffffffffffffffffff168152602001600582015481526020016006820160009054906101000a900460ff161515151581526020016006820160019054906101000a900460ff1660018111156107e3576107e2612850565b5b60018111156107f5576107f4612850565b5b8152505084868151811061080c5761080b613160565b5b6020026020010181905250600185610824919061312c565b945050505b80806108349061318f565b9150506105ba565b508094505050505090565b600063150b7a0260e01b905095945050505050565b6060600061086a6003611a3a565b905060008060005b83811015610912573373ffffffffffffffffffffffffffffffffffffffff16600660006001846108a2919061312c565b815260200190815260200160002060040160009054906101000a900473ffffffffffffffffffffffffffffffffffffffff1673ffffffffffffffffffffffffffffffffffffffff16036108ff576001836108fc919061312c565b92505b808061090a9061318f565b915050610872565b5060008267ffffffffffffffff81111561092f5761092e612d19565b5b60405190808252806020026020018201604052801561096857816020015b610955612630565b81526020019060019003908161094d5790505b50905060005b84811015610bef573373ffffffffffffffffffffffffffffffffffffffff166006600060018461099e919061312c565b815260200190815260200160002060040160009054906101000a900473ffffffffffffffffffffffffffffffffffffffff1673ffffffffffffffffffffffffffffffffffffffff1603610bdc576000600660006001846109fe919061312c565b815260200190815260200160002060000154905060006006600083815260200190815260200160002090508060405180610100016040529081600082015481526020016001820160009054906101000a900473ffffffffffffffffffffffffffffffffffffffff1673ffffffffffffffffffffffffffffffffffffffff1673ffffffffffffffffffffffffffffffffffffffff168152602001600282015481526020016003820160009054906101000a900473ffffffffffffffffffffffffffffffffffffffff1673ffffffffffffffffffffffffffffffffffffffff1673ffffffffffffffffffffffffffffffffffffffff1681526020016004820160009054906101000a900473ffffffffffffffffffffffffffffffffffffffff1673ffffffffffffffffffffffffffffffffffffffff1673ffffffffffffffffffffffffffffffffffffffff168152602001600582015481526020016006820160009054906101000a900460ff161515151581526020016006820160019054906101000a900460ff166001811115610b9657610b95612850565b5b6001811115610ba857610ba7612850565b5b81525050848681518110610bbf57610bbe613160565b5b6020026020010181905250600185610bd7919061312c565b945050505b8080610be79061318f565b91505061096e565b508094505050505090565b600060016000838152602001908152602001600020600101549050919050565b610c2382610bfa565b610c2c81611a48565b610c368383611a5c565b505050565b610c43611a90565b73ffffffffffffffffffffffffffffffffffffffff168173ffffffffffffffffffffffffffffffffffffffff1614610cb0576040517f08c379a0000000000000000000000000000000000000000000000000000000008152600401610ca79061325a565b60405180910390fd5b610cba8282611a98565b5050565b610cc6611acc565b6000610cd184611b1b565b905060008211610d16576040517f08c379a0000000000000000000000000000000000000000000000000000000008152600401610d0d906132c6565b60405180910390fd5b610d206003611cae565b6000610d2c6003611a3a565b90506040518061010001604052808281526020018673ffffffffffffffffffffffffffffffffffffffff1681526020018581526020013373ffffffffffffffffffffffffffffffffffffffff168152602001600073ffffffffffffffffffffffffffffffffffffffff168152602001848152602001600015158152602001836001811115610dbd57610dbc612850565b5b815250600660008381526020019081526020016000206000820151816000015560208201518160010160006101000a81548173ffffffffffffffffffffffffffffffffffffffff021916908373ffffffffffffffffffffffffffffffffffffffff1602179055506040820151816002015560608201518160030160006101000a81548173ffffffffffffffffffffffffffffffffffffffff021916908373ffffffffffffffffffffffffffffffffffffffff16021790555060808201518160040160006101000a81548173ffffffffffffffffffffffffffffffffffffffff021916908373ffffffffffffffffffffffffffffffffffffffff16021790555060a0820151816005015560c08201518160060160006101000a81548160ff02191690831515021790555060e08201518160060160016101000a81548160ff02191690836001811115610f1157610f10612850565b5b02179055509050506110ba333060016006600086815260200190815260200160002060405180610100016040529081600082015481526020016001820160009054906101000a900473ffffffffffffffffffffffffffffffffffffffff1673ffffffffffffffffffffffffffffffffffffffff1673ffffffffffffffffffffffffffffffffffffffff168152602001600282015481526020016003820160009054906101000a900473ffffffffffffffffffffffffffffffffffffffff1673ffffffffffffffffffffffffffffffffffffffff1673ffffffffffffffffffffffffffffffffffffffff1681526020016004820160009054906101000a900473ffffffffffffffffffffffffffffffffffffffff1673ffffffffffffffffffffffffffffffffffffffff1673ffffffffffffffffffffffffffffffffffffffff168152602001600582015481526020016006820160009054906101000a900460ff161515151581526020016006820160019054906101000a900460ff16600181111561109f5761109e612850565b5b60018111156110b1576110b0612850565b5b81525050611cc4565b838573ffffffffffffffffffffffffffffffffffffffff16827f045dfa01dcba2b36aba1d3dc4a874f4b0c5d2fbeb8d2c4b34a7d88c8d8f929d133600088600060405161110a94939291906132e6565b60405180910390a4505061111c611e20565b505050565b60006111488260026000868152602001908152602001600020611e2a90919063ffffffff16565b905092915050565b60006001600084815260200190815260200160002060000160008373ffffffffffffffffffffffffffffffffffffffff1673ffffffffffffffffffffffffffffffffffffffff16815260200190815260200160002060009054906101000a900460ff16905092915050565b6000801b81565b600063bc197c8160e01b905095945050505050565b60006111f460026000848152602001908152602001600020611e44565b9050919050565b606060006112096003611a3a565b905060008060005b838110156112b1573373ffffffffffffffffffffffffffffffffffffffff1660066000600184611241919061312c565b815260200190815260200160002060030160009054906101000a900473ffffffffffffffffffffffffffffffffffffffff1673ffffffffffffffffffffffffffffffffffffffff160361129e5760018361129b919061312c565b92505b80806112a99061318f565b915050611211565b5060008267ffffffffffffffff8111156112ce576112cd612d19565b5b60405190808252806020026020018201604052801561130757816020015b6112f4612630565b8152602001906001900390816112ec5790505b50905060005b8481101561158e573373ffffffffffffffffffffffffffffffffffffffff166006600060018461133d919061312c565b815260200190815260200160002060030160009054906101000a900473ffffffffffffffffffffffffffffffffffffffff1673ffffffffffffffffffffffffffffffffffffffff160361157b5760006006600060018461139d919061312c565b815260200190815260200160002060000154905060006006600083815260200190815260200160002090508060405180610100016040529081600082015481526020016001820160009054906101000a900473ffffffffffffffffffffffffffffffffffffffff1673ffffffffffffffffffffffffffffffffffffffff1673ffffffffffffffffffffffffffffffffffffffff168152602001600282015481526020016003820160009054906101000a900473ffffffffffffffffffffffffffffffffffffffff1673ffffffffffffffffffffffffffffffffffffffff1673ffffffffffffffffffffffffffffffffffffffff1681526020016004820160009054906101000a900473ffffffffffffffffffffffffffffffffffffffff1673ffffffffffffffffffffffffffffffffffffffff1673ffffffffffffffffffffffffffffffffffffffff168152602001600582015481526020016006820160009054906101000a900460ff161515151581526020016006820160019054906101000a900460ff16600181111561153557611534612850565b5b600181111561154757611546612850565b5b8152505084868151811061155e5761155d613160565b5b6020026020010181905250600185611576919061312c565b945050505b80806115869061318f565b91505061130d565b508094505050505090565b6115a282610bfa565b6115ab81611a48565b6115b58383611a98565b505050565b6115c2611acc565b600660008281526020019081526020016000206005015434101561161b576040517f08c379a00000000000000000000000000000000000000000000000000000000081526004016116129061339d565b60405180910390fd5b6006600082815260200190815260200160002060030160009054906101000a900473ffffffffffffffffffffffffffffffffffffffff1673ffffffffffffffffffffffffffffffffffffffff166108fc349081150290604051600060405180830381858888f19350505050158015611697573d6000803e3d6000fd5b50611839303360016006600086815260200190815260200160002060405180610100016040529081600082015481526020016001820160009054906101000a900473ffffffffffffffffffffffffffffffffffffffff1673ffffffffffffffffffffffffffffffffffffffff1673ffffffffffffffffffffffffffffffffffffffff168152602001600282015481526020016003820160009054906101000a900473ffffffffffffffffffffffffffffffffffffffff1673ffffffffffffffffffffffffffffffffffffffff1673ffffffffffffffffffffffffffffffffffffffff1681526020016004820160009054906101000a900473ffffffffffffffffffffffffffffffffffffffff1673ffffffffffffffffffffffffffffffffffffffff1673ffffffffffffffffffffffffffffffffffffffff168152602001600582015481526020016006820160009054906101000a900460ff161515151581526020016006820160019054906101000a900460ff16600181111561181e5761181d612850565b5b60018111156118305761182f612850565b5b81525050611cc4565b336006600083815260200190815260200160002060040160006101000a81548173ffffffffffffffffffffffffffffffffffffffff021916908373ffffffffffffffffffffffffffffffffffffffff16021790555060016006600083815260200190815260200160002060060160006101000a81548160ff0219169083151502179055506118c76004611cae565b60066000828152602001908152602001600020600201546006600083815260200190815260200160002060010160009054906101000a900473ffffffffffffffffffffffffffffffffffffffff1673ffffffffffffffffffffffffffffffffffffffff16827f045dfa01dcba2b36aba1d3dc4a874f4b0c5d2fbeb8d2c4b34a7d88c8d8f929d16006600086815260200190815260200160002060030160009054906101000a900473ffffffffffffffffffffffffffffffffffffffff1633346001604051611998949392919061341c565b60405180910390a46119a8611e20565b50565b600063f23a6e6160e01b905095945050505050565b60007f5a05180f000000000000000000000000000000000000000000000000000000007bffffffffffffffffffffffffffffffffffffffffffffffffffffffff1916827bffffffffffffffffffffffffffffffffffffffffffffffffffffffff19161480611a335750611a3282611e59565b5b9050919050565b600081600001549050919050565b611a5981611a54611a90565b611ed3565b50565b611a668282611f58565b611a8b816002600085815260200190815260200160002061203890919063ffffffff16565b505050565b600033905090565b611aa28282612068565b611ac7816002600085815260200190815260200160002061214a90919063ffffffff16565b505050565b600260005403611b11576040517f08c379a0000000000000000000000000000000000000000000000000000000008152600401611b08906134ad565b60405180910390fd5b6002600081905550565b60008173ffffffffffffffffffffffffffffffffffffffff166301ffc9a77fd9b67a26000000000000000000000000000000000000000000000000000000006040518263ffffffff1660e01b8152600401611b769190612b63565b602060405180830381865afa158015611b93573d6000803e3d6000fd5b505050506040513d601f19601f82011682018060405250810190611bb791906134f9565b15611bc55760009050611ca9565b8173ffffffffffffffffffffffffffffffffffffffff166301ffc9a77f80ac58cd000000000000000000000000000000000000000000000000000000006040518263ffffffff1660e01b8152600401611c1e9190612b63565b602060405180830381865afa158015611c3b573d6000803e3d6000fd5b505050506040513d601f19601f82011682018060405250810190611c5f91906134f9565b15611c6d5760019050611ca8565b6040517f08c379a0000000000000000000000000000000000000000000000000000000008152600401611c9f90613572565b60405180910390fd5b5b919050565b6001816000016000828254019250508190555050565b60006001811115611cd857611cd7612850565b5b8160e001516001811115611cef57611cee612850565b5b03611d7257806020015173ffffffffffffffffffffffffffffffffffffffff1663f242432a85858460400151866040518563ffffffff1660e01b8152600401611d3b94939291906135c9565b600060405180830381600087803b158015611d5557600080fd5b505af1158015611d69573d6000803e3d6000fd5b50505050611e1a565b600180811115611d8557611d84612850565b5b8160e001516001811115611d9c57611d9b612850565b5b03611e1957806020015173ffffffffffffffffffffffffffffffffffffffff166323b872dd858584604001516040518463ffffffff1660e01b8152600401611de693929190613621565b600060405180830381600087803b158015611e0057600080fd5b505af1158015611e14573d6000803e3d6000fd5b505050505b5b50505050565b6001600081905550565b6000611e39836000018361217a565b60001c905092915050565b6000611e52826000016121a5565b9050919050565b60007f7965db0b000000000000000000000000000000000000000000000000000000007bffffffffffffffffffffffffffffffffffffffffffffffffffffffff1916827bffffffffffffffffffffffffffffffffffffffffffffffffffffffff19161480611ecc5750611ecb826121b6565b5b9050919050565b611edd8282611150565b611f5457611eea81612220565b611ef88360001c602061224d565b604051602001611f09929190613761565b6040516020818303038152906040526040517f08c379a0000000000000000000000000000000000000000000000000000000008152600401611f4b91906137d4565b60405180910390fd5b5050565b611f628282611150565b61203457600180600084815260200190815260200160002060000160008373ffffffffffffffffffffffffffffffffffffffff1673ffffffffffffffffffffffffffffffffffffffff16815260200190815260200160002060006101000a81548160ff021916908315150217905550611fd9611a90565b73ffffffffffffffffffffffffffffffffffffffff168173ffffffffffffffffffffffffffffffffffffffff16837f2f8788117e7eff1d82e926ec794901d17c78024a50270940304540a733656f0d60405160405180910390a45b5050565b6000612060836000018373ffffffffffffffffffffffffffffffffffffffff1660001b612489565b905092915050565b6120728282611150565b156121465760006001600084815260200190815260200160002060000160008373ffffffffffffffffffffffffffffffffffffffff1673ffffffffffffffffffffffffffffffffffffffff16815260200190815260200160002060006101000a81548160ff0219169083151502179055506120eb611a90565b73ffffffffffffffffffffffffffffffffffffffff168173ffffffffffffffffffffffffffffffffffffffff16837ff6391f5c32d9c69d2a47ea670b442974b53935d1edc7fd64eb21e047a839171b60405160405180910390a45b5050565b6000612172836000018373ffffffffffffffffffffffffffffffffffffffff1660001b6124f9565b905092915050565b600082600001828154811061219257612191613160565b5b9060005260206000200154905092915050565b600081600001805490509050919050565b60007f01ffc9a7000000000000000000000000000000000000000000000000000000007bffffffffffffffffffffffffffffffffffffffffffffffffffffffff1916827bffffffffffffffffffffffffffffffffffffffffffffffffffffffff1916149050919050565b60606122468273ffffffffffffffffffffffffffffffffffffffff16601460ff1661224d565b9050919050565b60606000600283600261226091906137f6565b61226a919061312c565b67ffffffffffffffff81111561228357612282612d19565b5b6040519080825280601f01601f1916602001820160405280156122b55781602001600182028036833780820191505090505b5090507f3000000000000000000000000000000000000000000000000000000000000000816000815181106122ed576122ec613160565b5b60200101907effffffffffffffffffffffffffffffffffffffffffffffffffffffffffffff1916908160001a9053507f78000000000000000000000000000000000000000000000000000000000000008160018151811061235157612350613160565b5b60200101907effffffffffffffffffffffffffffffffffffffffffffffffffffffffffffff1916908160001a9053506000600184600261239191906137f6565b61239b919061312c565b90505b600181111561243b577f3031323334353637383961626364656600000000000000000000000000000000600f8616601081106123dd576123dc613160565b5b1a60f81b8282815181106123f4576123f3613160565b5b60200101907effffffffffffffffffffffffffffffffffffffffffffffffffffffffffffff1916908160001a905350600485901c94508061243490613838565b905061239e565b506000841461247f576040517f08c379a0000000000000000000000000000000000000000000000000000000008152600401612476906138ad565b60405180910390fd5b8091505092915050565b6000612495838361260d565b6124ee5782600001829080600181540180825580915050600190039060005260206000200160009091909190915055826000018054905083600101600084815260200190815260200160002081905550600190506124f3565b600090505b92915050565b6000808360010160008481526020019081526020016000205490506000811461260157600060018261252b91906130f8565b905060006001866000018054905061254391906130f8565b90508181146125b257600086600001828154811061256457612563613160565b5b906000526020600020015490508087600001848154811061258857612587613160565b5b90600052602060002001819055508387600101600083815260200190815260200160002081905550505b856000018054806125c6576125c56138cd565b5b600190038181906000526020600020016000905590558560010160008681526020019081526020016000206000905560019350505050612607565b60009150505b92915050565b600080836001016000848152602001908152602001600020541415905092915050565b60405180610100016040528060008152602001600073ffffffffffffffffffffffffffffffffffffffff16815260200160008152602001600073ffffffffffffffffffffffffffffffffffffffff168152602001600073ffffffffffffffffffffffffffffffffffffffff16815260200160008152602001600015158152602001600060018111156126c5576126c4612850565b5b81525090565b6000604051905090565b600080fd5b600080fd5b60007fffffffff0000000000000000000000000000000000000000000000000000000082169050919050565b612714816126df565b811461271f57600080fd5b50565b6000813590506127318161270b565b92915050565b60006020828403121561274d5761274c6126d5565b5b600061275b84828501612722565b91505092915050565b60008115159050919050565b61277981612764565b82525050565b60006020820190506127946000830184612770565b92915050565b600081519050919050565b600082825260208201905092915050565b6000819050602082019050919050565b6000819050919050565b6127d9816127c6565b82525050565b600073ffffffffffffffffffffffffffffffffffffffff82169050919050565b600061280a826127df565b9050919050565b61281a816127ff565b82525050565b600061282b826127df565b9050919050565b61283b81612820565b82525050565b61284a81612764565b82525050565b7f4e487b7100000000000000000000000000000000000000000000000000000000600052602160045260246000fd5b600281106128905761288f612850565b5b50565b60008190506128a18261287f565b919050565b60006128b182612893565b9050919050565b6128c1816128a6565b82525050565b610100820160008201516128de60008501826127d0565b5060208201516128f16020850182612811565b50604082015161290460408501826127d0565b5060608201516129176060850182612832565b50608082015161292a6080850182612832565b5060a082015161293d60a08501826127d0565b5060c082015161295060c0850182612841565b5060e082015161296360e08501826128b8565b50505050565b600061297583836128c7565b6101008301905092915050565b6000602082019050919050565b600061299a8261279a565b6129a481856127a5565b93506129af836127b6565b8060005b838110156129e05781516129c78882612969565b97506129d283612982565b9250506001810190506129b3565b5085935050505092915050565b60006020820190508181036000830152612a07818461298f565b905092915050565b612a18816127ff565b8114612a2357600080fd5b50565b600081359050612a3581612a0f565b92915050565b612a44816127c6565b8114612a4f57600080fd5b50565b600081359050612a6181612a3b565b92915050565b600080fd5b600080fd5b600080fd5b60008083601f840112612a8c57612a8b612a67565b5b8235905067ffffffffffffffff811115612aa957612aa8612a6c565b5b602083019150836001820283011115612ac557612ac4612a71565b5b9250929050565b600080600080600060808688031215612ae857612ae76126d5565b5b6000612af688828901612a26565b9550506020612b0788828901612a26565b9450506040612b1888828901612a52565b935050606086013567ffffffffffffffff811115612b3957612b386126da565b5b612b4588828901612a76565b92509250509295509295909350565b612b5d816126df565b82525050565b6000602082019050612b786000830184612b54565b92915050565b6000819050919050565b612b9181612b7e565b8114612b9c57600080fd5b50565b600081359050612bae81612b88565b92915050565b600060208284031215612bca57612bc96126d5565b5b6000612bd884828501612b9f565b91505092915050565b612bea81612b7e565b82525050565b6000602082019050612c056000830184612be1565b92915050565b60008060408385031215612c2257612c216126d5565b5b6000612c3085828601612b9f565b9250506020612c4185828601612a26565b9150509250929050565b600080600060608486031215612c6457612c636126d5565b5b6000612c7286828701612a26565b9350506020612c8386828701612a52565b9250506040612c9486828701612a52565b9150509250925092565b60008060408385031215612cb557612cb46126d5565b5b6000612cc385828601612b9f565b9250506020612cd485828601612a52565b9150509250929050565b612ce7816127ff565b82525050565b6000602082019050612d026000830184612cde565b92915050565b6000601f19601f8301169050919050565b7f4e487b7100000000000000000000000000000000000000000000000000000000600052604160045260246000fd5b612d5182612d08565b810181811067ffffffffffffffff82111715612d7057612d6f612d19565b5b80604052505050565b6000612d836126cb565b9050612d8f8282612d48565b919050565b600067ffffffffffffffff821115612daf57612dae612d19565b5b602082029050602081019050919050565b6000612dd3612dce84612d94565b612d79565b90508083825260208201905060208402830185811115612df657612df5612a71565b5b835b81811015612e1f5780612e0b8882612a52565b845260208401935050602081019050612df8565b5050509392505050565b600082601f830112612e3e57612e3d612a67565b5b8135612e4e848260208601612dc0565b91505092915050565b600080fd5b600067ffffffffffffffff821115612e7757612e76612d19565b5b612e8082612d08565b9050602081019050919050565b82818337600083830152505050565b6000612eaf612eaa84612e5c565b612d79565b905082815260208101848484011115612ecb57612eca612e57565b5b612ed6848285612e8d565b509392505050565b600082601f830112612ef357612ef2612a67565b5b8135612f03848260208601612e9c565b91505092915050565b600080600080600060a08688031215612f2857612f276126d5565b5b6000612f3688828901612a26565b9550506020612f4788828901612a26565b945050604086013567ffffffffffffffff811115612f6857612f676126da565b5b612f7488828901612e29565b935050606086013567ffffffffffffffff811115612f9557612f946126da565b5b612fa188828901612e29565b925050608086013567ffffffffffffffff811115612fc257612fc16126da565b5b612fce88828901612ede565b9150509295509295909350565b612fe4816127c6565b82525050565b6000602082019050612fff6000830184612fdb565b92915050565b60006020828403121561301b5761301a6126d5565b5b600061302984828501612a52565b91505092915050565b600080600080600060a0868803121561304e5761304d6126d5565b5b600061305c88828901612a26565b955050602061306d88828901612a26565b945050604061307e88828901612a52565b935050606061308f88828901612a52565b925050608086013567ffffffffffffffff8111156130b0576130af6126da565b5b6130bc88828901612ede565b9150509295509295909350565b7f4e487b7100000000000000000000000000000000000000000000000000000000600052601160045260246000fd5b6000613103826127c6565b915061310e836127c6565b9250828203905081811115613126576131256130c9565b5b92915050565b6000613137826127c6565b9150613142836127c6565b925082820190508082111561315a576131596130c9565b5b92915050565b7f4e487b7100000000000000000000000000000000000000000000000000000000600052603260045260246000fd5b600061319a826127c6565b91507fffffffffffffffffffffffffffffffffffffffffffffffffffffffffffffffff82036131cc576131cb6130c9565b5b600182019050919050565b600082825260208201905092915050565b7f416363657373436f6e74726f6c3a2063616e206f6e6c792072656e6f756e636560008201527f20726f6c657320666f722073656c660000000000000000000000000000000000602082015250565b6000613244602f836131d7565b915061324f826131e8565b604082019050919050565b6000602082019050818103600083015261327381613237565b9050919050565b7f5072696365206d7573742062652067726561746572207468616e203000000000600082015250565b60006132b0601c836131d7565b91506132bb8261327a565b602082019050919050565b600060208201905081810360008301526132df816132a3565b9050919050565b60006080820190506132fb6000830187612cde565b6133086020830186612cde565b6133156040830185612fdb565b6133226060830184612770565b95945050505050565b7f4572726f7220696e20636f6e74726163743a20496e636f72726563742070726960008201527f6365000000000000000000000000000000000000000000000000000000000000602082015250565b60006133876022836131d7565b91506133928261332b565b604082019050919050565b600060208201905081810360008301526133b68161337a565b9050919050565b6000819050919050565b60006133e26133dd6133d8846127df565b6133bd565b6127df565b9050919050565b60006133f4826133c7565b9050919050565b6000613406826133e9565b9050919050565b613416816133fb565b82525050565b6000608082019050613431600083018761340d565b61343e6020830186612cde565b61344b6040830185612fdb565b6134586060830184612770565b95945050505050565b7f5265656e7472616e637947756172643a207265656e7472616e742063616c6c00600082015250565b6000613497601f836131d7565b91506134a282613461565b602082019050919050565b600060208201905081810360008301526134c68161348a565b9050919050565b6134d681612764565b81146134e157600080fd5b50565b6000815190506134f3816134cd565b92915050565b60006020828403121561350f5761350e6126d5565b5b600061351d848285016134e4565b91505092915050565b7f746f6b656e206d7573742062652045524331313535206f72204552433732312e600082015250565b600061355c6020836131d7565b915061356782613526565b602082019050919050565b6000602082019050818103600083015261358b8161354f565b9050919050565b600082825260208201905092915050565b50565b60006135b3600083613592565b91506135be826135a3565b600082019050919050565b600060a0820190506135de6000830187612cde565b6135eb6020830186612cde565b6135f86040830185612fdb565b6136056060830184612fdb565b8181036080830152613616816135a6565b905095945050505050565b60006060820190506136366000830186612cde565b6136436020830185612cde565b6136506040830184612fdb565b949350505050565b600081905092915050565b7f416363657373436f6e74726f6c3a206163636f756e7420000000000000000000600082015250565b6000613699601783613658565b91506136a482613663565b601782019050919050565b600081519050919050565b60005b838110156136d85780820151818401526020810190506136bd565b60008484015250505050565b60006136ef826136af565b6136f98185613658565b93506137098185602086016136ba565b80840191505092915050565b7f206973206d697373696e6720726f6c6520000000000000000000000000000000600082015250565b600061374b601183613658565b915061375682613715565b601182019050919050565b600061376c8261368c565b915061377882856136e4565b91506137838261373e565b915061378f82846136e4565b91508190509392505050565b60006137a6826136af565b6137b081856131d7565b93506137c08185602086016136ba565b6137c981612d08565b840191505092915050565b600060208201905081810360008301526137ee818461379b565b905092915050565b6000613801826127c6565b915061380c836127c6565b925082820261381a816127c6565b91508282048414831517613831576138306130c9565b5b5092915050565b6000613843826127c6565b915060008203613856576138556130c9565b5b600182039050919050565b7f537472696e67733a20686578206c656e67746820696e73756666696369656e74600082015250565b60006138976020836131d7565b91506138a282613861565b602082019050919050565b600060208201905081810360008301526138c68161388a565b9050919050565b7f4e487b7100000000000000000000000000000000000000000000000000000000600052603160045260246000fdfea264697066735822122056ffebfdcba63379eb75c583ec8b318b972ab94e61576fd4078a4688505845ce64736f6c63430008130033",
  "linkReferences": {},
  "deployedLinkReferences": {}
}