{
  "_format": "hh-sol-artifact-1",
  "contractName": "NFTMarket",
  "sourceName": "contracts/NFTMarket.sol",
  "abi": [
    {
      "inputs": [],
      "stateMutability": "nonpayable",
      "type": "constructor"
    },
    {
      "anonymous": false,
      "inputs": [
        {
          "indexed": true,
          "internalType": "uint256",
          "name": "itemId",
          "type": "uint256"
        },
        {
          "indexed": true,
          "internalType": "address",
          "name": "nftContract",
          "type": "address"
        },
        {
          "indexed": true,
          "internalType": "uint256",
          "name": "tokenId",
          "type": "uint256"
        },
        {
          "indexed": false,
          "internalType": "address",
          "name": "seller",
          "type": "address"
        },
        {
          "indexed": false,
          "internalType": "address",
          "name": "owner",
          "type": "address"
        },
        {
          "indexed": false,
          "internalType": "uint256",
          "name": "price",
          "type": "uint256"
        },
        {
          "indexed": false,
          "internalType": "bool",
          "name": "sold",
          "type": "bool"
        }
      ],
      "name": "MarketItemCreated",
      "type": "event"
    },
    {
      "anonymous": false,
      "inputs": [
        {
          "indexed": true,
          "internalType": "bytes32",
          "name": "role",
          "type": "bytes32"
        },
        {
          "indexed": true,
          "internalType": "bytes32",
          "name": "previousAdminRole",
          "type": "bytes32"
        },
        {
          "indexed": true,
          "internalType": "bytes32",
          "name": "newAdminRole",
          "type": "bytes32"
        }
      ],
      "name": "RoleAdminChanged",
      "type": "event"
    },
    {
      "anonymous": false,
      "inputs": [
        {
          "indexed": true,
          "internalType": "bytes32",
          "name": "role",
          "type": "bytes32"
        },
        {
          "indexed": true,
          "internalType": "address",
          "name": "account",
          "type": "address"
        },
        {
          "indexed": true,
          "internalType": "address",
          "name": "sender",
          "type": "address"
        }
      ],
      "name": "RoleGranted",
      "type": "event"
    },
    {
      "anonymous": false,
      "inputs": [
        {
          "indexed": true,
          "internalType": "bytes32",
          "name": "role",
          "type": "bytes32"
        },
        {
          "indexed": true,
          "internalType": "address",
          "name": "account",
          "type": "address"
        },
        {
          "indexed": true,
          "internalType": "address",
          "name": "sender",
          "type": "address"
        }
      ],
      "name": "RoleRevoked",
      "type": "event"
    },
    {
      "inputs": [],
      "name": "DEFAULT_ADMIN_ROLE",
      "outputs": [
        {
          "internalType": "bytes32",
          "name": "",
          "type": "bytes32"
        }
      ],
      "stateMutability": "view",
      "type": "function"
    },
    {
      "inputs": [
        {
          "internalType": "uint256",
          "name": "itemId",
          "type": "uint256"
        }
      ],
      "name": "buyItem",
      "outputs": [],
      "stateMutability": "payable",
      "type": "function"
    },
    {
      "inputs": [],
      "name": "fetchListedItems",
      "outputs": [
        {
          "components": [
            {
              "internalType": "uint256",
              "name": "itemId",
              "type": "uint256"
            },
            {
              "internalType": "address",
              "name": "assetContract",
              "type": "address"
            },
            {
              "internalType": "uint256",
              "name": "tokenId",
              "type": "uint256"
            },
            {
              "internalType": "address",
              "name": "seller",
              "type": "address"
            },
            {
              "internalType": "address",
              "name": "owner",
              "type": "address"
            },
            {
              "internalType": "uint256",
              "name": "price",
              "type": "uint256"
            },
            {
              "internalType": "bool",
              "name": "sold",
              "type": "bool"
            },
            {
              "internalType": "enum NFTMarket.TokenType",
              "name": "tokenType",
              "type": "uint8"
            }
          ],
          "internalType": "struct NFTMarket.MarketItem[]",
          "name": "",
          "type": "tuple[]"
        }
      ],
      "stateMutability": "view",
      "type": "function"
    },
    {
      "inputs": [],
      "name": "fetchMarketItems",
      "outputs": [
        {
          "components": [
            {
              "internalType": "uint256",
              "name": "itemId",
              "type": "uint256"
            },
            {
              "internalType": "address",
              "name": "assetContract",
              "type": "address"
            },
            {
              "internalType": "uint256",
              "name": "tokenId",
              "type": "uint256"
            },
            {
              "internalType": "address",
              "name": "seller",
              "type": "address"
            },
            {
              "internalType": "address",
              "name": "owner",
              "type": "address"
            },
            {
              "internalType": "uint256",
              "name": "price",
              "type": "uint256"
            },
            {
              "internalType": "bool",
              "name": "sold",
              "type": "bool"
            },
            {
              "internalType": "enum NFTMarket.TokenType",
              "name": "tokenType",
              "type": "uint8"
            }
          ],
          "internalType": "struct NFTMarket.MarketItem[]",
          "name": "",
          "type": "tuple[]"
        }
      ],
      "stateMutability": "view",
      "type": "function"
    },
    {
      "inputs": [],
      "name": "fetchMyItems",
      "outputs": [
        {
          "components": [
            {
              "internalType": "uint256",
              "name": "itemId",
              "type": "uint256"
            },
            {
              "internalType": "address",
              "name": "assetContract",
              "type": "address"
            },
            {
              "internalType": "uint256",
              "name": "tokenId",
              "type": "uint256"
            },
            {
              "internalType": "address",
              "name": "seller",
              "type": "address"
            },
            {
              "internalType": "address",
              "name": "owner",
              "type": "address"
            },
            {
              "internalType": "uint256",
              "name": "price",
              "type": "uint256"
            },
            {
              "internalType": "bool",
              "name": "sold",
              "type": "bool"
            },
            {
              "internalType": "enum NFTMarket.TokenType",
              "name": "tokenType",
              "type": "uint8"
            }
          ],
          "internalType": "struct NFTMarket.MarketItem[]",
          "name": "",
          "type": "tuple[]"
        }
      ],
      "stateMutability": "view",
      "type": "function"
    },
    {
      "inputs": [
        {
          "internalType": "bytes32",
          "name": "role",
          "type": "bytes32"
        }
      ],
      "name": "getRoleAdmin",
      "outputs": [
        {
          "internalType": "bytes32",
          "name": "",
          "type": "bytes32"
        }
      ],
      "stateMutability": "view",
      "type": "function"
    },
    {
      "inputs": [
        {
          "internalType": "bytes32",
          "name": "role",
          "type": "bytes32"
        },
        {
          "internalType": "uint256",
          "name": "index",
          "type": "uint256"
        }
      ],
      "name": "getRoleMember",
      "outputs": [
        {
          "internalType": "address",
          "name": "",
          "type": "address"
        }
      ],
      "stateMutability": "view",
      "type": "function"
    },
    {
      "inputs": [
        {
          "internalType": "bytes32",
          "name": "role",
          "type": "bytes32"
        }
      ],
      "name": "getRoleMemberCount",
      "outputs": [
        {
          "internalType": "uint256",
          "name": "",
          "type": "uint256"
        }
      ],
      "stateMutability": "view",
      "type": "function"
    },
    {
      "inputs": [
        {
          "internalType": "bytes32",
          "name": "role",
          "type": "bytes32"
        },
        {
          "internalType": "address",
          "name": "account",
          "type": "address"
        }
      ],
      "name": "grantRole",
      "outputs": [],
      "stateMutability": "nonpayable",
      "type": "function"
    },
    {
      "inputs": [
        {
          "internalType": "bytes32",
          "name": "role",
          "type": "bytes32"
        },
        {
          "internalType": "address",
          "name": "account",
          "type": "address"
        }
      ],
      "name": "hasRole",
      "outputs": [
        {
          "internalType": "bool",
          "name": "",
          "type": "bool"
        }
      ],
      "stateMutability": "view",
      "type": "function"
    },
    {
      "inputs": [
        {
          "internalType": "address",
          "name": "nftContract",
          "type": "address"
        },
        {
          "internalType": "uint256",
          "name": "tokenId",
          "type": "uint256"
        },
        {
          "internalType": "uint256",
          "name": "price",
          "type": "uint256"
        }
      ],
      "name": "listItem",
      "outputs": [],
      "stateMutability": "payable",
      "type": "function"
    },
    {
      "inputs": [
        {
          "internalType": "address",
          "name": "",
          "type": "address"
        },
        {
          "internalType": "address",
          "name": "",
          "type": "address"
        },
        {
          "internalType": "uint256[]",
          "name": "",
          "type": "uint256[]"
        },
        {
          "internalType": "uint256[]",
          "name": "",
          "type": "uint256[]"
        },
        {
          "internalType": "bytes",
          "name": "",
          "type": "bytes"
        }
      ],
      "name": "onERC1155BatchReceived",
      "outputs": [
        {
          "internalType": "bytes4",
          "name": "",
          "type": "bytes4"
        }
      ],
      "stateMutability": "nonpayable",
      "type": "function"
    },
    {
      "inputs": [
        {
          "internalType": "address",
          "name": "",
          "type": "address"
        },
        {
          "internalType": "address",
          "name": "",
          "type": "address"
        },
        {
          "internalType": "uint256",
          "name": "",
          "type": "uint256"
        },
        {
          "internalType": "uint256",
          "name": "",
          "type": "uint256"
        },
        {
          "internalType": "bytes",
          "name": "",
          "type": "bytes"
        }
      ],
      "name": "onERC1155Received",
      "outputs": [
        {
          "internalType": "bytes4",
          "name": "",
          "type": "bytes4"
        }
      ],
      "stateMutability": "nonpayable",
      "type": "function"
    },
    {
      "inputs": [
        {
          "internalType": "address",
          "name": "",
          "type": "address"
        },
        {
          "internalType": "address",
          "name": "",
          "type": "address"
        },
        {
          "internalType": "uint256",
          "name": "",
          "type": "uint256"
        },
        {
          "internalType": "bytes",
          "name": "",
          "type": "bytes"
        }
      ],
      "name": "onERC721Received",
      "outputs": [
        {
          "internalType": "bytes4",
          "name": "",
          "type": "bytes4"
        }
      ],
      "stateMutability": "pure",
      "type": "function"
    },
    {
      "inputs": [
        {
          "internalType": "bytes32",
          "name": "role",
          "type": "bytes32"
        },
        {
          "internalType": "address",
          "name": "account",
          "type": "address"
        }
      ],
      "name": "renounceRole",
      "outputs": [],
      "stateMutability": "nonpayable",
      "type": "function"
    },
    {
      "inputs": [
        {
          "internalType": "bytes32",
          "name": "role",
          "type": "bytes32"
        },
        {
          "internalType": "address",
          "name": "account",
          "type": "address"
        }
      ],
      "name": "revokeRole",
      "outputs": [],
      "stateMutability": "nonpayable",
      "type": "function"
    },
    {
      "inputs": [
        {
          "internalType": "bytes4",
          "name": "interfaceId",
          "type": "bytes4"
        }
      ],
      "name": "supportsInterface",
      "outputs": [
        {
          "internalType": "bool",
          "name": "",
          "type": "bool"
        }
      ],
      "stateMutability": "view",
      "type": "function"
    }
  ],
  "bytecode": "0x608060405234801561001057600080fd5b50600160008190555033600560006101000a81548173ffffffffffffffffffffffffffffffffffffffff021916908373ffffffffffffffffffffffffffffffffffffffff160217905550613702806100696000396000f3fe6080604052600436106100fe5760003560e01c80639010d07c11610095578063ca15c87311610064578063ca15c87314610360578063cfd31e2c1461039d578063d547741f146103c8578063e7fb74c7146103f1578063f23a6e611461040d576100fe565b80639010d07c1461027e57806391d14854146102bb578063a217fddf146102f8578063bc197c8114610323576100fe565b8063248a9ca3116100d1578063248a9ca3146101d35780632f2ff15d1461021057806336568abe1461023957806389bfd38f14610262576100fe565b806301ffc9a7146101035780630f08efe014610140578063150b7a021461016b57806315c9ae10146101a8575b600080fd5b34801561010f57600080fd5b5061012a600480360381019061012591906125cc565b61044a565b6040516101379190612614565b60405180910390f35b34801561014c57600080fd5b5061015561052c565b6040516101629190612861565b60405180910390f35b34801561017757600080fd5b50610192600480360381019061018d9190612940565b610847565b60405161019f91906129d7565b60405180910390f35b3480156101b457600080fd5b506101bd61085c565b6040516101ca9190612861565b60405180910390f35b3480156101df57600080fd5b506101fa60048036038101906101f59190612a28565b610bfa565b6040516102079190612a64565b60405180910390f35b34801561021c57600080fd5b5061023760048036038101906102329190612a7f565b610c1a565b005b34801561024557600080fd5b50610260600480360381019061025b9190612a7f565b610c3b565b005b61027c60048036038101906102779190612abf565b610cbe565b005b34801561028a57600080fd5b506102a560048036038101906102a09190612b12565b610f80565b6040516102b29190612b61565b60405180910390f35b3480156102c757600080fd5b506102e260048036038101906102dd9190612a7f565b610faf565b6040516102ef9190612614565b60405180910390f35b34801561030457600080fd5b5061030d61101a565b60405161031a9190612a64565b60405180910390f35b34801561032f57600080fd5b5061034a60048036038101906103459190612d80565b611021565b60405161035791906129d7565b60405180910390f35b34801561036c57600080fd5b5061038760048036038101906103829190612a28565b611036565b6040516103949190612e5e565b60405180910390f35b3480156103a957600080fd5b506103b261105a565b6040516103bf9190612861565b60405180910390f35b3480156103d457600080fd5b506103ef60048036038101906103ea9190612a7f565b6113f8565b005b61040b60048036038101906104069190612e79565b611419565b005b34801561041957600080fd5b50610434600480360381019061042f9190612ea6565b611840565b60405161044191906129d7565b60405180910390f35b60007f4e2312e0000000000000000000000000000000000000000000000000000000007bffffffffffffffffffffffffffffffffffffffffffffffffffffffff1916827bffffffffffffffffffffffffffffffffffffffffffffffffffffffff1916148061051557507f150b7a02000000000000000000000000000000000000000000000000000000007bffffffffffffffffffffffffffffffffffffffffffffffffffffffff1916827bffffffffffffffffffffffffffffffffffffffffffffffffffffffff1916145b80610525575061052482611855565b5b9050919050565b6060600061053a60036118cf565b9050600061054860046118cf565b61055260036118cf565b61055c9190612f6c565b90506000808267ffffffffffffffff81111561057b5761057a612b8d565b5b6040519080825280602002602001820160405280156105b457816020015b6105a16124c5565b8152602001906001900390816105995790505b50905060005b8481101561083c57600073ffffffffffffffffffffffffffffffffffffffff16600660006001846105eb9190612fa0565b815260200190815260200160002060040160009054906101000a900473ffffffffffffffffffffffffffffffffffffffff1673ffffffffffffffffffffffffffffffffffffffff16036108295760006006600060018461064b9190612fa0565b815260200190815260200160002060000154905060006006600083815260200190815260200160002090508060405180610100016040529081600082015481526020016001820160009054906101000a900473ffffffffffffffffffffffffffffffffffffffff1673ffffffffffffffffffffffffffffffffffffffff1673ffffffffffffffffffffffffffffffffffffffff168152602001600282015481526020016003820160009054906101000a900473ffffffffffffffffffffffffffffffffffffffff1673ffffffffffffffffffffffffffffffffffffffff1673ffffffffffffffffffffffffffffffffffffffff1681526020016004820160009054906101000a900473ffffffffffffffffffffffffffffffffffffffff1673ffffffffffffffffffffffffffffffffffffffff1673ffffffffffffffffffffffffffffffffffffffff168152602001600582015481526020016006820160009054906101000a900460ff161515151581526020016006820160019054906101000a900460ff1660018111156107e3576107e26126c4565b5b60018111156107f5576107f46126c4565b5b8152505084868151811061080c5761080b612fd4565b5b60200260200101819052506001856108249190612fa0565b945050505b808061083490613003565b9150506105ba565b508094505050505090565b600063150b7a0260e01b905095945050505050565b6060600061086a60036118cf565b905060008060005b83811015610912573373ffffffffffffffffffffffffffffffffffffffff16600660006001846108a29190612fa0565b815260200190815260200160002060040160009054906101000a900473ffffffffffffffffffffffffffffffffffffffff1673ffffffffffffffffffffffffffffffffffffffff16036108ff576001836108fc9190612fa0565b92505b808061090a90613003565b915050610872565b5060008267ffffffffffffffff81111561092f5761092e612b8d565b5b60405190808252806020026020018201604052801561096857816020015b6109556124c5565b81526020019060019003908161094d5790505b50905060005b84811015610bef573373ffffffffffffffffffffffffffffffffffffffff166006600060018461099e9190612fa0565b815260200190815260200160002060040160009054906101000a900473ffffffffffffffffffffffffffffffffffffffff1673ffffffffffffffffffffffffffffffffffffffff1603610bdc576000600660006001846109fe9190612fa0565b815260200190815260200160002060000154905060006006600083815260200190815260200160002090508060405180610100016040529081600082015481526020016001820160009054906101000a900473ffffffffffffffffffffffffffffffffffffffff1673ffffffffffffffffffffffffffffffffffffffff1673ffffffffffffffffffffffffffffffffffffffff168152602001600282015481526020016003820160009054906101000a900473ffffffffffffffffffffffffffffffffffffffff1673ffffffffffffffffffffffffffffffffffffffff1673ffffffffffffffffffffffffffffffffffffffff1681526020016004820160009054906101000a900473ffffffffffffffffffffffffffffffffffffffff1673ffffffffffffffffffffffffffffffffffffffff1673ffffffffffffffffffffffffffffffffffffffff168152602001600582015481526020016006820160009054906101000a900460ff161515151581526020016006820160019054906101000a900460ff166001811115610b9657610b956126c4565b5b6001811115610ba857610ba76126c4565b5b81525050848681518110610bbf57610bbe612fd4565b5b6020026020010181905250600185610bd79190612fa0565b945050505b8080610be790613003565b91505061096e565b508094505050505090565b600060016000838152602001908152602001600020600101549050919050565b610c2382610bfa565b610c2c816118dd565b610c3683836118f1565b505050565b610c43611925565b73ffffffffffffffffffffffffffffffffffffffff168173ffffffffffffffffffffffffffffffffffffffff1614610cb0576040517f08c379a0000000000000000000000000000000000000000000000000000000008152600401610ca7906130ce565b60405180910390fd5b610cba828261192d565b5050565b610cc6611961565b6000610cd1846119b0565b905060008211610d16576040517f08c379a0000000000000000000000000000000000000000000000000000000008152600401610d0d9061313a565b60405180910390fd5b610d206003611b43565b6000610d2c60036118cf565b90506040518061010001604052808281526020018673ffffffffffffffffffffffffffffffffffffffff1681526020018581526020013373ffffffffffffffffffffffffffffffffffffffff168152602001600073ffffffffffffffffffffffffffffffffffffffff168152602001848152602001600015158152602001836001811115610dbd57610dbc6126c4565b5b815250600660008381526020019081526020016000206000820151816000015560208201518160010160006101000a81548173ffffffffffffffffffffffffffffffffffffffff021916908373ffffffffffffffffffffffffffffffffffffffff1602179055506040820151816002015560608201518160030160006101000a81548173ffffffffffffffffffffffffffffffffffffffff021916908373ffffffffffffffffffffffffffffffffffffffff16021790555060808201518160040160006101000a81548173ffffffffffffffffffffffffffffffffffffffff021916908373ffffffffffffffffffffffffffffffffffffffff16021790555060a0820151816005015560c08201518160060160006101000a81548160ff02191690831515021790555060e08201518160060160016101000a81548160ff02191690836001811115610f1157610f106126c4565b5b0217905550905050838573ffffffffffffffffffffffffffffffffffffffff16827f045dfa01dcba2b36aba1d3dc4a874f4b0c5d2fbeb8d2c4b34a7d88c8d8f929d1336000886000604051610f69949392919061315a565b60405180910390a45050610f7b611b59565b505050565b6000610fa78260026000868152602001908152602001600020611b6390919063ffffffff16565b905092915050565b60006001600084815260200190815260200160002060000160008373ffffffffffffffffffffffffffffffffffffffff1673ffffffffffffffffffffffffffffffffffffffff16815260200190815260200160002060009054906101000a900460ff16905092915050565b6000801b81565b600063bc197c8160e01b905095945050505050565b600061105360026000848152602001908152602001600020611b7d565b9050919050565b6060600061106860036118cf565b905060008060005b83811015611110573373ffffffffffffffffffffffffffffffffffffffff16600660006001846110a09190612fa0565b815260200190815260200160002060030160009054906101000a900473ffffffffffffffffffffffffffffffffffffffff1673ffffffffffffffffffffffffffffffffffffffff16036110fd576001836110fa9190612fa0565b92505b808061110890613003565b915050611070565b5060008267ffffffffffffffff81111561112d5761112c612b8d565b5b60405190808252806020026020018201604052801561116657816020015b6111536124c5565b81526020019060019003908161114b5790505b50905060005b848110156113ed573373ffffffffffffffffffffffffffffffffffffffff166006600060018461119c9190612fa0565b815260200190815260200160002060030160009054906101000a900473ffffffffffffffffffffffffffffffffffffffff1673ffffffffffffffffffffffffffffffffffffffff16036113da576000600660006001846111fc9190612fa0565b815260200190815260200160002060000154905060006006600083815260200190815260200160002090508060405180610100016040529081600082015481526020016001820160009054906101000a900473ffffffffffffffffffffffffffffffffffffffff1673ffffffffffffffffffffffffffffffffffffffff1673ffffffffffffffffffffffffffffffffffffffff168152602001600282015481526020016003820160009054906101000a900473ffffffffffffffffffffffffffffffffffffffff1673ffffffffffffffffffffffffffffffffffffffff1673ffffffffffffffffffffffffffffffffffffffff1681526020016004820160009054906101000a900473ffffffffffffffffffffffffffffffffffffffff1673ffffffffffffffffffffffffffffffffffffffff1673ffffffffffffffffffffffffffffffffffffffff168152602001600582015481526020016006820160009054906101000a900460ff161515151581526020016006820160019054906101000a900460ff166001811115611394576113936126c4565b5b60018111156113a6576113a56126c4565b5b815250508486815181106113bd576113bc612fd4565b5b60200260200101819052506001856113d59190612fa0565b945050505b80806113e590613003565b91505061116c565b508094505050505090565b61140182610bfa565b61140a816118dd565b611414838361192d565b505050565b611421611961565b600660008281526020019081526020016000206005015434101561147a576040517f08c379a000000000000000000000000000000000000000000000000000000000815260040161147190613211565b60405180910390fd5b6006600082815260200190815260200160002060030160009054906101000a900473ffffffffffffffffffffffffffffffffffffffff1673ffffffffffffffffffffffffffffffffffffffff166108fc349081150290604051600060405180830381858888f193505050501580156114f6573d6000803e3d6000fd5b506116ce6006600083815260200190815260200160002060030160009054906101000a900473ffffffffffffffffffffffffffffffffffffffff163360016006600086815260200190815260200160002060405180610100016040529081600082015481526020016001820160009054906101000a900473ffffffffffffffffffffffffffffffffffffffff1673ffffffffffffffffffffffffffffffffffffffff1673ffffffffffffffffffffffffffffffffffffffff168152602001600282015481526020016003820160009054906101000a900473ffffffffffffffffffffffffffffffffffffffff1673ffffffffffffffffffffffffffffffffffffffff1673ffffffffffffffffffffffffffffffffffffffff1681526020016004820160009054906101000a900473ffffffffffffffffffffffffffffffffffffffff1673ffffffffffffffffffffffffffffffffffffffff1673ffffffffffffffffffffffffffffffffffffffff168152602001600582015481526020016006820160009054906101000a900460ff161515151581526020016006820160019054906101000a900460ff1660018111156116b3576116b26126c4565b5b60018111156116c5576116c46126c4565b5b81525050611b92565b336006600083815260200190815260200160002060040160006101000a81548173ffffffffffffffffffffffffffffffffffffffff021916908373ffffffffffffffffffffffffffffffffffffffff16021790555060016006600083815260200190815260200160002060060160006101000a81548160ff02191690831515021790555061175c6004611b43565b60066000828152602001908152602001600020600201546006600083815260200190815260200160002060010160009054906101000a900473ffffffffffffffffffffffffffffffffffffffff1673ffffffffffffffffffffffffffffffffffffffff16827f045dfa01dcba2b36aba1d3dc4a874f4b0c5d2fbeb8d2c4b34a7d88c8d8f929d16006600086815260200190815260200160002060030160009054906101000a900473ffffffffffffffffffffffffffffffffffffffff163334600160405161182d949392919061315a565b60405180910390a461183d611b59565b50565b600063f23a6e6160e01b905095945050505050565b60007f5a05180f000000000000000000000000000000000000000000000000000000007bffffffffffffffffffffffffffffffffffffffffffffffffffffffff1916827bffffffffffffffffffffffffffffffffffffffffffffffffffffffff191614806118c857506118c782611cee565b5b9050919050565b600081600001549050919050565b6118ee816118e9611925565b611d68565b50565b6118fb8282611ded565b6119208160026000858152602001908152602001600020611ecd90919063ffffffff16565b505050565b600033905090565b6119378282611efd565b61195c8160026000858152602001908152602001600020611fdf90919063ffffffff16565b505050565b6002600054036119a6576040517f08c379a000000000000000000000000000000000000000000000000000000000815260040161199d9061327d565b60405180910390fd5b6002600081905550565b60008173ffffffffffffffffffffffffffffffffffffffff166301ffc9a77fd9b67a26000000000000000000000000000000000000000000000000000000006040518263ffffffff1660e01b8152600401611a0b91906129d7565b602060405180830381865afa158015611a28573d6000803e3d6000fd5b505050506040513d601f19601f82011682018060405250810190611a4c91906132c9565b15611a5a5760009050611b3e565b8173ffffffffffffffffffffffffffffffffffffffff166301ffc9a77f80ac58cd000000000000000000000000000000000000000000000000000000006040518263ffffffff1660e01b8152600401611ab391906129d7565b602060405180830381865afa158015611ad0573d6000803e3d6000fd5b505050506040513d601f19601f82011682018060405250810190611af491906132c9565b15611b025760019050611b3d565b6040517f08c379a0000000000000000000000000000000000000000000000000000000008152600401611b3490613342565b60405180910390fd5b5b919050565b6001816000016000828254019250508190555050565b6001600081905550565b6000611b72836000018361200f565b60001c905092915050565b6000611b8b8260000161203a565b9050919050565b60006001811115611ba657611ba56126c4565b5b8160e001516001811115611bbd57611bbc6126c4565b5b03611c4057806020015173ffffffffffffffffffffffffffffffffffffffff1663f242432a85858460400151866040518563ffffffff1660e01b8152600401611c099493929190613399565b600060405180830381600087803b158015611c2357600080fd5b505af1158015611c37573d6000803e3d6000fd5b50505050611ce8565b600180811115611c5357611c526126c4565b5b8160e001516001811115611c6a57611c696126c4565b5b03611ce757806020015173ffffffffffffffffffffffffffffffffffffffff166342842e0e858584604001516040518463ffffffff1660e01b8152600401611cb4939291906133f1565b600060405180830381600087803b158015611cce57600080fd5b505af1158015611ce2573d6000803e3d6000fd5b505050505b5b50505050565b60007f7965db0b000000000000000000000000000000000000000000000000000000007bffffffffffffffffffffffffffffffffffffffffffffffffffffffff1916827bffffffffffffffffffffffffffffffffffffffffffffffffffffffff19161480611d615750611d608261204b565b5b9050919050565b611d728282610faf565b611de957611d7f816120b5565b611d8d8360001c60206120e2565b604051602001611d9e929190613531565b6040516020818303038152906040526040517f08c379a0000000000000000000000000000000000000000000000000000000008152600401611de091906135a4565b60405180910390fd5b5050565b611df78282610faf565b611ec957600180600084815260200190815260200160002060000160008373ffffffffffffffffffffffffffffffffffffffff1673ffffffffffffffffffffffffffffffffffffffff16815260200190815260200160002060006101000a81548160ff021916908315150217905550611e6e611925565b73ffffffffffffffffffffffffffffffffffffffff168173ffffffffffffffffffffffffffffffffffffffff16837f2f8788117e7eff1d82e926ec794901d17c78024a50270940304540a733656f0d60405160405180910390a45b5050565b6000611ef5836000018373ffffffffffffffffffffffffffffffffffffffff1660001b61231e565b905092915050565b611f078282610faf565b15611fdb5760006001600084815260200190815260200160002060000160008373ffffffffffffffffffffffffffffffffffffffff1673ffffffffffffffffffffffffffffffffffffffff16815260200190815260200160002060006101000a81548160ff021916908315150217905550611f80611925565b73ffffffffffffffffffffffffffffffffffffffff168173ffffffffffffffffffffffffffffffffffffffff16837ff6391f5c32d9c69d2a47ea670b442974b53935d1edc7fd64eb21e047a839171b60405160405180910390a45b5050565b6000612007836000018373ffffffffffffffffffffffffffffffffffffffff1660001b61238e565b905092915050565b600082600001828154811061202757612026612fd4565b5b9060005260206000200154905092915050565b600081600001805490509050919050565b60007f01ffc9a7000000000000000000000000000000000000000000000000000000007bffffffffffffffffffffffffffffffffffffffffffffffffffffffff1916827bffffffffffffffffffffffffffffffffffffffffffffffffffffffff1916149050919050565b60606120db8273ffffffffffffffffffffffffffffffffffffffff16601460ff166120e2565b9050919050565b6060600060028360026120f591906135c6565b6120ff9190612fa0565b67ffffffffffffffff81111561211857612117612b8d565b5b6040519080825280601f01601f19166020018201604052801561214a5781602001600182028036833780820191505090505b5090507f30000000000000000000000000000000000000000000000000000000000000008160008151811061218257612181612fd4565b5b60200101907effffffffffffffffffffffffffffffffffffffffffffffffffffffffffffff1916908160001a9053507f7800000000000000000000000000000000000000000000000000000000000000816001815181106121e6576121e5612fd4565b5b60200101907effffffffffffffffffffffffffffffffffffffffffffffffffffffffffffff1916908160001a9053506000600184600261222691906135c6565b6122309190612fa0565b90505b60018111156122d0577f3031323334353637383961626364656600000000000000000000000000000000600f86166010811061227257612271612fd4565b5b1a60f81b82828151811061228957612288612fd4565b5b60200101907effffffffffffffffffffffffffffffffffffffffffffffffffffffffffffff1916908160001a905350600485901c9450806122c990613608565b9050612233565b5060008414612314576040517f08c379a000000000000000000000000000000000000000000000000000000000815260040161230b9061367d565b60405180910390fd5b8091505092915050565b600061232a83836124a2565b612383578260000182908060018154018082558091505060019003906000526020600020016000909190919091505582600001805490508360010160008481526020019081526020016000208190555060019050612388565b600090505b92915050565b600080836001016000848152602001908152602001600020549050600081146124965760006001826123c09190612f6c565b90506000600186600001805490506123d89190612f6c565b90508181146124475760008660000182815481106123f9576123f8612fd4565b5b906000526020600020015490508087600001848154811061241d5761241c612fd4565b5b90600052602060002001819055508387600101600083815260200190815260200160002081905550505b8560000180548061245b5761245a61369d565b5b60019003818190600052602060002001600090559055856001016000868152602001908152602001600020600090556001935050505061249c565b60009150505b92915050565b600080836001016000848152602001908152602001600020541415905092915050565b60405180610100016040528060008152602001600073ffffffffffffffffffffffffffffffffffffffff16815260200160008152602001600073ffffffffffffffffffffffffffffffffffffffff168152602001600073ffffffffffffffffffffffffffffffffffffffff168152602001600081526020016000151581526020016000600181111561255a576125596126c4565b5b81525090565b6000604051905090565b600080fd5b600080fd5b60007fffffffff0000000000000000000000000000000000000000000000000000000082169050919050565b6125a981612574565b81146125b457600080fd5b50565b6000813590506125c6816125a0565b92915050565b6000602082840312156125e2576125e161256a565b5b60006125f0848285016125b7565b91505092915050565b60008115159050919050565b61260e816125f9565b82525050565b60006020820190506126296000830184612605565b92915050565b600081519050919050565b600082825260208201905092915050565b6000819050602082019050919050565b6000819050919050565b61266e8161265b565b82525050565b600073ffffffffffffffffffffffffffffffffffffffff82169050919050565b600061269f82612674565b9050919050565b6126af81612694565b82525050565b6126be816125f9565b82525050565b7f4e487b7100000000000000000000000000000000000000000000000000000000600052602160045260246000fd5b60028110612704576127036126c4565b5b50565b6000819050612715826126f3565b919050565b600061272582612707565b9050919050565b6127358161271a565b82525050565b610100820160008201516127526000850182612665565b50602082015161276560208501826126a6565b5060408201516127786040850182612665565b50606082015161278b60608501826126a6565b50608082015161279e60808501826126a6565b5060a08201516127b160a0850182612665565b5060c08201516127c460c08501826126b5565b5060e08201516127d760e085018261272c565b50505050565b60006127e9838361273b565b6101008301905092915050565b6000602082019050919050565b600061280e8261262f565b612818818561263a565b93506128238361264b565b8060005b8381101561285457815161283b88826127dd565b9750612846836127f6565b925050600181019050612827565b5085935050505092915050565b6000602082019050818103600083015261287b8184612803565b905092915050565b61288c81612694565b811461289757600080fd5b50565b6000813590506128a981612883565b92915050565b6128b88161265b565b81146128c357600080fd5b50565b6000813590506128d5816128af565b92915050565b600080fd5b600080fd5b600080fd5b60008083601f840112612900576128ff6128db565b5b8235905067ffffffffffffffff81111561291d5761291c6128e0565b5b602083019150836001820283011115612939576129386128e5565b5b9250929050565b60008060008060006080868803121561295c5761295b61256a565b5b600061296a8882890161289a565b955050602061297b8882890161289a565b945050604061298c888289016128c6565b935050606086013567ffffffffffffffff8111156129ad576129ac61256f565b5b6129b9888289016128ea565b92509250509295509295909350565b6129d181612574565b82525050565b60006020820190506129ec60008301846129c8565b92915050565b6000819050919050565b612a05816129f2565b8114612a1057600080fd5b50565b600081359050612a22816129fc565b92915050565b600060208284031215612a3e57612a3d61256a565b5b6000612a4c84828501612a13565b91505092915050565b612a5e816129f2565b82525050565b6000602082019050612a796000830184612a55565b92915050565b60008060408385031215612a9657612a9561256a565b5b6000612aa485828601612a13565b9250506020612ab58582860161289a565b9150509250929050565b600080600060608486031215612ad857612ad761256a565b5b6000612ae68682870161289a565b9350506020612af7868287016128c6565b9250506040612b08868287016128c6565b9150509250925092565b60008060408385031215612b2957612b2861256a565b5b6000612b3785828601612a13565b9250506020612b48858286016128c6565b9150509250929050565b612b5b81612694565b82525050565b6000602082019050612b766000830184612b52565b92915050565b6000601f19601f8301169050919050565b7f4e487b7100000000000000000000000000000000000000000000000000000000600052604160045260246000fd5b612bc582612b7c565b810181811067ffffffffffffffff82111715612be457612be3612b8d565b5b80604052505050565b6000612bf7612560565b9050612c038282612bbc565b919050565b600067ffffffffffffffff821115612c2357612c22612b8d565b5b602082029050602081019050919050565b6000612c47612c4284612c08565b612bed565b90508083825260208201905060208402830185811115612c6a57612c696128e5565b5b835b81811015612c935780612c7f88826128c6565b845260208401935050602081019050612c6c565b5050509392505050565b600082601f830112612cb257612cb16128db565b5b8135612cc2848260208601612c34565b91505092915050565b600080fd5b600067ffffffffffffffff821115612ceb57612cea612b8d565b5b612cf482612b7c565b9050602081019050919050565b82818337600083830152505050565b6000612d23612d1e84612cd0565b612bed565b905082815260208101848484011115612d3f57612d3e612ccb565b5b612d4a848285612d01565b509392505050565b600082601f830112612d6757612d666128db565b5b8135612d77848260208601612d10565b91505092915050565b600080600080600060a08688031215612d9c57612d9b61256a565b5b6000612daa8882890161289a565b9550506020612dbb8882890161289a565b945050604086013567ffffffffffffffff811115612ddc57612ddb61256f565b5b612de888828901612c9d565b935050606086013567ffffffffffffffff811115612e0957612e0861256f565b5b612e1588828901612c9d565b925050608086013567ffffffffffffffff811115612e3657612e3561256f565b5b612e4288828901612d52565b9150509295509295909350565b612e588161265b565b82525050565b6000602082019050612e736000830184612e4f565b92915050565b600060208284031215612e8f57612e8e61256a565b5b6000612e9d848285016128c6565b91505092915050565b600080600080600060a08688031215612ec257612ec161256a565b5b6000612ed08882890161289a565b9550506020612ee18882890161289a565b9450506040612ef2888289016128c6565b9350506060612f03888289016128c6565b925050608086013567ffffffffffffffff811115612f2457612f2361256f565b5b612f3088828901612d52565b9150509295509295909350565b7f4e487b7100000000000000000000000000000000000000000000000000000000600052601160045260246000fd5b6000612f778261265b565b9150612f828361265b565b9250828203905081811115612f9a57612f99612f3d565b5b92915050565b6000612fab8261265b565b9150612fb68361265b565b9250828201905080821115612fce57612fcd612f3d565b5b92915050565b7f4e487b7100000000000000000000000000000000000000000000000000000000600052603260045260246000fd5b600061300e8261265b565b91507fffffffffffffffffffffffffffffffffffffffffffffffffffffffffffffffff82036130405761303f612f3d565b5b600182019050919050565b600082825260208201905092915050565b7f416363657373436f6e74726f6c3a2063616e206f6e6c792072656e6f756e636560008201527f20726f6c657320666f722073656c660000000000000000000000000000000000602082015250565b60006130b8602f8361304b565b91506130c38261305c565b604082019050919050565b600060208201905081810360008301526130e7816130ab565b9050919050565b7f5072696365206d7573742062652067726561746572207468616e203000000000600082015250565b6000613124601c8361304b565b915061312f826130ee565b602082019050919050565b6000602082019050818103600083015261315381613117565b9050919050565b600060808201905061316f6000830187612b52565b61317c6020830186612b52565b6131896040830185612e4f565b6131966060830184612605565b95945050505050565b7f4572726f7220696e20636f6e74726163743a20496e636f72726563742070726960008201527f6365000000000000000000000000000000000000000000000000000000000000602082015250565b60006131fb60228361304b565b91506132068261319f565b604082019050919050565b6000602082019050818103600083015261322a816131ee565b9050919050565b7f5265656e7472616e637947756172643a207265656e7472616e742063616c6c00600082015250565b6000613267601f8361304b565b915061327282613231565b602082019050919050565b600060208201905081810360008301526132968161325a565b9050919050565b6132a6816125f9565b81146132b157600080fd5b50565b6000815190506132c38161329d565b92915050565b6000602082840312156132df576132de61256a565b5b60006132ed848285016132b4565b91505092915050565b7f746f6b656e206d7573742062652045524331313535206f72204552433732312e600082015250565b600061332c60208361304b565b9150613337826132f6565b602082019050919050565b6000602082019050818103600083015261335b8161331f565b9050919050565b600082825260208201905092915050565b50565b6000613383600083613362565b915061338e82613373565b600082019050919050565b600060a0820190506133ae6000830187612b52565b6133bb6020830186612b52565b6133c86040830185612e4f565b6133d56060830184612e4f565b81810360808301526133e681613376565b905095945050505050565b60006060820190506134066000830186612b52565b6134136020830185612b52565b6134206040830184612e4f565b949350505050565b600081905092915050565b7f416363657373436f6e74726f6c3a206163636f756e7420000000000000000000600082015250565b6000613469601783613428565b915061347482613433565b601782019050919050565b600081519050919050565b60005b838110156134a857808201518184015260208101905061348d565b60008484015250505050565b60006134bf8261347f565b6134c98185613428565b93506134d981856020860161348a565b80840191505092915050565b7f206973206d697373696e6720726f6c6520000000000000000000000000000000600082015250565b600061351b601183613428565b9150613526826134e5565b601182019050919050565b600061353c8261345c565b915061354882856134b4565b91506135538261350e565b915061355f82846134b4565b91508190509392505050565b60006135768261347f565b613580818561304b565b935061359081856020860161348a565b61359981612b7c565b840191505092915050565b600060208201905081810360008301526135be818461356b565b905092915050565b60006135d18261265b565b91506135dc8361265b565b92508282026135ea8161265b565b9150828204841483151761360157613600612f3d565b5b5092915050565b60006136138261265b565b91506000820361362657613625612f3d565b5b600182039050919050565b7f537472696e67733a20686578206c656e67746820696e73756666696369656e74600082015250565b600061366760208361304b565b915061367282613631565b602082019050919050565b600060208201905081810360008301526136968161365a565b9050919050565b7f4e487b7100000000000000000000000000000000000000000000000000000000600052603160045260246000fdfea26469706673582212205419f3b06cbc3d2196f35ad38a398244705892df31a8a3062091953ea8ab769764736f6c63430008130033",
  "linkReferences": {},
  "deployedLinkReferences": {}
}