{
  "_format": "hh-sol-artifact-1",
  "contractName": "NFTMarket",
  "sourceName": "contracts/NFTMarket.sol",
  "abi": [
    {
      "anonymous": false,
      "inputs": [
        {
          "indexed": true,
          "internalType": "bytes32",
          "name": "role",
          "type": "bytes32"
        },
        {
          "indexed": true,
          "internalType": "bytes32",
          "name": "previousAdminRole",
          "type": "bytes32"
        },
        {
          "indexed": true,
          "internalType": "bytes32",
          "name": "newAdminRole",
          "type": "bytes32"
        }
      ],
      "name": "RoleAdminChanged",
      "type": "event"
    },
    {
      "anonymous": false,
      "inputs": [
        {
          "indexed": true,
          "internalType": "bytes32",
          "name": "role",
          "type": "bytes32"
        },
        {
          "indexed": true,
          "internalType": "address",
          "name": "account",
          "type": "address"
        },
        {
          "indexed": true,
          "internalType": "address",
          "name": "sender",
          "type": "address"
        }
      ],
      "name": "RoleGranted",
      "type": "event"
    },
    {
      "anonymous": false,
      "inputs": [
        {
          "indexed": true,
          "internalType": "bytes32",
          "name": "role",
          "type": "bytes32"
        },
        {
          "indexed": true,
          "internalType": "address",
          "name": "account",
          "type": "address"
        },
        {
          "indexed": true,
          "internalType": "address",
          "name": "sender",
          "type": "address"
        }
      ],
      "name": "RoleRevoked",
      "type": "event"
    },
    {
      "inputs": [],
      "name": "DEFAULT_ADMIN_ROLE",
      "outputs": [
        {
          "internalType": "bytes32",
          "name": "",
          "type": "bytes32"
        }
      ],
      "stateMutability": "view",
      "type": "function"
    },
    {
      "inputs": [
        {
          "internalType": "uint256",
          "name": "itemId",
          "type": "uint256"
        },
        {
          "internalType": "uint256",
          "name": "amount",
          "type": "uint256"
        }
      ],
      "name": "buyItem",
      "outputs": [],
      "stateMutability": "payable",
      "type": "function"
    },
    {
      "inputs": [],
      "name": "fetchMarketItems",
      "outputs": [
        {
          "components": [
            {
              "internalType": "uint256",
              "name": "itemId",
              "type": "uint256"
            },
            {
              "internalType": "address",
              "name": "assetContract",
              "type": "address"
            },
            {
              "internalType": "uint256",
              "name": "tokenId",
              "type": "uint256"
            },
            {
              "internalType": "address",
              "name": "seller",
              "type": "address"
            },
            {
              "internalType": "address",
              "name": "owner",
              "type": "address"
            },
            {
              "internalType": "uint256",
              "name": "price",
              "type": "uint256"
            },
            {
              "internalType": "bool",
              "name": "sold",
              "type": "bool"
            },
            {
              "internalType": "enum NFTMarket.TokenType",
              "name": "tokenType",
              "type": "uint8"
            },
            {
              "internalType": "uint256",
              "name": "amount",
              "type": "uint256"
            }
          ],
          "internalType": "struct NFTMarket.MarketItem[]",
          "name": "",
          "type": "tuple[]"
        }
      ],
      "stateMutability": "view",
      "type": "function"
    },
    {
      "inputs": [],
      "name": "fetchMyItems",
      "outputs": [
        {
          "components": [
            {
              "internalType": "uint256",
              "name": "itemId",
              "type": "uint256"
            },
            {
              "internalType": "address",
              "name": "assetContract",
              "type": "address"
            },
            {
              "internalType": "uint256",
              "name": "tokenId",
              "type": "uint256"
            },
            {
              "internalType": "address",
              "name": "seller",
              "type": "address"
            },
            {
              "internalType": "address",
              "name": "owner",
              "type": "address"
            },
            {
              "internalType": "uint256",
              "name": "price",
              "type": "uint256"
            },
            {
              "internalType": "bool",
              "name": "sold",
              "type": "bool"
            },
            {
              "internalType": "enum NFTMarket.TokenType",
              "name": "tokenType",
              "type": "uint8"
            },
            {
              "internalType": "uint256",
              "name": "amount",
              "type": "uint256"
            }
          ],
          "internalType": "struct NFTMarket.MarketItem[]",
          "name": "",
          "type": "tuple[]"
        }
      ],
      "stateMutability": "view",
      "type": "function"
    },
    {
      "inputs": [
        {
          "internalType": "bytes32",
          "name": "role",
          "type": "bytes32"
        }
      ],
      "name": "getRoleAdmin",
      "outputs": [
        {
          "internalType": "bytes32",
          "name": "",
          "type": "bytes32"
        }
      ],
      "stateMutability": "view",
      "type": "function"
    },
    {
      "inputs": [
        {
          "internalType": "bytes32",
          "name": "role",
          "type": "bytes32"
        },
        {
          "internalType": "uint256",
          "name": "index",
          "type": "uint256"
        }
      ],
      "name": "getRoleMember",
      "outputs": [
        {
          "internalType": "address",
          "name": "",
          "type": "address"
        }
      ],
      "stateMutability": "view",
      "type": "function"
    },
    {
      "inputs": [
        {
          "internalType": "bytes32",
          "name": "role",
          "type": "bytes32"
        }
      ],
      "name": "getRoleMemberCount",
      "outputs": [
        {
          "internalType": "uint256",
          "name": "",
          "type": "uint256"
        }
      ],
      "stateMutability": "view",
      "type": "function"
    },
    {
      "inputs": [
        {
          "internalType": "bytes32",
          "name": "role",
          "type": "bytes32"
        },
        {
          "internalType": "address",
          "name": "account",
          "type": "address"
        }
      ],
      "name": "grantRole",
      "outputs": [],
      "stateMutability": "nonpayable",
      "type": "function"
    },
    {
      "inputs": [
        {
          "internalType": "bytes32",
          "name": "role",
          "type": "bytes32"
        },
        {
          "internalType": "address",
          "name": "account",
          "type": "address"
        }
      ],
      "name": "hasRole",
      "outputs": [
        {
          "internalType": "bool",
          "name": "",
          "type": "bool"
        }
      ],
      "stateMutability": "view",
      "type": "function"
    },
    {
      "inputs": [
        {
          "internalType": "address",
          "name": "nftContract",
          "type": "address"
        },
        {
          "internalType": "uint256",
          "name": "tokenId",
          "type": "uint256"
        },
        {
          "internalType": "uint256",
          "name": "price",
          "type": "uint256"
        },
        {
          "internalType": "uint256",
          "name": "amount",
          "type": "uint256"
        }
      ],
      "name": "listItem",
      "outputs": [],
      "stateMutability": "nonpayable",
      "type": "function"
    },
    {
      "inputs": [
        {
          "internalType": "address",
          "name": "",
          "type": "address"
        },
        {
          "internalType": "address",
          "name": "",
          "type": "address"
        },
        {
          "internalType": "uint256[]",
          "name": "",
          "type": "uint256[]"
        },
        {
          "internalType": "uint256[]",
          "name": "",
          "type": "uint256[]"
        },
        {
          "internalType": "bytes",
          "name": "",
          "type": "bytes"
        }
      ],
      "name": "onERC1155BatchReceived",
      "outputs": [
        {
          "internalType": "bytes4",
          "name": "",
          "type": "bytes4"
        }
      ],
      "stateMutability": "nonpayable",
      "type": "function"
    },
    {
      "inputs": [
        {
          "internalType": "address",
          "name": "",
          "type": "address"
        },
        {
          "internalType": "address",
          "name": "",
          "type": "address"
        },
        {
          "internalType": "uint256",
          "name": "",
          "type": "uint256"
        },
        {
          "internalType": "uint256",
          "name": "",
          "type": "uint256"
        },
        {
          "internalType": "bytes",
          "name": "",
          "type": "bytes"
        }
      ],
      "name": "onERC1155Received",
      "outputs": [
        {
          "internalType": "bytes4",
          "name": "",
          "type": "bytes4"
        }
      ],
      "stateMutability": "nonpayable",
      "type": "function"
    },
    {
      "inputs": [
        {
          "internalType": "address",
          "name": "",
          "type": "address"
        },
        {
          "internalType": "address",
          "name": "",
          "type": "address"
        },
        {
          "internalType": "uint256",
          "name": "",
          "type": "uint256"
        },
        {
          "internalType": "bytes",
          "name": "",
          "type": "bytes"
        }
      ],
      "name": "onERC721Received",
      "outputs": [
        {
          "internalType": "bytes4",
          "name": "",
          "type": "bytes4"
        }
      ],
      "stateMutability": "pure",
      "type": "function"
    },
    {
      "inputs": [
        {
          "internalType": "bytes32",
          "name": "role",
          "type": "bytes32"
        },
        {
          "internalType": "address",
          "name": "account",
          "type": "address"
        }
      ],
      "name": "renounceRole",
      "outputs": [],
      "stateMutability": "nonpayable",
      "type": "function"
    },
    {
      "inputs": [
        {
          "internalType": "bytes32",
          "name": "role",
          "type": "bytes32"
        },
        {
          "internalType": "address",
          "name": "account",
          "type": "address"
        }
      ],
      "name": "revokeRole",
      "outputs": [],
      "stateMutability": "nonpayable",
      "type": "function"
    },
    {
      "inputs": [
        {
          "internalType": "bytes4",
          "name": "interfaceId",
          "type": "bytes4"
        }
      ],
      "name": "supportsInterface",
      "outputs": [
        {
          "internalType": "bool",
          "name": "",
          "type": "bool"
        }
      ],
      "stateMutability": "view",
      "type": "function"
    },
    {
      "inputs": [
        {
          "internalType": "uint256",
          "name": "itemId",
          "type": "uint256"
        },
        {
          "internalType": "uint256",
          "name": "price",
          "type": "uint256"
        },
        {
          "internalType": "uint256",
          "name": "amount",
          "type": "uint256"
        }
      ],
      "name": "updateListing",
      "outputs": [],
      "stateMutability": "nonpayable",
      "type": "function"
    }
  ],
  "bytecode": "0x608060405234801561001057600080fd5b50600160008190555061362d806100286000396000f3fe6080604052600436106100fe5760003560e01c806391d1485411610095578063bcb143ef11610064578063bcb143ef14610360578063ca15c87314610389578063d547741f146103c6578063f23a6e61146103ef578063f6cf2a161461042c576100fe565b806391d148541461029f5780639979c009146102dc578063a217fddf146102f8578063bc197c8114610323576100fe565b8063248a9ca3116100d1578063248a9ca3146101d35780632f2ff15d1461021057806336568abe146102395780639010d07c14610262576100fe565b806301ffc9a7146101035780630f08efe014610140578063150b7a021461016b57806315c9ae10146101a8575b600080fd5b34801561010f57600080fd5b5061012a600480360381019061012591906122fd565b610455565b6040516101379190612345565b60405180910390f35b34801561014c57600080fd5b50610155610537565b60405161016291906125a7565b60405180910390f35b34801561017757600080fd5b50610192600480360381019061018d9190612686565b6107d9565b60405161019f919061271d565b60405180910390f35b3480156101b457600080fd5b506101bd6107ee565b6040516101ca91906125a7565b60405180910390f35b3480156101df57600080fd5b506101fa60048036038101906101f5919061276e565b610aae565b60405161020791906127aa565b60405180910390f35b34801561021c57600080fd5b50610237600480360381019061023291906127c5565b610ace565b005b34801561024557600080fd5b50610260600480360381019061025b91906127c5565b610aef565b005b34801561026e57600080fd5b5061028960048036038101906102849190612805565b610b72565b6040516102969190612854565b60405180910390f35b3480156102ab57600080fd5b506102c660048036038101906102c191906127c5565b610ba1565b6040516102d39190612345565b60405180910390f35b6102f660048036038101906102f1919061286f565b610c0c565b005b34801561030457600080fd5b5061030d610f64565b60405161031a91906127aa565b60405180910390f35b34801561032f57600080fd5b5061034a60048036038101906103459190612ab3565b610f6b565b604051610357919061271d565b60405180910390f35b34801561036c57600080fd5b5061038760048036038101906103829190612b82565b610f80565b005b34801561039557600080fd5b506103b060048036038101906103ab919061276e565b6112e1565b6040516103bd9190612bf8565b60405180910390f35b3480156103d257600080fd5b506103ed60048036038101906103e891906127c5565b611305565b005b3480156103fb57600080fd5b5061041660048036038101906104119190612c13565b611326565b604051610423919061271d565b60405180910390f35b34801561043857600080fd5b50610453600480360381019061044e9190612caa565b61133b565b005b60007f4e2312e0000000000000000000000000000000000000000000000000000000007bffffffffffffffffffffffffffffffffffffffffffffffffffffffff1916827bffffffffffffffffffffffffffffffffffffffffffffffffffffffff1916148061052057507f150b7a02000000000000000000000000000000000000000000000000000000007bffffffffffffffffffffffffffffffffffffffffffffffffffffffff1916827bffffffffffffffffffffffffffffffffffffffffffffffffffffffff1916145b80610530575061052f82611523565b5b9050919050565b60606000610545600361159d565b90506000610553600461159d565b8261055e9190612d2c565b905060008167ffffffffffffffff81111561057c5761057b6128c0565b5b6040519080825280602002602001820160405280156105b557816020015b6105a26121ef565b81526020019060019003908161059a5790505b509050600080600190505b8481116107ce576005600082815260200190815260200160002060060160009054906101000a900460ff166107bb576005600082815260200190815260200160002060405180610120016040529081600082015481526020016001820160009054906101000a900473ffffffffffffffffffffffffffffffffffffffff1673ffffffffffffffffffffffffffffffffffffffff1673ffffffffffffffffffffffffffffffffffffffff168152602001600282015481526020016003820160009054906101000a900473ffffffffffffffffffffffffffffffffffffffff1673ffffffffffffffffffffffffffffffffffffffff1673ffffffffffffffffffffffffffffffffffffffff1681526020016004820160009054906101000a900473ffffffffffffffffffffffffffffffffffffffff1673ffffffffffffffffffffffffffffffffffffffff1673ffffffffffffffffffffffffffffffffffffffff168152602001600582015481526020016006820160009054906101000a900460ff161515151581526020016006820160019054906101000a900460ff16600181111561076e5761076d6123f5565b5b60018111156107805761077f6123f5565b5b81526020016007820154815250508383815181106107a1576107a0612d60565b5b602002602001018190525081806107b790612d8f565b9250505b80806107c690612d8f565b9150506105c0565b508194505050505090565b600063150b7a0260e01b905095945050505050565b606060006107fc600361159d565b905060008167ffffffffffffffff81111561081a576108196128c0565b5b60405190808252806020026020018201604052801561085357816020015b6108406121ef565b8152602001906001900390816108385790505b509050600080600190505b838111610aa15760006005600083815260200190815260200160002090503373ffffffffffffffffffffffffffffffffffffffff168160040160009054906101000a900473ffffffffffffffffffffffffffffffffffffffff1673ffffffffffffffffffffffffffffffffffffffff1603610a8d578060405180610120016040529081600082015481526020016001820160009054906101000a900473ffffffffffffffffffffffffffffffffffffffff1673ffffffffffffffffffffffffffffffffffffffff1673ffffffffffffffffffffffffffffffffffffffff168152602001600282015481526020016003820160009054906101000a900473ffffffffffffffffffffffffffffffffffffffff1673ffffffffffffffffffffffffffffffffffffffff1673ffffffffffffffffffffffffffffffffffffffff1681526020016004820160009054906101000a900473ffffffffffffffffffffffffffffffffffffffff1673ffffffffffffffffffffffffffffffffffffffff1673ffffffffffffffffffffffffffffffffffffffff168152602001600582015481526020016006820160009054906101000a900460ff161515151581526020016006820160019054906101000a900460ff166001811115610a4057610a3f6123f5565b5b6001811115610a5257610a516123f5565b5b8152602001600782015481525050848481518110610a7357610a72612d60565b5b60200260200101819052508280610a8990612d8f565b9350505b508080610a9990612d8f565b91505061085e565b5080825281935050505090565b600060016000838152602001908152602001600020600101549050919050565b610ad782610aae565b610ae0816115ab565b610aea83836115bf565b505050565b610af76115f3565b73ffffffffffffffffffffffffffffffffffffffff168173ffffffffffffffffffffffffffffffffffffffff1614610b64576040517f08c379a0000000000000000000000000000000000000000000000000000000008152600401610b5b90612e5a565b60405180910390fd5b610b6e82826115fb565b5050565b6000610b99826002600086815260200190815260200160002061162f90919063ffffffff16565b905092915050565b60006001600084815260200190815260200160002060000160008373ffffffffffffffffffffffffffffffffffffffff1673ffffffffffffffffffffffffffffffffffffffff16815260200190815260200160002060009054906101000a900460ff16905092915050565b610c14611649565b6005600083815260200190815260200160002060050154341015610c6d576040517f08c379a0000000000000000000000000000000000000000000000000000000008152600401610c6490612eec565b60405180910390fd5b6005600083815260200190815260200160002060030160009054906101000a900473ffffffffffffffffffffffffffffffffffffffff1673ffffffffffffffffffffffffffffffffffffffff166108fc349081150290604051600060405180830381858888f19350505050158015610ce9573d6000803e3d6000fd5b50610eca6005600084815260200190815260200160002060030160009054906101000a900473ffffffffffffffffffffffffffffffffffffffff1633836005600087815260200190815260200160002060405180610120016040529081600082015481526020016001820160009054906101000a900473ffffffffffffffffffffffffffffffffffffffff1673ffffffffffffffffffffffffffffffffffffffff1673ffffffffffffffffffffffffffffffffffffffff168152602001600282015481526020016003820160009054906101000a900473ffffffffffffffffffffffffffffffffffffffff1673ffffffffffffffffffffffffffffffffffffffff1673ffffffffffffffffffffffffffffffffffffffff1681526020016004820160009054906101000a900473ffffffffffffffffffffffffffffffffffffffff1673ffffffffffffffffffffffffffffffffffffffff1673ffffffffffffffffffffffffffffffffffffffff168152602001600582015481526020016006820160009054906101000a900460ff161515151581526020016006820160019054906101000a900460ff166001811115610ea557610ea46123f5565b5b6001811115610eb757610eb66123f5565b5b8152602001600782015481525050611698565b336005600084815260200190815260200160002060040160006101000a81548173ffffffffffffffffffffffffffffffffffffffff021916908373ffffffffffffffffffffffffffffffffffffffff16021790555060016005600084815260200190815260200160002060060160006101000a81548160ff021916908315150217905550610f5860046117f4565b610f6061180a565b5050565b6000801b81565b600063bc197c8160e01b905095945050505050565b6000610f8b85611814565b905060008311610fd0576040517f08c379a0000000000000000000000000000000000000000000000000000000008152600401610fc790612f58565b60405180910390fd5b600073ffffffffffffffffffffffffffffffffffffffff168573ffffffffffffffffffffffffffffffffffffffff160361103f576040517f08c379a000000000000000000000000000000000000000000000000000000000815260040161103690612fc4565b60405180910390fd5b60008411611082576040517f08c379a000000000000000000000000000000000000000000000000000000000815260040161107990613030565b60405180910390fd5b600082116110c5576040517f08c379a00000000000000000000000000000000000000000000000000000000081526004016110bc9061309c565b60405180910390fd5b6110cf60036117f4565b60006110db600361159d565b90506040518061012001604052808281526020018773ffffffffffffffffffffffffffffffffffffffff1681526020018681526020013373ffffffffffffffffffffffffffffffffffffffff168152602001600073ffffffffffffffffffffffffffffffffffffffff16815260200185815260200160001515815260200183600181111561116c5761116b6123f5565b5b815260200184815250600560008381526020019081526020016000206000820151816000015560208201518160010160006101000a81548173ffffffffffffffffffffffffffffffffffffffff021916908373ffffffffffffffffffffffffffffffffffffffff1602179055506040820151816002015560608201518160030160006101000a81548173ffffffffffffffffffffffffffffffffffffffff021916908373ffffffffffffffffffffffffffffffffffffffff16021790555060808201518160040160006101000a81548173ffffffffffffffffffffffffffffffffffffffff021916908373ffffffffffffffffffffffffffffffffffffffff16021790555060a0820151816005015560c08201518160060160006101000a81548160ff02191690831515021790555060e08201518160060160016101000a81548160ff021916908360018111156112c6576112c56123f5565b5b02179055506101008201518160070155905050505050505050565b60006112fe600260008481526020019081526020016000206119a7565b9050919050565b61130e82610aae565b611317816115ab565b61132183836115fb565b505050565b600063f23a6e6160e01b905095945050505050565b6000821161137e576040517f08c379a000000000000000000000000000000000000000000000000000000000815260040161137590612f58565b60405180910390fd5b600083116113c1576040517f08c379a00000000000000000000000000000000000000000000000000000000081526004016113b890613030565b60405180910390fd5b60008111611404576040517f08c379a00000000000000000000000000000000000000000000000000000000081526004016113fb9061309c565b60405180910390fd5b60006005600085815260200190815260200160002060060160006101000a81548160ff021916908315150217905550336005600085815260200190815260200160002060030160006101000a81548173ffffffffffffffffffffffffffffffffffffffff021916908373ffffffffffffffffffffffffffffffffffffffff16021790555060006005600085815260200190815260200160002060040160006101000a81548173ffffffffffffffffffffffffffffffffffffffff021916908373ffffffffffffffffffffffffffffffffffffffff16021790555081600560008581526020019081526020016000206005018190555080600560008581526020019081526020016000206007018190555061151e60046119bc565b505050565b60007f5a05180f000000000000000000000000000000000000000000000000000000007bffffffffffffffffffffffffffffffffffffffffffffffffffffffff1916827bffffffffffffffffffffffffffffffffffffffffffffffffffffffff19161480611596575061159582611a18565b5b9050919050565b600081600001549050919050565b6115bc816115b76115f3565b611a92565b50565b6115c98282611b17565b6115ee8160026000858152602001908152602001600020611bf790919063ffffffff16565b505050565b600033905090565b6116058282611c27565b61162a8160026000858152602001908152602001600020611d0990919063ffffffff16565b505050565b600061163e8360000183611d39565b60001c905092915050565b60026000540361168e576040517f08c379a000000000000000000000000000000000000000000000000000000000815260040161168590613108565b60405180910390fd5b6002600081905550565b600060018111156116ac576116ab6123f5565b5b8160e0015160018111156116c3576116c26123f5565b5b0361174657806020015173ffffffffffffffffffffffffffffffffffffffff1663f242432a85858460400151866040518563ffffffff1660e01b815260040161170f949392919061315f565b600060405180830381600087803b15801561172957600080fd5b505af115801561173d573d6000803e3d6000fd5b505050506117ee565b600180811115611759576117586123f5565b5b8160e0015160018111156117705761176f6123f5565b5b036117ed57806020015173ffffffffffffffffffffffffffffffffffffffff166342842e0e858584604001516040518463ffffffff1660e01b81526004016117ba939291906131b7565b600060405180830381600087803b1580156117d457600080fd5b505af11580156117e8573d6000803e3d6000fd5b505050505b5b50505050565b6001816000016000828254019250508190555050565b6001600081905550565b60008173ffffffffffffffffffffffffffffffffffffffff166301ffc9a77fd9b67a26000000000000000000000000000000000000000000000000000000006040518263ffffffff1660e01b815260040161186f919061271d565b602060405180830381865afa15801561188c573d6000803e3d6000fd5b505050506040513d601f19601f820116820180604052508101906118b0919061321a565b156118be57600090506119a2565b8173ffffffffffffffffffffffffffffffffffffffff166301ffc9a77f80ac58cd000000000000000000000000000000000000000000000000000000006040518263ffffffff1660e01b8152600401611917919061271d565b602060405180830381865afa158015611934573d6000803e3d6000fd5b505050506040513d601f19601f82011682018060405250810190611958919061321a565b1561196657600190506119a1565b6040517f08c379a000000000000000000000000000000000000000000000000000000000815260040161199890613293565b60405180910390fd5b5b919050565b60006119b582600001611d64565b9050919050565b60008160000154905060008111611a08576040517f08c379a00000000000000000000000000000000000000000000000000000000081526004016119ff906132ff565b60405180910390fd5b6001810382600001819055505050565b60007f7965db0b000000000000000000000000000000000000000000000000000000007bffffffffffffffffffffffffffffffffffffffffffffffffffffffff1916827bffffffffffffffffffffffffffffffffffffffffffffffffffffffff19161480611a8b5750611a8a82611d75565b5b9050919050565b611a9c8282610ba1565b611b1357611aa981611ddf565b611ab78360001c6020611e0c565b604051602001611ac8929190613428565b6040516020818303038152906040526040517f08c379a0000000000000000000000000000000000000000000000000000000008152600401611b0a919061349b565b60405180910390fd5b5050565b611b218282610ba1565b611bf357600180600084815260200190815260200160002060000160008373ffffffffffffffffffffffffffffffffffffffff1673ffffffffffffffffffffffffffffffffffffffff16815260200190815260200160002060006101000a81548160ff021916908315150217905550611b986115f3565b73ffffffffffffffffffffffffffffffffffffffff168173ffffffffffffffffffffffffffffffffffffffff16837f2f8788117e7eff1d82e926ec794901d17c78024a50270940304540a733656f0d60405160405180910390a45b5050565b6000611c1f836000018373ffffffffffffffffffffffffffffffffffffffff1660001b612048565b905092915050565b611c318282610ba1565b15611d055760006001600084815260200190815260200160002060000160008373ffffffffffffffffffffffffffffffffffffffff1673ffffffffffffffffffffffffffffffffffffffff16815260200190815260200160002060006101000a81548160ff021916908315150217905550611caa6115f3565b73ffffffffffffffffffffffffffffffffffffffff168173ffffffffffffffffffffffffffffffffffffffff16837ff6391f5c32d9c69d2a47ea670b442974b53935d1edc7fd64eb21e047a839171b60405160405180910390a45b5050565b6000611d31836000018373ffffffffffffffffffffffffffffffffffffffff1660001b6120b8565b905092915050565b6000826000018281548110611d5157611d50612d60565b5b9060005260206000200154905092915050565b600081600001805490509050919050565b60007f01ffc9a7000000000000000000000000000000000000000000000000000000007bffffffffffffffffffffffffffffffffffffffffffffffffffffffff1916827bffffffffffffffffffffffffffffffffffffffffffffffffffffffff1916149050919050565b6060611e058273ffffffffffffffffffffffffffffffffffffffff16601460ff16611e0c565b9050919050565b606060006002836002611e1f91906134bd565b611e2991906134ff565b67ffffffffffffffff811115611e4257611e416128c0565b5b6040519080825280601f01601f191660200182016040528015611e745781602001600182028036833780820191505090505b5090507f300000000000000000000000000000000000000000000000000000000000000081600081518110611eac57611eab612d60565b5b60200101907effffffffffffffffffffffffffffffffffffffffffffffffffffffffffffff1916908160001a9053507f780000000000000000000000000000000000000000000000000000000000000081600181518110611f1057611f0f612d60565b5b60200101907effffffffffffffffffffffffffffffffffffffffffffffffffffffffffffff1916908160001a90535060006001846002611f5091906134bd565b611f5a91906134ff565b90505b6001811115611ffa577f3031323334353637383961626364656600000000000000000000000000000000600f861660108110611f9c57611f9b612d60565b5b1a60f81b828281518110611fb357611fb2612d60565b5b60200101907effffffffffffffffffffffffffffffffffffffffffffffffffffffffffffff1916908160001a905350600485901c945080611ff390613533565b9050611f5d565b506000841461203e576040517f08c379a0000000000000000000000000000000000000000000000000000000008152600401612035906135a8565b60405180910390fd5b8091505092915050565b600061205483836121cc565b6120ad5782600001829080600181540180825580915050600190039060005260206000200160009091909190915055826000018054905083600101600084815260200190815260200160002081905550600190506120b2565b600090505b92915050565b600080836001016000848152602001908152602001600020549050600081146121c05760006001826120ea9190612d2c565b90506000600186600001805490506121029190612d2c565b905081811461217157600086600001828154811061212357612122612d60565b5b906000526020600020015490508087600001848154811061214757612146612d60565b5b90600052602060002001819055508387600101600083815260200190815260200160002081905550505b85600001805480612185576121846135c8565b5b6001900381819060005260206000200160009055905585600101600086815260200190815260200160002060009055600193505050506121c6565b60009150505b92915050565b600080836001016000848152602001908152602001600020541415905092915050565b60405180610120016040528060008152602001600073ffffffffffffffffffffffffffffffffffffffff16815260200160008152602001600073ffffffffffffffffffffffffffffffffffffffff168152602001600073ffffffffffffffffffffffffffffffffffffffff1681526020016000815260200160001515815260200160006001811115612284576122836123f5565b5b8152602001600081525090565b6000604051905090565b600080fd5b600080fd5b60007fffffffff0000000000000000000000000000000000000000000000000000000082169050919050565b6122da816122a5565b81146122e557600080fd5b50565b6000813590506122f7816122d1565b92915050565b6000602082840312156123135761231261229b565b5b6000612321848285016122e8565b91505092915050565b60008115159050919050565b61233f8161232a565b82525050565b600060208201905061235a6000830184612336565b92915050565b600081519050919050565b600082825260208201905092915050565b6000819050602082019050919050565b6000819050919050565b61239f8161238c565b82525050565b600073ffffffffffffffffffffffffffffffffffffffff82169050919050565b60006123d0826123a5565b9050919050565b6123e0816123c5565b82525050565b6123ef8161232a565b82525050565b7f4e487b7100000000000000000000000000000000000000000000000000000000600052602160045260246000fd5b60028110612435576124346123f5565b5b50565b600081905061244682612424565b919050565b600061245682612438565b9050919050565b6124668161244b565b82525050565b610120820160008201516124836000850182612396565b50602082015161249660208501826123d7565b5060408201516124a96040850182612396565b5060608201516124bc60608501826123d7565b5060808201516124cf60808501826123d7565b5060a08201516124e260a0850182612396565b5060c08201516124f560c08501826123e6565b5060e082015161250860e085018261245d565b5061010082015161251d610100850182612396565b50505050565b600061252f838361246c565b6101208301905092915050565b6000602082019050919050565b600061255482612360565b61255e818561236b565b93506125698361237c565b8060005b8381101561259a5781516125818882612523565b975061258c8361253c565b92505060018101905061256d565b5085935050505092915050565b600060208201905081810360008301526125c18184612549565b905092915050565b6125d2816123c5565b81146125dd57600080fd5b50565b6000813590506125ef816125c9565b92915050565b6125fe8161238c565b811461260957600080fd5b50565b60008135905061261b816125f5565b92915050565b600080fd5b600080fd5b600080fd5b60008083601f84011261264657612645612621565b5b8235905067ffffffffffffffff81111561266357612662612626565b5b60208301915083600182028301111561267f5761267e61262b565b5b9250929050565b6000806000806000608086880312156126a2576126a161229b565b5b60006126b0888289016125e0565b95505060206126c1888289016125e0565b94505060406126d28882890161260c565b935050606086013567ffffffffffffffff8111156126f3576126f26122a0565b5b6126ff88828901612630565b92509250509295509295909350565b612717816122a5565b82525050565b6000602082019050612732600083018461270e565b92915050565b6000819050919050565b61274b81612738565b811461275657600080fd5b50565b60008135905061276881612742565b92915050565b6000602082840312156127845761278361229b565b5b600061279284828501612759565b91505092915050565b6127a481612738565b82525050565b60006020820190506127bf600083018461279b565b92915050565b600080604083850312156127dc576127db61229b565b5b60006127ea85828601612759565b92505060206127fb858286016125e0565b9150509250929050565b6000806040838503121561281c5761281b61229b565b5b600061282a85828601612759565b925050602061283b8582860161260c565b9150509250929050565b61284e816123c5565b82525050565b60006020820190506128696000830184612845565b92915050565b600080604083850312156128865761288561229b565b5b60006128948582860161260c565b92505060206128a58582860161260c565b9150509250929050565b6000601f19601f8301169050919050565b7f4e487b7100000000000000000000000000000000000000000000000000000000600052604160045260246000fd5b6128f8826128af565b810181811067ffffffffffffffff82111715612917576129166128c0565b5b80604052505050565b600061292a612291565b905061293682826128ef565b919050565b600067ffffffffffffffff821115612956576129556128c0565b5b602082029050602081019050919050565b600061297a6129758461293b565b612920565b9050808382526020820190506020840283018581111561299d5761299c61262b565b5b835b818110156129c657806129b2888261260c565b84526020840193505060208101905061299f565b5050509392505050565b600082601f8301126129e5576129e4612621565b5b81356129f5848260208601612967565b91505092915050565b600080fd5b600067ffffffffffffffff821115612a1e57612a1d6128c0565b5b612a27826128af565b9050602081019050919050565b82818337600083830152505050565b6000612a56612a5184612a03565b612920565b905082815260208101848484011115612a7257612a716129fe565b5b612a7d848285612a34565b509392505050565b600082601f830112612a9a57612a99612621565b5b8135612aaa848260208601612a43565b91505092915050565b600080600080600060a08688031215612acf57612ace61229b565b5b6000612add888289016125e0565b9550506020612aee888289016125e0565b945050604086013567ffffffffffffffff811115612b0f57612b0e6122a0565b5b612b1b888289016129d0565b935050606086013567ffffffffffffffff811115612b3c57612b3b6122a0565b5b612b48888289016129d0565b925050608086013567ffffffffffffffff811115612b6957612b686122a0565b5b612b7588828901612a85565b9150509295509295909350565b60008060008060808587031215612b9c57612b9b61229b565b5b6000612baa878288016125e0565b9450506020612bbb8782880161260c565b9350506040612bcc8782880161260c565b9250506060612bdd8782880161260c565b91505092959194509250565b612bf28161238c565b82525050565b6000602082019050612c0d6000830184612be9565b92915050565b600080600080600060a08688031215612c2f57612c2e61229b565b5b6000612c3d888289016125e0565b9550506020612c4e888289016125e0565b9450506040612c5f8882890161260c565b9350506060612c708882890161260c565b925050608086013567ffffffffffffffff811115612c9157612c906122a0565b5b612c9d88828901612a85565b9150509295509295909350565b600080600060608486031215612cc357612cc261229b565b5b6000612cd18682870161260c565b9350506020612ce28682870161260c565b9250506040612cf38682870161260c565b9150509250925092565b7f4e487b7100000000000000000000000000000000000000000000000000000000600052601160045260246000fd5b6000612d378261238c565b9150612d428361238c565b9250828203905081811115612d5a57612d59612cfd565b5b92915050565b7f4e487b7100000000000000000000000000000000000000000000000000000000600052603260045260246000fd5b6000612d9a8261238c565b91507fffffffffffffffffffffffffffffffffffffffffffffffffffffffffffffffff8203612dcc57612dcb612cfd565b5b600182019050919050565b600082825260208201905092915050565b7f416363657373436f6e74726f6c3a2063616e206f6e6c792072656e6f756e636560008201527f20726f6c657320666f722073656c660000000000000000000000000000000000602082015250565b6000612e44602f83612dd7565b9150612e4f82612de8565b604082019050919050565b60006020820190508181036000830152612e7381612e37565b9050919050565b7f4572726f7220696e20636f6e74726163743a20496e636f72726563742070726960008201527f6365000000000000000000000000000000000000000000000000000000000000602082015250565b6000612ed6602283612dd7565b9150612ee182612e7a565b604082019050919050565b60006020820190508181036000830152612f0581612ec9565b9050919050565b7f5072696365206d7573742062652067726561746572207468616e203000000000600082015250565b6000612f42601c83612dd7565b9150612f4d82612f0c565b602082019050919050565b60006020820190508181036000830152612f7181612f35565b9050919050565b7f496e76616c6964204e465420636f6e7472616374206164647265737300000000600082015250565b6000612fae601c83612dd7565b9150612fb982612f78565b602082019050919050565b60006020820190508181036000830152612fdd81612fa1565b9050919050565b7f496e76616c696420746f6b656e20494400000000000000000000000000000000600082015250565b600061301a601083612dd7565b915061302582612fe4565b602082019050919050565b600060208201905081810360008301526130498161300d565b9050919050565b7f416d6f756e74206d7573742062652067726561746572207468616e2030000000600082015250565b6000613086601d83612dd7565b915061309182613050565b602082019050919050565b600060208201905081810360008301526130b581613079565b9050919050565b7f5265656e7472616e637947756172643a207265656e7472616e742063616c6c00600082015250565b60006130f2601f83612dd7565b91506130fd826130bc565b602082019050919050565b60006020820190508181036000830152613121816130e5565b9050919050565b600082825260208201905092915050565b50565b6000613149600083613128565b915061315482613139565b600082019050919050565b600060a0820190506131746000830187612845565b6131816020830186612845565b61318e6040830185612be9565b61319b6060830184612be9565b81810360808301526131ac8161313c565b905095945050505050565b60006060820190506131cc6000830186612845565b6131d96020830185612845565b6131e66040830184612be9565b949350505050565b6131f78161232a565b811461320257600080fd5b50565b600081519050613214816131ee565b92915050565b6000602082840312156132305761322f61229b565b5b600061323e84828501613205565b91505092915050565b7f746f6b656e206d7573742062652045524331313535206f72204552433732312e600082015250565b600061327d602083612dd7565b915061328882613247565b602082019050919050565b600060208201905081810360008301526132ac81613270565b9050919050565b7f436f756e7465723a2064656372656d656e74206f766572666c6f770000000000600082015250565b60006132e9601b83612dd7565b91506132f4826132b3565b602082019050919050565b60006020820190508181036000830152613318816132dc565b9050919050565b600081905092915050565b7f416363657373436f6e74726f6c3a206163636f756e7420000000000000000000600082015250565b600061336060178361331f565b915061336b8261332a565b601782019050919050565b600081519050919050565b60005b8381101561339f578082015181840152602081019050613384565b60008484015250505050565b60006133b682613376565b6133c0818561331f565b93506133d0818560208601613381565b80840191505092915050565b7f206973206d697373696e6720726f6c6520000000000000000000000000000000600082015250565b600061341260118361331f565b915061341d826133dc565b601182019050919050565b600061343382613353565b915061343f82856133ab565b915061344a82613405565b915061345682846133ab565b91508190509392505050565b600061346d82613376565b6134778185612dd7565b9350613487818560208601613381565b613490816128af565b840191505092915050565b600060208201905081810360008301526134b58184613462565b905092915050565b60006134c88261238c565b91506134d38361238c565b92508282026134e18161238c565b915082820484148315176134f8576134f7612cfd565b5b5092915050565b600061350a8261238c565b91506135158361238c565b925082820190508082111561352d5761352c612cfd565b5b92915050565b600061353e8261238c565b91506000820361355157613550612cfd565b5b600182039050919050565b7f537472696e67733a20686578206c656e67746820696e73756666696369656e74600082015250565b6000613592602083612dd7565b915061359d8261355c565b602082019050919050565b600060208201905081810360008301526135c181613585565b9050919050565b7f4e487b7100000000000000000000000000000000000000000000000000000000600052603160045260246000fdfea2646970667358221220646310ff4ea2547cb56720b60411b8f475a86de2a6802a9a5b59a6559443a98c64736f6c63430008130033",
  "linkReferences": {},
  "deployedLinkReferences": {}
}