{
  "_format": "hh-sol-artifact-1",
  "contractName": "NFTMarket",
  "sourceName": "contracts/NFTMarket.sol",
  "abi": [
    {
      "anonymous": false,
      "inputs": [
        {
          "indexed": true,
          "internalType": "bytes32",
          "name": "role",
          "type": "bytes32"
        },
        {
          "indexed": true,
          "internalType": "bytes32",
          "name": "previousAdminRole",
          "type": "bytes32"
        },
        {
          "indexed": true,
          "internalType": "bytes32",
          "name": "newAdminRole",
          "type": "bytes32"
        }
      ],
      "name": "RoleAdminChanged",
      "type": "event"
    },
    {
      "anonymous": false,
      "inputs": [
        {
          "indexed": true,
          "internalType": "bytes32",
          "name": "role",
          "type": "bytes32"
        },
        {
          "indexed": true,
          "internalType": "address",
          "name": "account",
          "type": "address"
        },
        {
          "indexed": true,
          "internalType": "address",
          "name": "sender",
          "type": "address"
        }
      ],
      "name": "RoleGranted",
      "type": "event"
    },
    {
      "anonymous": false,
      "inputs": [
        {
          "indexed": true,
          "internalType": "bytes32",
          "name": "role",
          "type": "bytes32"
        },
        {
          "indexed": true,
          "internalType": "address",
          "name": "account",
          "type": "address"
        },
        {
          "indexed": true,
          "internalType": "address",
          "name": "sender",
          "type": "address"
        }
      ],
      "name": "RoleRevoked",
      "type": "event"
    },
    {
      "inputs": [],
      "name": "DEFAULT_ADMIN_ROLE",
      "outputs": [
        {
          "internalType": "bytes32",
          "name": "",
          "type": "bytes32"
        }
      ],
      "stateMutability": "view",
      "type": "function"
    },
    {
      "inputs": [
        {
          "internalType": "uint256",
          "name": "itemId",
          "type": "uint256"
        },
        {
          "internalType": "uint256",
          "name": "amount",
          "type": "uint256"
        }
      ],
      "name": "buyItem",
      "outputs": [],
      "stateMutability": "payable",
      "type": "function"
    },
    {
      "inputs": [
        {
          "internalType": "address",
          "name": "nftContract",
          "type": "address"
        },
        {
          "internalType": "uint256",
          "name": "tokenId",
          "type": "uint256"
        },
        {
          "internalType": "uint256",
          "name": "price",
          "type": "uint256"
        },
        {
          "internalType": "uint256",
          "name": "amount",
          "type": "uint256"
        }
      ],
      "name": "createItem",
      "outputs": [],
      "stateMutability": "nonpayable",
      "type": "function"
    },
    {
      "inputs": [],
      "name": "fetchMarketItems",
      "outputs": [
        {
          "components": [
            {
              "internalType": "uint256",
              "name": "itemId",
              "type": "uint256"
            },
            {
              "internalType": "address",
              "name": "assetContract",
              "type": "address"
            },
            {
              "internalType": "uint256",
              "name": "tokenId",
              "type": "uint256"
            },
            {
              "internalType": "address",
              "name": "seller",
              "type": "address"
            },
            {
              "internalType": "address",
              "name": "owner",
              "type": "address"
            },
            {
              "internalType": "uint256",
              "name": "price",
              "type": "uint256"
            },
            {
              "internalType": "bool",
              "name": "sold",
              "type": "bool"
            },
            {
              "internalType": "enum NFTMarket.TokenType",
              "name": "tokenType",
              "type": "uint8"
            },
            {
              "internalType": "uint256",
              "name": "amount",
              "type": "uint256"
            }
          ],
          "internalType": "struct NFTMarket.MarketItem[]",
          "name": "",
          "type": "tuple[]"
        }
      ],
      "stateMutability": "view",
      "type": "function"
    },
    {
      "inputs": [],
      "name": "fetchMyItems",
      "outputs": [
        {
          "components": [
            {
              "internalType": "uint256",
              "name": "itemId",
              "type": "uint256"
            },
            {
              "internalType": "address",
              "name": "assetContract",
              "type": "address"
            },
            {
              "internalType": "uint256",
              "name": "tokenId",
              "type": "uint256"
            },
            {
              "internalType": "address",
              "name": "seller",
              "type": "address"
            },
            {
              "internalType": "address",
              "name": "owner",
              "type": "address"
            },
            {
              "internalType": "uint256",
              "name": "price",
              "type": "uint256"
            },
            {
              "internalType": "bool",
              "name": "sold",
              "type": "bool"
            },
            {
              "internalType": "enum NFTMarket.TokenType",
              "name": "tokenType",
              "type": "uint8"
            },
            {
              "internalType": "uint256",
              "name": "amount",
              "type": "uint256"
            }
          ],
          "internalType": "struct NFTMarket.MarketItem[]",
          "name": "",
          "type": "tuple[]"
        }
      ],
      "stateMutability": "view",
      "type": "function"
    },
    {
      "inputs": [
        {
          "internalType": "bytes32",
          "name": "role",
          "type": "bytes32"
        }
      ],
      "name": "getRoleAdmin",
      "outputs": [
        {
          "internalType": "bytes32",
          "name": "",
          "type": "bytes32"
        }
      ],
      "stateMutability": "view",
      "type": "function"
    },
    {
      "inputs": [
        {
          "internalType": "bytes32",
          "name": "role",
          "type": "bytes32"
        },
        {
          "internalType": "uint256",
          "name": "index",
          "type": "uint256"
        }
      ],
      "name": "getRoleMember",
      "outputs": [
        {
          "internalType": "address",
          "name": "",
          "type": "address"
        }
      ],
      "stateMutability": "view",
      "type": "function"
    },
    {
      "inputs": [
        {
          "internalType": "bytes32",
          "name": "role",
          "type": "bytes32"
        }
      ],
      "name": "getRoleMemberCount",
      "outputs": [
        {
          "internalType": "uint256",
          "name": "",
          "type": "uint256"
        }
      ],
      "stateMutability": "view",
      "type": "function"
    },
    {
      "inputs": [
        {
          "internalType": "bytes32",
          "name": "role",
          "type": "bytes32"
        },
        {
          "internalType": "address",
          "name": "account",
          "type": "address"
        }
      ],
      "name": "grantRole",
      "outputs": [],
      "stateMutability": "nonpayable",
      "type": "function"
    },
    {
      "inputs": [
        {
          "internalType": "bytes32",
          "name": "role",
          "type": "bytes32"
        },
        {
          "internalType": "address",
          "name": "account",
          "type": "address"
        }
      ],
      "name": "hasRole",
      "outputs": [
        {
          "internalType": "bool",
          "name": "",
          "type": "bool"
        }
      ],
      "stateMutability": "view",
      "type": "function"
    },
    {
      "inputs": [
        {
          "internalType": "uint256",
          "name": "itemId",
          "type": "uint256"
        },
        {
          "internalType": "uint256",
          "name": "price",
          "type": "uint256"
        },
        {
          "internalType": "uint256",
          "name": "amount",
          "type": "uint256"
        }
      ],
      "name": "listItem",
      "outputs": [],
      "stateMutability": "nonpayable",
      "type": "function"
    },
    {
      "inputs": [
        {
          "internalType": "address",
          "name": "",
          "type": "address"
        },
        {
          "internalType": "address",
          "name": "",
          "type": "address"
        },
        {
          "internalType": "uint256[]",
          "name": "",
          "type": "uint256[]"
        },
        {
          "internalType": "uint256[]",
          "name": "",
          "type": "uint256[]"
        },
        {
          "internalType": "bytes",
          "name": "",
          "type": "bytes"
        }
      ],
      "name": "onERC1155BatchReceived",
      "outputs": [
        {
          "internalType": "bytes4",
          "name": "",
          "type": "bytes4"
        }
      ],
      "stateMutability": "nonpayable",
      "type": "function"
    },
    {
      "inputs": [
        {
          "internalType": "address",
          "name": "",
          "type": "address"
        },
        {
          "internalType": "address",
          "name": "",
          "type": "address"
        },
        {
          "internalType": "uint256",
          "name": "",
          "type": "uint256"
        },
        {
          "internalType": "uint256",
          "name": "",
          "type": "uint256"
        },
        {
          "internalType": "bytes",
          "name": "",
          "type": "bytes"
        }
      ],
      "name": "onERC1155Received",
      "outputs": [
        {
          "internalType": "bytes4",
          "name": "",
          "type": "bytes4"
        }
      ],
      "stateMutability": "nonpayable",
      "type": "function"
    },
    {
      "inputs": [
        {
          "internalType": "address",
          "name": "",
          "type": "address"
        },
        {
          "internalType": "address",
          "name": "",
          "type": "address"
        },
        {
          "internalType": "uint256",
          "name": "",
          "type": "uint256"
        },
        {
          "internalType": "bytes",
          "name": "",
          "type": "bytes"
        }
      ],
      "name": "onERC721Received",
      "outputs": [
        {
          "internalType": "bytes4",
          "name": "",
          "type": "bytes4"
        }
      ],
      "stateMutability": "pure",
      "type": "function"
    },
    {
      "inputs": [
        {
          "internalType": "bytes32",
          "name": "role",
          "type": "bytes32"
        },
        {
          "internalType": "address",
          "name": "account",
          "type": "address"
        }
      ],
      "name": "renounceRole",
      "outputs": [],
      "stateMutability": "nonpayable",
      "type": "function"
    },
    {
      "inputs": [
        {
          "internalType": "bytes32",
          "name": "role",
          "type": "bytes32"
        },
        {
          "internalType": "address",
          "name": "account",
          "type": "address"
        }
      ],
      "name": "revokeRole",
      "outputs": [],
      "stateMutability": "nonpayable",
      "type": "function"
    },
    {
      "inputs": [
        {
          "internalType": "bytes4",
          "name": "interfaceId",
          "type": "bytes4"
        }
      ],
      "name": "supportsInterface",
      "outputs": [
        {
          "internalType": "bool",
          "name": "",
          "type": "bool"
        }
      ],
      "stateMutability": "view",
      "type": "function"
    }
  ],
  "bytecode": "0x608060405234801561001057600080fd5b5060016000819055506136ae806100286000396000f3fe6080604052600436106100fe5760003560e01c806391d1485411610095578063ca15c87311610064578063ca15c87314610360578063d547741f1461039d578063ec16b94a146103c6578063f23a6e61146103ef578063f6176e641461042c576100fe565b806391d148541461029f5780639979c009146102dc578063a217fddf146102f8578063bc197c8114610323576100fe565b8063248a9ca3116100d1578063248a9ca3146101d35780632f2ff15d1461021057806336568abe146102395780639010d07c14610262576100fe565b806301ffc9a7146101035780630f08efe014610140578063150b7a021461016b57806315c9ae10146101a8575b600080fd5b34801561010f57600080fd5b5061012a600480360381019061012591906123ea565b610455565b6040516101379190612432565b60405180910390f35b34801561014c57600080fd5b50610155610537565b6040516101629190612694565b60405180910390f35b34801561017757600080fd5b50610192600480360381019061018d9190612773565b6107d9565b60405161019f919061280a565b60405180910390f35b3480156101b457600080fd5b506101bd6107ee565b6040516101ca9190612694565b60405180910390f35b3480156101df57600080fd5b506101fa60048036038101906101f5919061285b565b610aae565b6040516102079190612897565b60405180910390f35b34801561021c57600080fd5b50610237600480360381019061023291906128b2565b610ace565b005b34801561024557600080fd5b50610260600480360381019061025b91906128b2565b610aef565b005b34801561026e57600080fd5b50610289600480360381019061028491906128f2565b610b72565b6040516102969190612941565b60405180910390f35b3480156102ab57600080fd5b506102c660048036038101906102c191906128b2565b610ba1565b6040516102d39190612432565b60405180910390f35b6102f660048036038101906102f1919061295c565b610c0c565b005b34801561030457600080fd5b5061030d610f2e565b60405161031a9190612897565b60405180910390f35b34801561032f57600080fd5b5061034a60048036038101906103459190612ba0565b610f35565b604051610357919061280a565b60405180910390f35b34801561036c57600080fd5b506103876004803603810190610382919061285b565b610f4a565b6040516103949190612c7e565b60405180910390f35b3480156103a957600080fd5b506103c460048036038101906103bf91906128b2565b610f6e565b005b3480156103d257600080fd5b506103ed60048036038101906103e89190612c99565b610f8f565b005b3480156103fb57600080fd5b5061041660048036038101906104119190612cec565b6112f7565b604051610423919061280a565b60405180910390f35b34801561043857600080fd5b50610453600480360381019061044e9190612d83565b61130c565b005b60007f4e2312e0000000000000000000000000000000000000000000000000000000007bffffffffffffffffffffffffffffffffffffffffffffffffffffffff1916827bffffffffffffffffffffffffffffffffffffffffffffffffffffffff1916148061052057507f150b7a02000000000000000000000000000000000000000000000000000000007bffffffffffffffffffffffffffffffffffffffffffffffffffffffff1916827bffffffffffffffffffffffffffffffffffffffffffffffffffffffff1916145b80610530575061052f8261166c565b5b9050919050565b6060600061054560036116e6565b9050600061055360046116e6565b8261055e9190612e19565b905060008167ffffffffffffffff81111561057c5761057b6129ad565b5b6040519080825280602002602001820160405280156105b557816020015b6105a26122dc565b81526020019060019003908161059a5790505b509050600080600190505b8481116107ce576005600082815260200190815260200160002060060160009054906101000a900460ff166107bb576005600082815260200190815260200160002060405180610120016040529081600082015481526020016001820160009054906101000a900473ffffffffffffffffffffffffffffffffffffffff1673ffffffffffffffffffffffffffffffffffffffff1673ffffffffffffffffffffffffffffffffffffffff168152602001600282015481526020016003820160009054906101000a900473ffffffffffffffffffffffffffffffffffffffff1673ffffffffffffffffffffffffffffffffffffffff1673ffffffffffffffffffffffffffffffffffffffff1681526020016004820160009054906101000a900473ffffffffffffffffffffffffffffffffffffffff1673ffffffffffffffffffffffffffffffffffffffff1673ffffffffffffffffffffffffffffffffffffffff168152602001600582015481526020016006820160009054906101000a900460ff161515151581526020016006820160019054906101000a900460ff16600181111561076e5761076d6124e2565b5b60018111156107805761077f6124e2565b5b81526020016007820154815250508383815181106107a1576107a0612e4d565b5b602002602001018190525081806107b790612e7c565b9250505b80806107c690612e7c565b9150506105c0565b508194505050505090565b600063150b7a0260e01b905095945050505050565b606060006107fc60036116e6565b905060008167ffffffffffffffff81111561081a576108196129ad565b5b60405190808252806020026020018201604052801561085357816020015b6108406122dc565b8152602001906001900390816108385790505b509050600080600190505b838111610aa15760006005600083815260200190815260200160002090503373ffffffffffffffffffffffffffffffffffffffff168160040160009054906101000a900473ffffffffffffffffffffffffffffffffffffffff1673ffffffffffffffffffffffffffffffffffffffff1603610a8d578060405180610120016040529081600082015481526020016001820160009054906101000a900473ffffffffffffffffffffffffffffffffffffffff1673ffffffffffffffffffffffffffffffffffffffff1673ffffffffffffffffffffffffffffffffffffffff168152602001600282015481526020016003820160009054906101000a900473ffffffffffffffffffffffffffffffffffffffff1673ffffffffffffffffffffffffffffffffffffffff1673ffffffffffffffffffffffffffffffffffffffff1681526020016004820160009054906101000a900473ffffffffffffffffffffffffffffffffffffffff1673ffffffffffffffffffffffffffffffffffffffff1673ffffffffffffffffffffffffffffffffffffffff168152602001600582015481526020016006820160009054906101000a900460ff161515151581526020016006820160019054906101000a900460ff166001811115610a4057610a3f6124e2565b5b6001811115610a5257610a516124e2565b5b8152602001600782015481525050848481518110610a7357610a72612e4d565b5b60200260200101819052508280610a8990612e7c565b9350505b508080610a9990612e7c565b91505061085e565b5080825281935050505090565b600060016000838152602001908152602001600020600101549050919050565b610ad782610aae565b610ae0816116f4565b610aea8383611708565b505050565b610af761173c565b73ffffffffffffffffffffffffffffffffffffffff168173ffffffffffffffffffffffffffffffffffffffff1614610b64576040517f08c379a0000000000000000000000000000000000000000000000000000000008152600401610b5b90612f47565b60405180910390fd5b610b6e8282611744565b5050565b6000610b99826002600086815260200190815260200160002061177890919063ffffffff16565b905092915050565b60006001600084815260200190815260200160002060000160008373ffffffffffffffffffffffffffffffffffffffff1673ffffffffffffffffffffffffffffffffffffffff16815260200190815260200160002060009054906101000a900460ff16905092915050565b610c14611792565b6005600083815260200190815260200160002060050154341015610c6d576040517f08c379a0000000000000000000000000000000000000000000000000000000008152600401610c6490612fd9565b60405180910390fd5b6005600083815260200190815260200160002060030160009054906101000a900473ffffffffffffffffffffffffffffffffffffffff1673ffffffffffffffffffffffffffffffffffffffff166108fc349081150290604051600060405180830381858888f19350505050158015610ce9573d6000803e3d6000fd5b50610e943033836005600087815260200190815260200160002060405180610120016040529081600082015481526020016001820160009054906101000a900473ffffffffffffffffffffffffffffffffffffffff1673ffffffffffffffffffffffffffffffffffffffff1673ffffffffffffffffffffffffffffffffffffffff168152602001600282015481526020016003820160009054906101000a900473ffffffffffffffffffffffffffffffffffffffff1673ffffffffffffffffffffffffffffffffffffffff1673ffffffffffffffffffffffffffffffffffffffff1681526020016004820160009054906101000a900473ffffffffffffffffffffffffffffffffffffffff1673ffffffffffffffffffffffffffffffffffffffff1673ffffffffffffffffffffffffffffffffffffffff168152602001600582015481526020016006820160009054906101000a900460ff161515151581526020016006820160019054906101000a900460ff166001811115610e6f57610e6e6124e2565b5b6001811115610e8157610e806124e2565b5b81526020016007820154815250506117e1565b336005600084815260200190815260200160002060040160006101000a81548173ffffffffffffffffffffffffffffffffffffffff021916908373ffffffffffffffffffffffffffffffffffffffff16021790555060016005600084815260200190815260200160002060060160006101000a81548160ff021916908315150217905550610f22600461193d565b610f2a611953565b5050565b6000801b81565b600063bc197c8160e01b905095945050505050565b6000610f676002600084815260200190815260200160002061195d565b9050919050565b610f7782610aae565b610f80816116f4565b610f8a8383611744565b505050565b60008211610fd2576040517f08c379a0000000000000000000000000000000000000000000000000000000008152600401610fc990613045565b60405180910390fd5b60008311611015576040517f08c379a000000000000000000000000000000000000000000000000000000000815260040161100c906130b1565b60405180910390fd5b60008111611058576040517f08c379a000000000000000000000000000000000000000000000000000000000815260040161104f9061311d565b60405180910390fd5b60006005600085815260200190815260200160002060060160006101000a81548160ff021916908315150217905550336005600085815260200190815260200160002060030160006101000a81548173ffffffffffffffffffffffffffffffffffffffff021916908373ffffffffffffffffffffffffffffffffffffffff1602179055508160056000858152602001908152602001600020600501819055508060056000858152602001908152602001600020600701819055506112f26005600085815260200190815260200160002060030160009054906101000a900473ffffffffffffffffffffffffffffffffffffffff1630836005600088815260200190815260200160002060405180610120016040529081600082015481526020016001820160009054906101000a900473ffffffffffffffffffffffffffffffffffffffff1673ffffffffffffffffffffffffffffffffffffffff1673ffffffffffffffffffffffffffffffffffffffff168152602001600282015481526020016003820160009054906101000a900473ffffffffffffffffffffffffffffffffffffffff1673ffffffffffffffffffffffffffffffffffffffff1673ffffffffffffffffffffffffffffffffffffffff1681526020016004820160009054906101000a900473ffffffffffffffffffffffffffffffffffffffff1673ffffffffffffffffffffffffffffffffffffffff1673ffffffffffffffffffffffffffffffffffffffff168152602001600582015481526020016006820160009054906101000a900460ff161515151581526020016006820160019054906101000a900460ff1660018111156112cd576112cc6124e2565b5b60018111156112df576112de6124e2565b5b81526020016007820154815250506117e1565b505050565b600063f23a6e6160e01b905095945050505050565b600061131785611972565b90506000831161135c576040517f08c379a000000000000000000000000000000000000000000000000000000000815260040161135390613045565b60405180910390fd5b600073ffffffffffffffffffffffffffffffffffffffff168573ffffffffffffffffffffffffffffffffffffffff16036113cb576040517f08c379a00000000000000000000000000000000000000000000000000000000081526004016113c290613189565b60405180910390fd5b6000841161140e576040517f08c379a0000000000000000000000000000000000000000000000000000000008152600401611405906130b1565b60405180910390fd5b60008211611451576040517f08c379a00000000000000000000000000000000000000000000000000000000081526004016114489061311d565b60405180910390fd5b61145b600361193d565b600061146760036116e6565b90506040518061012001604052808281526020018773ffffffffffffffffffffffffffffffffffffffff1681526020018681526020013373ffffffffffffffffffffffffffffffffffffffff1681526020013373ffffffffffffffffffffffffffffffffffffffff1681526020018581526020016001151581526020018360018111156114f7576114f66124e2565b5b815260200184815250600560008381526020019081526020016000206000820151816000015560208201518160010160006101000a81548173ffffffffffffffffffffffffffffffffffffffff021916908373ffffffffffffffffffffffffffffffffffffffff1602179055506040820151816002015560608201518160030160006101000a81548173ffffffffffffffffffffffffffffffffffffffff021916908373ffffffffffffffffffffffffffffffffffffffff16021790555060808201518160040160006101000a81548173ffffffffffffffffffffffffffffffffffffffff021916908373ffffffffffffffffffffffffffffffffffffffff16021790555060a0820151816005015560c08201518160060160006101000a81548160ff02191690831515021790555060e08201518160060160016101000a81548160ff02191690836001811115611651576116506124e2565b5b02179055506101008201518160070155905050505050505050565b60007f5a05180f000000000000000000000000000000000000000000000000000000007bffffffffffffffffffffffffffffffffffffffffffffffffffffffff1916827bffffffffffffffffffffffffffffffffffffffffffffffffffffffff191614806116df57506116de82611b05565b5b9050919050565b600081600001549050919050565b6117058161170061173c565b611b7f565b50565b6117128282611c04565b6117378160026000858152602001908152602001600020611ce490919063ffffffff16565b505050565b600033905090565b61174e8282611d14565b6117738160026000858152602001908152602001600020611df690919063ffffffff16565b505050565b60006117878360000183611e26565b60001c905092915050565b6002600054036117d7576040517f08c379a00000000000000000000000000000000000000000000000000000000081526004016117ce906131f5565b60405180910390fd5b6002600081905550565b600060018111156117f5576117f46124e2565b5b8160e00151600181111561180c5761180b6124e2565b5b0361188f57806020015173ffffffffffffffffffffffffffffffffffffffff1663f242432a85858460400151866040518563ffffffff1660e01b8152600401611858949392919061324c565b600060405180830381600087803b15801561187257600080fd5b505af1158015611886573d6000803e3d6000fd5b50505050611937565b6001808111156118a2576118a16124e2565b5b8160e0015160018111156118b9576118b86124e2565b5b0361193657806020015173ffffffffffffffffffffffffffffffffffffffff166342842e0e858584604001516040518463ffffffff1660e01b8152600401611903939291906132a4565b600060405180830381600087803b15801561191d57600080fd5b505af1158015611931573d6000803e3d6000fd5b505050505b5b50505050565b6001816000016000828254019250508190555050565b6001600081905550565b600061196b82600001611e51565b9050919050565b60008173ffffffffffffffffffffffffffffffffffffffff166301ffc9a77fd9b67a26000000000000000000000000000000000000000000000000000000006040518263ffffffff1660e01b81526004016119cd919061280a565b602060405180830381865afa1580156119ea573d6000803e3d6000fd5b505050506040513d601f19601f82011682018060405250810190611a0e9190613307565b15611a1c5760009050611b00565b8173ffffffffffffffffffffffffffffffffffffffff166301ffc9a77f80ac58cd000000000000000000000000000000000000000000000000000000006040518263ffffffff1660e01b8152600401611a75919061280a565b602060405180830381865afa158015611a92573d6000803e3d6000fd5b505050506040513d601f19601f82011682018060405250810190611ab69190613307565b15611ac45760019050611aff565b6040517f08c379a0000000000000000000000000000000000000000000000000000000008152600401611af690613380565b60405180910390fd5b5b919050565b60007f7965db0b000000000000000000000000000000000000000000000000000000007bffffffffffffffffffffffffffffffffffffffffffffffffffffffff1916827bffffffffffffffffffffffffffffffffffffffffffffffffffffffff19161480611b785750611b7782611e62565b5b9050919050565b611b898282610ba1565b611c0057611b9681611ecc565b611ba48360001c6020611ef9565b604051602001611bb59291906134a9565b6040516020818303038152906040526040517f08c379a0000000000000000000000000000000000000000000000000000000008152600401611bf7919061351c565b60405180910390fd5b5050565b611c0e8282610ba1565b611ce057600180600084815260200190815260200160002060000160008373ffffffffffffffffffffffffffffffffffffffff1673ffffffffffffffffffffffffffffffffffffffff16815260200190815260200160002060006101000a81548160ff021916908315150217905550611c8561173c565b73ffffffffffffffffffffffffffffffffffffffff168173ffffffffffffffffffffffffffffffffffffffff16837f2f8788117e7eff1d82e926ec794901d17c78024a50270940304540a733656f0d60405160405180910390a45b5050565b6000611d0c836000018373ffffffffffffffffffffffffffffffffffffffff1660001b612135565b905092915050565b611d1e8282610ba1565b15611df25760006001600084815260200190815260200160002060000160008373ffffffffffffffffffffffffffffffffffffffff1673ffffffffffffffffffffffffffffffffffffffff16815260200190815260200160002060006101000a81548160ff021916908315150217905550611d9761173c565b73ffffffffffffffffffffffffffffffffffffffff168173ffffffffffffffffffffffffffffffffffffffff16837ff6391f5c32d9c69d2a47ea670b442974b53935d1edc7fd64eb21e047a839171b60405160405180910390a45b5050565b6000611e1e836000018373ffffffffffffffffffffffffffffffffffffffff1660001b6121a5565b905092915050565b6000826000018281548110611e3e57611e3d612e4d565b5b9060005260206000200154905092915050565b600081600001805490509050919050565b60007f01ffc9a7000000000000000000000000000000000000000000000000000000007bffffffffffffffffffffffffffffffffffffffffffffffffffffffff1916827bffffffffffffffffffffffffffffffffffffffffffffffffffffffff1916149050919050565b6060611ef28273ffffffffffffffffffffffffffffffffffffffff16601460ff16611ef9565b9050919050565b606060006002836002611f0c919061353e565b611f169190613580565b67ffffffffffffffff811115611f2f57611f2e6129ad565b5b6040519080825280601f01601f191660200182016040528015611f615781602001600182028036833780820191505090505b5090507f300000000000000000000000000000000000000000000000000000000000000081600081518110611f9957611f98612e4d565b5b60200101907effffffffffffffffffffffffffffffffffffffffffffffffffffffffffffff1916908160001a9053507f780000000000000000000000000000000000000000000000000000000000000081600181518110611ffd57611ffc612e4d565b5b60200101907effffffffffffffffffffffffffffffffffffffffffffffffffffffffffffff1916908160001a9053506000600184600261203d919061353e565b6120479190613580565b90505b60018111156120e7577f3031323334353637383961626364656600000000000000000000000000000000600f86166010811061208957612088612e4d565b5b1a60f81b8282815181106120a05761209f612e4d565b5b60200101907effffffffffffffffffffffffffffffffffffffffffffffffffffffffffffff1916908160001a905350600485901c9450806120e0906135b4565b905061204a565b506000841461212b576040517f08c379a000000000000000000000000000000000000000000000000000000000815260040161212290613629565b60405180910390fd5b8091505092915050565b600061214183836122b9565b61219a57826000018290806001815401808255809150506001900390600052602060002001600090919091909150558260000180549050836001016000848152602001908152602001600020819055506001905061219f565b600090505b92915050565b600080836001016000848152602001908152602001600020549050600081146122ad5760006001826121d79190612e19565b90506000600186600001805490506121ef9190612e19565b905081811461225e5760008660000182815481106122105761220f612e4d565b5b906000526020600020015490508087600001848154811061223457612233612e4d565b5b90600052602060002001819055508387600101600083815260200190815260200160002081905550505b8560000180548061227257612271613649565b5b6001900381819060005260206000200160009055905585600101600086815260200190815260200160002060009055600193505050506122b3565b60009150505b92915050565b600080836001016000848152602001908152602001600020541415905092915050565b60405180610120016040528060008152602001600073ffffffffffffffffffffffffffffffffffffffff16815260200160008152602001600073ffffffffffffffffffffffffffffffffffffffff168152602001600073ffffffffffffffffffffffffffffffffffffffff1681526020016000815260200160001515815260200160006001811115612371576123706124e2565b5b8152602001600081525090565b6000604051905090565b600080fd5b600080fd5b60007fffffffff0000000000000000000000000000000000000000000000000000000082169050919050565b6123c781612392565b81146123d257600080fd5b50565b6000813590506123e4816123be565b92915050565b600060208284031215612400576123ff612388565b5b600061240e848285016123d5565b91505092915050565b60008115159050919050565b61242c81612417565b82525050565b60006020820190506124476000830184612423565b92915050565b600081519050919050565b600082825260208201905092915050565b6000819050602082019050919050565b6000819050919050565b61248c81612479565b82525050565b600073ffffffffffffffffffffffffffffffffffffffff82169050919050565b60006124bd82612492565b9050919050565b6124cd816124b2565b82525050565b6124dc81612417565b82525050565b7f4e487b7100000000000000000000000000000000000000000000000000000000600052602160045260246000fd5b60028110612522576125216124e2565b5b50565b600081905061253382612511565b919050565b600061254382612525565b9050919050565b61255381612538565b82525050565b610120820160008201516125706000850182612483565b50602082015161258360208501826124c4565b5060408201516125966040850182612483565b5060608201516125a960608501826124c4565b5060808201516125bc60808501826124c4565b5060a08201516125cf60a0850182612483565b5060c08201516125e260c08501826124d3565b5060e08201516125f560e085018261254a565b5061010082015161260a610100850182612483565b50505050565b600061261c8383612559565b6101208301905092915050565b6000602082019050919050565b60006126418261244d565b61264b8185612458565b935061265683612469565b8060005b8381101561268757815161266e8882612610565b975061267983612629565b92505060018101905061265a565b5085935050505092915050565b600060208201905081810360008301526126ae8184612636565b905092915050565b6126bf816124b2565b81146126ca57600080fd5b50565b6000813590506126dc816126b6565b92915050565b6126eb81612479565b81146126f657600080fd5b50565b600081359050612708816126e2565b92915050565b600080fd5b600080fd5b600080fd5b60008083601f8401126127335761273261270e565b5b8235905067ffffffffffffffff8111156127505761274f612713565b5b60208301915083600182028301111561276c5761276b612718565b5b9250929050565b60008060008060006080868803121561278f5761278e612388565b5b600061279d888289016126cd565b95505060206127ae888289016126cd565b94505060406127bf888289016126f9565b935050606086013567ffffffffffffffff8111156127e0576127df61238d565b5b6127ec8882890161271d565b92509250509295509295909350565b61280481612392565b82525050565b600060208201905061281f60008301846127fb565b92915050565b6000819050919050565b61283881612825565b811461284357600080fd5b50565b6000813590506128558161282f565b92915050565b60006020828403121561287157612870612388565b5b600061287f84828501612846565b91505092915050565b61289181612825565b82525050565b60006020820190506128ac6000830184612888565b92915050565b600080604083850312156128c9576128c8612388565b5b60006128d785828601612846565b92505060206128e8858286016126cd565b9150509250929050565b6000806040838503121561290957612908612388565b5b600061291785828601612846565b9250506020612928858286016126f9565b9150509250929050565b61293b816124b2565b82525050565b60006020820190506129566000830184612932565b92915050565b6000806040838503121561297357612972612388565b5b6000612981858286016126f9565b9250506020612992858286016126f9565b9150509250929050565b6000601f19601f8301169050919050565b7f4e487b7100000000000000000000000000000000000000000000000000000000600052604160045260246000fd5b6129e58261299c565b810181811067ffffffffffffffff82111715612a0457612a036129ad565b5b80604052505050565b6000612a1761237e565b9050612a2382826129dc565b919050565b600067ffffffffffffffff821115612a4357612a426129ad565b5b602082029050602081019050919050565b6000612a67612a6284612a28565b612a0d565b90508083825260208201905060208402830185811115612a8a57612a89612718565b5b835b81811015612ab35780612a9f88826126f9565b845260208401935050602081019050612a8c565b5050509392505050565b600082601f830112612ad257612ad161270e565b5b8135612ae2848260208601612a54565b91505092915050565b600080fd5b600067ffffffffffffffff821115612b0b57612b0a6129ad565b5b612b148261299c565b9050602081019050919050565b82818337600083830152505050565b6000612b43612b3e84612af0565b612a0d565b905082815260208101848484011115612b5f57612b5e612aeb565b5b612b6a848285612b21565b509392505050565b600082601f830112612b8757612b8661270e565b5b8135612b97848260208601612b30565b91505092915050565b600080600080600060a08688031215612bbc57612bbb612388565b5b6000612bca888289016126cd565b9550506020612bdb888289016126cd565b945050604086013567ffffffffffffffff811115612bfc57612bfb61238d565b5b612c0888828901612abd565b935050606086013567ffffffffffffffff811115612c2957612c2861238d565b5b612c3588828901612abd565b925050608086013567ffffffffffffffff811115612c5657612c5561238d565b5b612c6288828901612b72565b9150509295509295909350565b612c7881612479565b82525050565b6000602082019050612c936000830184612c6f565b92915050565b600080600060608486031215612cb257612cb1612388565b5b6000612cc0868287016126f9565b9350506020612cd1868287016126f9565b9250506040612ce2868287016126f9565b9150509250925092565b600080600080600060a08688031215612d0857612d07612388565b5b6000612d16888289016126cd565b9550506020612d27888289016126cd565b9450506040612d38888289016126f9565b9350506060612d49888289016126f9565b925050608086013567ffffffffffffffff811115612d6a57612d6961238d565b5b612d7688828901612b72565b9150509295509295909350565b60008060008060808587031215612d9d57612d9c612388565b5b6000612dab878288016126cd565b9450506020612dbc878288016126f9565b9350506040612dcd878288016126f9565b9250506060612dde878288016126f9565b91505092959194509250565b7f4e487b7100000000000000000000000000000000000000000000000000000000600052601160045260246000fd5b6000612e2482612479565b9150612e2f83612479565b9250828203905081811115612e4757612e46612dea565b5b92915050565b7f4e487b7100000000000000000000000000000000000000000000000000000000600052603260045260246000fd5b6000612e8782612479565b91507fffffffffffffffffffffffffffffffffffffffffffffffffffffffffffffffff8203612eb957612eb8612dea565b5b600182019050919050565b600082825260208201905092915050565b7f416363657373436f6e74726f6c3a2063616e206f6e6c792072656e6f756e636560008201527f20726f6c657320666f722073656c660000000000000000000000000000000000602082015250565b6000612f31602f83612ec4565b9150612f3c82612ed5565b604082019050919050565b60006020820190508181036000830152612f6081612f24565b9050919050565b7f4572726f7220696e20636f6e74726163743a20496e636f72726563742070726960008201527f6365000000000000000000000000000000000000000000000000000000000000602082015250565b6000612fc3602283612ec4565b9150612fce82612f67565b604082019050919050565b60006020820190508181036000830152612ff281612fb6565b9050919050565b7f5072696365206d7573742062652067726561746572207468616e203000000000600082015250565b600061302f601c83612ec4565b915061303a82612ff9565b602082019050919050565b6000602082019050818103600083015261305e81613022565b9050919050565b7f496e76616c696420746f6b656e20494400000000000000000000000000000000600082015250565b600061309b601083612ec4565b91506130a682613065565b602082019050919050565b600060208201905081810360008301526130ca8161308e565b9050919050565b7f416d6f756e74206d7573742062652067726561746572207468616e2030000000600082015250565b6000613107601d83612ec4565b9150613112826130d1565b602082019050919050565b60006020820190508181036000830152613136816130fa565b9050919050565b7f496e76616c6964204e465420636f6e7472616374206164647265737300000000600082015250565b6000613173601c83612ec4565b915061317e8261313d565b602082019050919050565b600060208201905081810360008301526131a281613166565b9050919050565b7f5265656e7472616e637947756172643a207265656e7472616e742063616c6c00600082015250565b60006131df601f83612ec4565b91506131ea826131a9565b602082019050919050565b6000602082019050818103600083015261320e816131d2565b9050919050565b600082825260208201905092915050565b50565b6000613236600083613215565b915061324182613226565b600082019050919050565b600060a0820190506132616000830187612932565b61326e6020830186612932565b61327b6040830185612c6f565b6132886060830184612c6f565b818103608083015261329981613229565b905095945050505050565b60006060820190506132b96000830186612932565b6132c66020830185612932565b6132d36040830184612c6f565b949350505050565b6132e481612417565b81146132ef57600080fd5b50565b600081519050613301816132db565b92915050565b60006020828403121561331d5761331c612388565b5b600061332b848285016132f2565b91505092915050565b7f746f6b656e206d7573742062652045524331313535206f72204552433732312e600082015250565b600061336a602083612ec4565b915061337582613334565b602082019050919050565b600060208201905081810360008301526133998161335d565b9050919050565b600081905092915050565b7f416363657373436f6e74726f6c3a206163636f756e7420000000000000000000600082015250565b60006133e16017836133a0565b91506133ec826133ab565b601782019050919050565b600081519050919050565b60005b83811015613420578082015181840152602081019050613405565b60008484015250505050565b6000613437826133f7565b61344181856133a0565b9350613451818560208601613402565b80840191505092915050565b7f206973206d697373696e6720726f6c6520000000000000000000000000000000600082015250565b60006134936011836133a0565b915061349e8261345d565b601182019050919050565b60006134b4826133d4565b91506134c0828561342c565b91506134cb82613486565b91506134d7828461342c565b91508190509392505050565b60006134ee826133f7565b6134f88185612ec4565b9350613508818560208601613402565b6135118161299c565b840191505092915050565b6000602082019050818103600083015261353681846134e3565b905092915050565b600061354982612479565b915061355483612479565b925082820261356281612479565b9150828204841483151761357957613578612dea565b5b5092915050565b600061358b82612479565b915061359683612479565b92508282019050808211156135ae576135ad612dea565b5b92915050565b60006135bf82612479565b9150600082036135d2576135d1612dea565b5b600182039050919050565b7f537472696e67733a20686578206c656e67746820696e73756666696369656e74600082015250565b6000613613602083612ec4565b915061361e826135dd565b602082019050919050565b6000602082019050818103600083015261364281613606565b9050919050565b7f4e487b7100000000000000000000000000000000000000000000000000000000600052603160045260246000fdfea26469706673582212207621067cba794a802442ead01b39594eb884115ee21e9057c2f70147a3aa352064736f6c63430008130033",
  "linkReferences": {},
  "deployedLinkReferences": {}
}