{
  "_format": "hh-sol-artifact-1",
  "contractName": "NFTMarket",
  "sourceName": "contracts/NFTMarket.sol",
  "abi": [
    {
      "anonymous": false,
      "inputs": [
        {
          "indexed": true,
          "internalType": "bytes32",
          "name": "role",
          "type": "bytes32"
        },
        {
          "indexed": true,
          "internalType": "bytes32",
          "name": "previousAdminRole",
          "type": "bytes32"
        },
        {
          "indexed": true,
          "internalType": "bytes32",
          "name": "newAdminRole",
          "type": "bytes32"
        }
      ],
      "name": "RoleAdminChanged",
      "type": "event"
    },
    {
      "anonymous": false,
      "inputs": [
        {
          "indexed": true,
          "internalType": "bytes32",
          "name": "role",
          "type": "bytes32"
        },
        {
          "indexed": true,
          "internalType": "address",
          "name": "account",
          "type": "address"
        },
        {
          "indexed": true,
          "internalType": "address",
          "name": "sender",
          "type": "address"
        }
      ],
      "name": "RoleGranted",
      "type": "event"
    },
    {
      "anonymous": false,
      "inputs": [
        {
          "indexed": true,
          "internalType": "bytes32",
          "name": "role",
          "type": "bytes32"
        },
        {
          "indexed": true,
          "internalType": "address",
          "name": "account",
          "type": "address"
        },
        {
          "indexed": true,
          "internalType": "address",
          "name": "sender",
          "type": "address"
        }
      ],
      "name": "RoleRevoked",
      "type": "event"
    },
    {
      "inputs": [],
      "name": "DEFAULT_ADMIN_ROLE",
      "outputs": [
        {
          "internalType": "bytes32",
          "name": "",
          "type": "bytes32"
        }
      ],
      "stateMutability": "view",
      "type": "function"
    },
    {
      "inputs": [
        {
          "internalType": "uint256",
          "name": "itemId",
          "type": "uint256"
        },
        {
          "internalType": "uint256",
          "name": "amount",
          "type": "uint256"
        }
      ],
      "name": "buyItem",
      "outputs": [],
      "stateMutability": "payable",
      "type": "function"
    },
    {
      "inputs": [
        {
          "internalType": "address",
          "name": "nftContract",
          "type": "address"
        },
        {
          "internalType": "uint256",
          "name": "tokenId",
          "type": "uint256"
        },
        {
          "internalType": "uint256",
          "name": "price",
          "type": "uint256"
        },
        {
          "internalType": "uint256",
          "name": "amount",
          "type": "uint256"
        }
      ],
      "name": "createItem",
      "outputs": [],
      "stateMutability": "nonpayable",
      "type": "function"
    },
    {
      "inputs": [],
      "name": "fetchMarketItems",
      "outputs": [
        {
          "components": [
            {
              "internalType": "uint256",
              "name": "itemId",
              "type": "uint256"
            },
            {
              "internalType": "address",
              "name": "assetContract",
              "type": "address"
            },
            {
              "internalType": "uint256",
              "name": "tokenId",
              "type": "uint256"
            },
            {
              "internalType": "address",
              "name": "seller",
              "type": "address"
            },
            {
              "internalType": "address",
              "name": "owner",
              "type": "address"
            },
            {
              "internalType": "uint256",
              "name": "price",
              "type": "uint256"
            },
            {
              "internalType": "bool",
              "name": "sold",
              "type": "bool"
            },
            {
              "internalType": "enum NFTMarket.TokenType",
              "name": "tokenType",
              "type": "uint8"
            },
            {
              "internalType": "uint256",
              "name": "amount",
              "type": "uint256"
            }
          ],
          "internalType": "struct NFTMarket.MarketItem[]",
          "name": "",
          "type": "tuple[]"
        }
      ],
      "stateMutability": "view",
      "type": "function"
    },
    {
      "inputs": [],
      "name": "fetchMyItems",
      "outputs": [
        {
          "components": [
            {
              "internalType": "uint256",
              "name": "itemId",
              "type": "uint256"
            },
            {
              "internalType": "address",
              "name": "assetContract",
              "type": "address"
            },
            {
              "internalType": "uint256",
              "name": "tokenId",
              "type": "uint256"
            },
            {
              "internalType": "address",
              "name": "seller",
              "type": "address"
            },
            {
              "internalType": "address",
              "name": "owner",
              "type": "address"
            },
            {
              "internalType": "uint256",
              "name": "price",
              "type": "uint256"
            },
            {
              "internalType": "bool",
              "name": "sold",
              "type": "bool"
            },
            {
              "internalType": "enum NFTMarket.TokenType",
              "name": "tokenType",
              "type": "uint8"
            },
            {
              "internalType": "uint256",
              "name": "amount",
              "type": "uint256"
            }
          ],
          "internalType": "struct NFTMarket.MarketItem[]",
          "name": "",
          "type": "tuple[]"
        }
      ],
      "stateMutability": "view",
      "type": "function"
    },
    {
      "inputs": [
        {
          "internalType": "bytes32",
          "name": "role",
          "type": "bytes32"
        }
      ],
      "name": "getRoleAdmin",
      "outputs": [
        {
          "internalType": "bytes32",
          "name": "",
          "type": "bytes32"
        }
      ],
      "stateMutability": "view",
      "type": "function"
    },
    {
      "inputs": [
        {
          "internalType": "bytes32",
          "name": "role",
          "type": "bytes32"
        },
        {
          "internalType": "uint256",
          "name": "index",
          "type": "uint256"
        }
      ],
      "name": "getRoleMember",
      "outputs": [
        {
          "internalType": "address",
          "name": "",
          "type": "address"
        }
      ],
      "stateMutability": "view",
      "type": "function"
    },
    {
      "inputs": [
        {
          "internalType": "bytes32",
          "name": "role",
          "type": "bytes32"
        }
      ],
      "name": "getRoleMemberCount",
      "outputs": [
        {
          "internalType": "uint256",
          "name": "",
          "type": "uint256"
        }
      ],
      "stateMutability": "view",
      "type": "function"
    },
    {
      "inputs": [
        {
          "internalType": "bytes32",
          "name": "role",
          "type": "bytes32"
        },
        {
          "internalType": "address",
          "name": "account",
          "type": "address"
        }
      ],
      "name": "grantRole",
      "outputs": [],
      "stateMutability": "nonpayable",
      "type": "function"
    },
    {
      "inputs": [
        {
          "internalType": "bytes32",
          "name": "role",
          "type": "bytes32"
        },
        {
          "internalType": "address",
          "name": "account",
          "type": "address"
        }
      ],
      "name": "hasRole",
      "outputs": [
        {
          "internalType": "bool",
          "name": "",
          "type": "bool"
        }
      ],
      "stateMutability": "view",
      "type": "function"
    },
    {
      "inputs": [
        {
          "internalType": "uint256",
          "name": "itemId",
          "type": "uint256"
        },
        {
          "internalType": "uint256",
          "name": "price",
          "type": "uint256"
        },
        {
          "internalType": "uint256",
          "name": "amount",
          "type": "uint256"
        }
      ],
      "name": "listItem",
      "outputs": [],
      "stateMutability": "nonpayable",
      "type": "function"
    },
    {
      "inputs": [
        {
          "internalType": "address",
          "name": "",
          "type": "address"
        },
        {
          "internalType": "address",
          "name": "",
          "type": "address"
        },
        {
          "internalType": "uint256[]",
          "name": "",
          "type": "uint256[]"
        },
        {
          "internalType": "uint256[]",
          "name": "",
          "type": "uint256[]"
        },
        {
          "internalType": "bytes",
          "name": "",
          "type": "bytes"
        }
      ],
      "name": "onERC1155BatchReceived",
      "outputs": [
        {
          "internalType": "bytes4",
          "name": "",
          "type": "bytes4"
        }
      ],
      "stateMutability": "nonpayable",
      "type": "function"
    },
    {
      "inputs": [
        {
          "internalType": "address",
          "name": "",
          "type": "address"
        },
        {
          "internalType": "address",
          "name": "",
          "type": "address"
        },
        {
          "internalType": "uint256",
          "name": "",
          "type": "uint256"
        },
        {
          "internalType": "uint256",
          "name": "",
          "type": "uint256"
        },
        {
          "internalType": "bytes",
          "name": "",
          "type": "bytes"
        }
      ],
      "name": "onERC1155Received",
      "outputs": [
        {
          "internalType": "bytes4",
          "name": "",
          "type": "bytes4"
        }
      ],
      "stateMutability": "nonpayable",
      "type": "function"
    },
    {
      "inputs": [
        {
          "internalType": "address",
          "name": "",
          "type": "address"
        },
        {
          "internalType": "address",
          "name": "",
          "type": "address"
        },
        {
          "internalType": "uint256",
          "name": "",
          "type": "uint256"
        },
        {
          "internalType": "bytes",
          "name": "",
          "type": "bytes"
        }
      ],
      "name": "onERC721Received",
      "outputs": [
        {
          "internalType": "bytes4",
          "name": "",
          "type": "bytes4"
        }
      ],
      "stateMutability": "pure",
      "type": "function"
    },
    {
      "inputs": [
        {
          "internalType": "bytes32",
          "name": "role",
          "type": "bytes32"
        },
        {
          "internalType": "address",
          "name": "account",
          "type": "address"
        }
      ],
      "name": "renounceRole",
      "outputs": [],
      "stateMutability": "nonpayable",
      "type": "function"
    },
    {
      "inputs": [
        {
          "internalType": "bytes32",
          "name": "role",
          "type": "bytes32"
        },
        {
          "internalType": "address",
          "name": "account",
          "type": "address"
        }
      ],
      "name": "revokeRole",
      "outputs": [],
      "stateMutability": "nonpayable",
      "type": "function"
    },
    {
      "inputs": [
        {
          "internalType": "bytes4",
          "name": "interfaceId",
          "type": "bytes4"
        }
      ],
      "name": "supportsInterface",
      "outputs": [
        {
          "internalType": "bool",
          "name": "",
          "type": "bool"
        }
      ],
      "stateMutability": "view",
      "type": "function"
    }
  ],
  "bytecode": "0x608060405234801561001057600080fd5b506001600081905550613504806100286000396000f3fe6080604052600436106100fe5760003560e01c806391d1485411610095578063ca15c87311610064578063ca15c87314610360578063d547741f1461039d578063ec16b94a146103c6578063f23a6e61146103ef578063f6176e641461042c576100fe565b806391d148541461029f5780639979c009146102dc578063a217fddf146102f8578063bc197c8114610323576100fe565b8063248a9ca3116100d1578063248a9ca3146101d35780632f2ff15d1461021057806336568abe146102395780639010d07c14610262576100fe565b806301ffc9a7146101035780630f08efe014610140578063150b7a021461016b57806315c9ae10146101a8575b600080fd5b34801561010f57600080fd5b5061012a60048036038101906101259190612240565b610455565b6040516101379190612288565b60405180910390f35b34801561014c57600080fd5b50610155610537565b60405161016291906124ea565b60405180910390f35b34801561017757600080fd5b50610192600480360381019061018d91906125c9565b6107d9565b60405161019f9190612660565b60405180910390f35b3480156101b457600080fd5b506101bd6107ee565b6040516101ca91906124ea565b60405180910390f35b3480156101df57600080fd5b506101fa60048036038101906101f591906126b1565b610aae565b60405161020791906126ed565b60405180910390f35b34801561021c57600080fd5b5061023760048036038101906102329190612708565b610ace565b005b34801561024557600080fd5b50610260600480360381019061025b9190612708565b610aef565b005b34801561026e57600080fd5b5061028960048036038101906102849190612748565b610b72565b6040516102969190612797565b60405180910390f35b3480156102ab57600080fd5b506102c660048036038101906102c19190612708565b610ba1565b6040516102d39190612288565b60405180910390f35b6102f660048036038101906102f191906127b2565b610c0c565b005b34801561030457600080fd5b5061030d610f64565b60405161031a91906126ed565b60405180910390f35b34801561032f57600080fd5b5061034a600480360381019061034591906129f6565b610f6b565b6040516103579190612660565b60405180910390f35b34801561036c57600080fd5b50610387600480360381019061038291906126b1565b610f80565b6040516103949190612ad4565b60405180910390f35b3480156103a957600080fd5b506103c460048036038101906103bf9190612708565b610fa4565b005b3480156103d257600080fd5b506103ed60048036038101906103e89190612aef565b610fc5565b005b3480156103fb57600080fd5b5061041660048036038101906104119190612b42565b61114d565b6040516104239190612660565b60405180910390f35b34801561043857600080fd5b50610453600480360381019061044e9190612bd9565b611162565b005b60007f4e2312e0000000000000000000000000000000000000000000000000000000007bffffffffffffffffffffffffffffffffffffffffffffffffffffffff1916827bffffffffffffffffffffffffffffffffffffffffffffffffffffffff1916148061052057507f150b7a02000000000000000000000000000000000000000000000000000000007bffffffffffffffffffffffffffffffffffffffffffffffffffffffff1916827bffffffffffffffffffffffffffffffffffffffffffffffffffffffff1916145b80610530575061052f826114c2565b5b9050919050565b60606000610545600361153c565b90506000610553600461153c565b8261055e9190612c6f565b905060008167ffffffffffffffff81111561057c5761057b612803565b5b6040519080825280602002602001820160405280156105b557816020015b6105a2612132565b81526020019060019003908161059a5790505b509050600080600190505b8481116107ce576005600082815260200190815260200160002060060160009054906101000a900460ff166107bb576005600082815260200190815260200160002060405180610120016040529081600082015481526020016001820160009054906101000a900473ffffffffffffffffffffffffffffffffffffffff1673ffffffffffffffffffffffffffffffffffffffff1673ffffffffffffffffffffffffffffffffffffffff168152602001600282015481526020016003820160009054906101000a900473ffffffffffffffffffffffffffffffffffffffff1673ffffffffffffffffffffffffffffffffffffffff1673ffffffffffffffffffffffffffffffffffffffff1681526020016004820160009054906101000a900473ffffffffffffffffffffffffffffffffffffffff1673ffffffffffffffffffffffffffffffffffffffff1673ffffffffffffffffffffffffffffffffffffffff168152602001600582015481526020016006820160009054906101000a900460ff161515151581526020016006820160019054906101000a900460ff16600181111561076e5761076d612338565b5b60018111156107805761077f612338565b5b81526020016007820154815250508383815181106107a1576107a0612ca3565b5b602002602001018190525081806107b790612cd2565b9250505b80806107c690612cd2565b9150506105c0565b508194505050505090565b600063150b7a0260e01b905095945050505050565b606060006107fc600361153c565b905060008167ffffffffffffffff81111561081a57610819612803565b5b60405190808252806020026020018201604052801561085357816020015b610840612132565b8152602001906001900390816108385790505b509050600080600190505b838111610aa15760006005600083815260200190815260200160002090503373ffffffffffffffffffffffffffffffffffffffff168160040160009054906101000a900473ffffffffffffffffffffffffffffffffffffffff1673ffffffffffffffffffffffffffffffffffffffff1603610a8d578060405180610120016040529081600082015481526020016001820160009054906101000a900473ffffffffffffffffffffffffffffffffffffffff1673ffffffffffffffffffffffffffffffffffffffff1673ffffffffffffffffffffffffffffffffffffffff168152602001600282015481526020016003820160009054906101000a900473ffffffffffffffffffffffffffffffffffffffff1673ffffffffffffffffffffffffffffffffffffffff1673ffffffffffffffffffffffffffffffffffffffff1681526020016004820160009054906101000a900473ffffffffffffffffffffffffffffffffffffffff1673ffffffffffffffffffffffffffffffffffffffff1673ffffffffffffffffffffffffffffffffffffffff168152602001600582015481526020016006820160009054906101000a900460ff161515151581526020016006820160019054906101000a900460ff166001811115610a4057610a3f612338565b5b6001811115610a5257610a51612338565b5b8152602001600782015481525050848481518110610a7357610a72612ca3565b5b60200260200101819052508280610a8990612cd2565b9350505b508080610a9990612cd2565b91505061085e565b5080825281935050505090565b600060016000838152602001908152602001600020600101549050919050565b610ad782610aae565b610ae08161154a565b610aea838361155e565b505050565b610af7611592565b73ffffffffffffffffffffffffffffffffffffffff168173ffffffffffffffffffffffffffffffffffffffff1614610b64576040517f08c379a0000000000000000000000000000000000000000000000000000000008152600401610b5b90612d9d565b60405180910390fd5b610b6e828261159a565b5050565b6000610b9982600260008681526020019081526020016000206115ce90919063ffffffff16565b905092915050565b60006001600084815260200190815260200160002060000160008373ffffffffffffffffffffffffffffffffffffffff1673ffffffffffffffffffffffffffffffffffffffff16815260200190815260200160002060009054906101000a900460ff16905092915050565b610c146115e8565b6005600083815260200190815260200160002060050154341015610c6d576040517f08c379a0000000000000000000000000000000000000000000000000000000008152600401610c6490612e2f565b60405180910390fd5b6005600083815260200190815260200160002060030160009054906101000a900473ffffffffffffffffffffffffffffffffffffffff1673ffffffffffffffffffffffffffffffffffffffff166108fc349081150290604051600060405180830381858888f19350505050158015610ce9573d6000803e3d6000fd5b50610eca6005600084815260200190815260200160002060030160009054906101000a900473ffffffffffffffffffffffffffffffffffffffff1633836005600087815260200190815260200160002060405180610120016040529081600082015481526020016001820160009054906101000a900473ffffffffffffffffffffffffffffffffffffffff1673ffffffffffffffffffffffffffffffffffffffff1673ffffffffffffffffffffffffffffffffffffffff168152602001600282015481526020016003820160009054906101000a900473ffffffffffffffffffffffffffffffffffffffff1673ffffffffffffffffffffffffffffffffffffffff1673ffffffffffffffffffffffffffffffffffffffff1681526020016004820160009054906101000a900473ffffffffffffffffffffffffffffffffffffffff1673ffffffffffffffffffffffffffffffffffffffff1673ffffffffffffffffffffffffffffffffffffffff168152602001600582015481526020016006820160009054906101000a900460ff161515151581526020016006820160019054906101000a900460ff166001811115610ea557610ea4612338565b5b6001811115610eb757610eb6612338565b5b8152602001600782015481525050611637565b336005600084815260200190815260200160002060040160006101000a81548173ffffffffffffffffffffffffffffffffffffffff021916908373ffffffffffffffffffffffffffffffffffffffff16021790555060016005600084815260200190815260200160002060060160006101000a81548160ff021916908315150217905550610f586004611793565b610f606117a9565b5050565b6000801b81565b600063bc197c8160e01b905095945050505050565b6000610f9d600260008481526020019081526020016000206117b3565b9050919050565b610fad82610aae565b610fb68161154a565b610fc0838361159a565b505050565b60008211611008576040517f08c379a0000000000000000000000000000000000000000000000000000000008152600401610fff90612e9b565b60405180910390fd5b6000831161104b576040517f08c379a000000000000000000000000000000000000000000000000000000000815260040161104290612f07565b60405180910390fd5b6000811161108e576040517f08c379a000000000000000000000000000000000000000000000000000000000815260040161108590612f73565b60405180910390fd5b60006005600085815260200190815260200160002060060160006101000a81548160ff021916908315150217905550336005600085815260200190815260200160002060030160006101000a81548173ffffffffffffffffffffffffffffffffffffffff021916908373ffffffffffffffffffffffffffffffffffffffff160217905550816005600085815260200190815260200160002060050181905550806005600085815260200190815260200160002060070181905550505050565b600063f23a6e6160e01b905095945050505050565b600061116d856117c8565b9050600083116111b2576040517f08c379a00000000000000000000000000000000000000000000000000000000081526004016111a990612e9b565b60405180910390fd5b600073ffffffffffffffffffffffffffffffffffffffff168573ffffffffffffffffffffffffffffffffffffffff1603611221576040517f08c379a000000000000000000000000000000000000000000000000000000000815260040161121890612fdf565b60405180910390fd5b60008411611264576040517f08c379a000000000000000000000000000000000000000000000000000000000815260040161125b90612f07565b60405180910390fd5b600082116112a7576040517f08c379a000000000000000000000000000000000000000000000000000000000815260040161129e90612f73565b60405180910390fd5b6112b16003611793565b60006112bd600361153c565b90506040518061012001604052808281526020018773ffffffffffffffffffffffffffffffffffffffff1681526020018681526020013373ffffffffffffffffffffffffffffffffffffffff1681526020013373ffffffffffffffffffffffffffffffffffffffff16815260200185815260200160011515815260200183600181111561134d5761134c612338565b5b815260200184815250600560008381526020019081526020016000206000820151816000015560208201518160010160006101000a81548173ffffffffffffffffffffffffffffffffffffffff021916908373ffffffffffffffffffffffffffffffffffffffff1602179055506040820151816002015560608201518160030160006101000a81548173ffffffffffffffffffffffffffffffffffffffff021916908373ffffffffffffffffffffffffffffffffffffffff16021790555060808201518160040160006101000a81548173ffffffffffffffffffffffffffffffffffffffff021916908373ffffffffffffffffffffffffffffffffffffffff16021790555060a0820151816005015560c08201518160060160006101000a81548160ff02191690831515021790555060e08201518160060160016101000a81548160ff021916908360018111156114a7576114a6612338565b5b02179055506101008201518160070155905050505050505050565b60007f5a05180f000000000000000000000000000000000000000000000000000000007bffffffffffffffffffffffffffffffffffffffffffffffffffffffff1916827bffffffffffffffffffffffffffffffffffffffffffffffffffffffff1916148061153557506115348261195b565b5b9050919050565b600081600001549050919050565b61155b81611556611592565b6119d5565b50565b6115688282611a5a565b61158d8160026000858152602001908152602001600020611b3a90919063ffffffff16565b505050565b600033905090565b6115a48282611b6a565b6115c98160026000858152602001908152602001600020611c4c90919063ffffffff16565b505050565b60006115dd8360000183611c7c565b60001c905092915050565b60026000540361162d576040517f08c379a00000000000000000000000000000000000000000000000000000000081526004016116249061304b565b60405180910390fd5b6002600081905550565b6000600181111561164b5761164a612338565b5b8160e00151600181111561166257611661612338565b5b036116e557806020015173ffffffffffffffffffffffffffffffffffffffff1663f242432a85858460400151866040518563ffffffff1660e01b81526004016116ae94939291906130a2565b600060405180830381600087803b1580156116c857600080fd5b505af11580156116dc573d6000803e3d6000fd5b5050505061178d565b6001808111156116f8576116f7612338565b5b8160e00151600181111561170f5761170e612338565b5b0361178c57806020015173ffffffffffffffffffffffffffffffffffffffff166342842e0e858584604001516040518463ffffffff1660e01b8152600401611759939291906130fa565b600060405180830381600087803b15801561177357600080fd5b505af1158015611787573d6000803e3d6000fd5b505050505b5b50505050565b6001816000016000828254019250508190555050565b6001600081905550565b60006117c182600001611ca7565b9050919050565b60008173ffffffffffffffffffffffffffffffffffffffff166301ffc9a77fd9b67a26000000000000000000000000000000000000000000000000000000006040518263ffffffff1660e01b81526004016118239190612660565b602060405180830381865afa158015611840573d6000803e3d6000fd5b505050506040513d601f19601f82011682018060405250810190611864919061315d565b156118725760009050611956565b8173ffffffffffffffffffffffffffffffffffffffff166301ffc9a77f80ac58cd000000000000000000000000000000000000000000000000000000006040518263ffffffff1660e01b81526004016118cb9190612660565b602060405180830381865afa1580156118e8573d6000803e3d6000fd5b505050506040513d601f19601f8201168201806040525081019061190c919061315d565b1561191a5760019050611955565b6040517f08c379a000000000000000000000000000000000000000000000000000000000815260040161194c906131d6565b60405180910390fd5b5b919050565b60007f7965db0b000000000000000000000000000000000000000000000000000000007bffffffffffffffffffffffffffffffffffffffffffffffffffffffff1916827bffffffffffffffffffffffffffffffffffffffffffffffffffffffff191614806119ce57506119cd82611cb8565b5b9050919050565b6119df8282610ba1565b611a56576119ec81611d22565b6119fa8360001c6020611d4f565b604051602001611a0b9291906132ff565b6040516020818303038152906040526040517f08c379a0000000000000000000000000000000000000000000000000000000008152600401611a4d9190613372565b60405180910390fd5b5050565b611a648282610ba1565b611b3657600180600084815260200190815260200160002060000160008373ffffffffffffffffffffffffffffffffffffffff1673ffffffffffffffffffffffffffffffffffffffff16815260200190815260200160002060006101000a81548160ff021916908315150217905550611adb611592565b73ffffffffffffffffffffffffffffffffffffffff168173ffffffffffffffffffffffffffffffffffffffff16837f2f8788117e7eff1d82e926ec794901d17c78024a50270940304540a733656f0d60405160405180910390a45b5050565b6000611b62836000018373ffffffffffffffffffffffffffffffffffffffff1660001b611f8b565b905092915050565b611b748282610ba1565b15611c485760006001600084815260200190815260200160002060000160008373ffffffffffffffffffffffffffffffffffffffff1673ffffffffffffffffffffffffffffffffffffffff16815260200190815260200160002060006101000a81548160ff021916908315150217905550611bed611592565b73ffffffffffffffffffffffffffffffffffffffff168173ffffffffffffffffffffffffffffffffffffffff16837ff6391f5c32d9c69d2a47ea670b442974b53935d1edc7fd64eb21e047a839171b60405160405180910390a45b5050565b6000611c74836000018373ffffffffffffffffffffffffffffffffffffffff1660001b611ffb565b905092915050565b6000826000018281548110611c9457611c93612ca3565b5b9060005260206000200154905092915050565b600081600001805490509050919050565b60007f01ffc9a7000000000000000000000000000000000000000000000000000000007bffffffffffffffffffffffffffffffffffffffffffffffffffffffff1916827bffffffffffffffffffffffffffffffffffffffffffffffffffffffff1916149050919050565b6060611d488273ffffffffffffffffffffffffffffffffffffffff16601460ff16611d4f565b9050919050565b606060006002836002611d629190613394565b611d6c91906133d6565b67ffffffffffffffff811115611d8557611d84612803565b5b6040519080825280601f01601f191660200182016040528015611db75781602001600182028036833780820191505090505b5090507f300000000000000000000000000000000000000000000000000000000000000081600081518110611def57611dee612ca3565b5b60200101907effffffffffffffffffffffffffffffffffffffffffffffffffffffffffffff1916908160001a9053507f780000000000000000000000000000000000000000000000000000000000000081600181518110611e5357611e52612ca3565b5b60200101907effffffffffffffffffffffffffffffffffffffffffffffffffffffffffffff1916908160001a90535060006001846002611e939190613394565b611e9d91906133d6565b90505b6001811115611f3d577f3031323334353637383961626364656600000000000000000000000000000000600f861660108110611edf57611ede612ca3565b5b1a60f81b828281518110611ef657611ef5612ca3565b5b60200101907effffffffffffffffffffffffffffffffffffffffffffffffffffffffffffff1916908160001a905350600485901c945080611f369061340a565b9050611ea0565b5060008414611f81576040517f08c379a0000000000000000000000000000000000000000000000000000000008152600401611f789061347f565b60405180910390fd5b8091505092915050565b6000611f97838361210f565b611ff0578260000182908060018154018082558091505060019003906000526020600020016000909190919091505582600001805490508360010160008481526020019081526020016000208190555060019050611ff5565b600090505b92915050565b6000808360010160008481526020019081526020016000205490506000811461210357600060018261202d9190612c6f565b90506000600186600001805490506120459190612c6f565b90508181146120b457600086600001828154811061206657612065612ca3565b5b906000526020600020015490508087600001848154811061208a57612089612ca3565b5b90600052602060002001819055508387600101600083815260200190815260200160002081905550505b856000018054806120c8576120c761349f565b5b600190038181906000526020600020016000905590558560010160008681526020019081526020016000206000905560019350505050612109565b60009150505b92915050565b600080836001016000848152602001908152602001600020541415905092915050565b60405180610120016040528060008152602001600073ffffffffffffffffffffffffffffffffffffffff16815260200160008152602001600073ffffffffffffffffffffffffffffffffffffffff168152602001600073ffffffffffffffffffffffffffffffffffffffff16815260200160008152602001600015158152602001600060018111156121c7576121c6612338565b5b8152602001600081525090565b6000604051905090565b600080fd5b600080fd5b60007fffffffff0000000000000000000000000000000000000000000000000000000082169050919050565b61221d816121e8565b811461222857600080fd5b50565b60008135905061223a81612214565b92915050565b600060208284031215612256576122556121de565b5b60006122648482850161222b565b91505092915050565b60008115159050919050565b6122828161226d565b82525050565b600060208201905061229d6000830184612279565b92915050565b600081519050919050565b600082825260208201905092915050565b6000819050602082019050919050565b6000819050919050565b6122e2816122cf565b82525050565b600073ffffffffffffffffffffffffffffffffffffffff82169050919050565b6000612313826122e8565b9050919050565b61232381612308565b82525050565b6123328161226d565b82525050565b7f4e487b7100000000000000000000000000000000000000000000000000000000600052602160045260246000fd5b6002811061237857612377612338565b5b50565b600081905061238982612367565b919050565b60006123998261237b565b9050919050565b6123a98161238e565b82525050565b610120820160008201516123c660008501826122d9565b5060208201516123d9602085018261231a565b5060408201516123ec60408501826122d9565b5060608201516123ff606085018261231a565b506080820151612412608085018261231a565b5060a082015161242560a08501826122d9565b5060c082015161243860c0850182612329565b5060e082015161244b60e08501826123a0565b506101008201516124606101008501826122d9565b50505050565b600061247283836123af565b6101208301905092915050565b6000602082019050919050565b6000612497826122a3565b6124a181856122ae565b93506124ac836122bf565b8060005b838110156124dd5781516124c48882612466565b97506124cf8361247f565b9250506001810190506124b0565b5085935050505092915050565b60006020820190508181036000830152612504818461248c565b905092915050565b61251581612308565b811461252057600080fd5b50565b6000813590506125328161250c565b92915050565b612541816122cf565b811461254c57600080fd5b50565b60008135905061255e81612538565b92915050565b600080fd5b600080fd5b600080fd5b60008083601f84011261258957612588612564565b5b8235905067ffffffffffffffff8111156125a6576125a5612569565b5b6020830191508360018202830111156125c2576125c161256e565b5b9250929050565b6000806000806000608086880312156125e5576125e46121de565b5b60006125f388828901612523565b955050602061260488828901612523565b94505060406126158882890161254f565b935050606086013567ffffffffffffffff811115612636576126356121e3565b5b61264288828901612573565b92509250509295509295909350565b61265a816121e8565b82525050565b60006020820190506126756000830184612651565b92915050565b6000819050919050565b61268e8161267b565b811461269957600080fd5b50565b6000813590506126ab81612685565b92915050565b6000602082840312156126c7576126c66121de565b5b60006126d58482850161269c565b91505092915050565b6126e78161267b565b82525050565b600060208201905061270260008301846126de565b92915050565b6000806040838503121561271f5761271e6121de565b5b600061272d8582860161269c565b925050602061273e85828601612523565b9150509250929050565b6000806040838503121561275f5761275e6121de565b5b600061276d8582860161269c565b925050602061277e8582860161254f565b9150509250929050565b61279181612308565b82525050565b60006020820190506127ac6000830184612788565b92915050565b600080604083850312156127c9576127c86121de565b5b60006127d78582860161254f565b92505060206127e88582860161254f565b9150509250929050565b6000601f19601f8301169050919050565b7f4e487b7100000000000000000000000000000000000000000000000000000000600052604160045260246000fd5b61283b826127f2565b810181811067ffffffffffffffff8211171561285a57612859612803565b5b80604052505050565b600061286d6121d4565b90506128798282612832565b919050565b600067ffffffffffffffff82111561289957612898612803565b5b602082029050602081019050919050565b60006128bd6128b88461287e565b612863565b905080838252602082019050602084028301858111156128e0576128df61256e565b5b835b8181101561290957806128f5888261254f565b8452602084019350506020810190506128e2565b5050509392505050565b600082601f83011261292857612927612564565b5b81356129388482602086016128aa565b91505092915050565b600080fd5b600067ffffffffffffffff82111561296157612960612803565b5b61296a826127f2565b9050602081019050919050565b82818337600083830152505050565b600061299961299484612946565b612863565b9050828152602081018484840111156129b5576129b4612941565b5b6129c0848285612977565b509392505050565b600082601f8301126129dd576129dc612564565b5b81356129ed848260208601612986565b91505092915050565b600080600080600060a08688031215612a1257612a116121de565b5b6000612a2088828901612523565b9550506020612a3188828901612523565b945050604086013567ffffffffffffffff811115612a5257612a516121e3565b5b612a5e88828901612913565b935050606086013567ffffffffffffffff811115612a7f57612a7e6121e3565b5b612a8b88828901612913565b925050608086013567ffffffffffffffff811115612aac57612aab6121e3565b5b612ab8888289016129c8565b9150509295509295909350565b612ace816122cf565b82525050565b6000602082019050612ae96000830184612ac5565b92915050565b600080600060608486031215612b0857612b076121de565b5b6000612b168682870161254f565b9350506020612b278682870161254f565b9250506040612b388682870161254f565b9150509250925092565b600080600080600060a08688031215612b5e57612b5d6121de565b5b6000612b6c88828901612523565b9550506020612b7d88828901612523565b9450506040612b8e8882890161254f565b9350506060612b9f8882890161254f565b925050608086013567ffffffffffffffff811115612bc057612bbf6121e3565b5b612bcc888289016129c8565b9150509295509295909350565b60008060008060808587031215612bf357612bf26121de565b5b6000612c0187828801612523565b9450506020612c128782880161254f565b9350506040612c238782880161254f565b9250506060612c348782880161254f565b91505092959194509250565b7f4e487b7100000000000000000000000000000000000000000000000000000000600052601160045260246000fd5b6000612c7a826122cf565b9150612c85836122cf565b9250828203905081811115612c9d57612c9c612c40565b5b92915050565b7f4e487b7100000000000000000000000000000000000000000000000000000000600052603260045260246000fd5b6000612cdd826122cf565b91507fffffffffffffffffffffffffffffffffffffffffffffffffffffffffffffffff8203612d0f57612d0e612c40565b5b600182019050919050565b600082825260208201905092915050565b7f416363657373436f6e74726f6c3a2063616e206f6e6c792072656e6f756e636560008201527f20726f6c657320666f722073656c660000000000000000000000000000000000602082015250565b6000612d87602f83612d1a565b9150612d9282612d2b565b604082019050919050565b60006020820190508181036000830152612db681612d7a565b9050919050565b7f4572726f7220696e20636f6e74726163743a20496e636f72726563742070726960008201527f6365000000000000000000000000000000000000000000000000000000000000602082015250565b6000612e19602283612d1a565b9150612e2482612dbd565b604082019050919050565b60006020820190508181036000830152612e4881612e0c565b9050919050565b7f5072696365206d7573742062652067726561746572207468616e203000000000600082015250565b6000612e85601c83612d1a565b9150612e9082612e4f565b602082019050919050565b60006020820190508181036000830152612eb481612e78565b9050919050565b7f496e76616c696420746f6b656e20494400000000000000000000000000000000600082015250565b6000612ef1601083612d1a565b9150612efc82612ebb565b602082019050919050565b60006020820190508181036000830152612f2081612ee4565b9050919050565b7f416d6f756e74206d7573742062652067726561746572207468616e2030000000600082015250565b6000612f5d601d83612d1a565b9150612f6882612f27565b602082019050919050565b60006020820190508181036000830152612f8c81612f50565b9050919050565b7f496e76616c6964204e465420636f6e7472616374206164647265737300000000600082015250565b6000612fc9601c83612d1a565b9150612fd482612f93565b602082019050919050565b60006020820190508181036000830152612ff881612fbc565b9050919050565b7f5265656e7472616e637947756172643a207265656e7472616e742063616c6c00600082015250565b6000613035601f83612d1a565b915061304082612fff565b602082019050919050565b6000602082019050818103600083015261306481613028565b9050919050565b600082825260208201905092915050565b50565b600061308c60008361306b565b91506130978261307c565b600082019050919050565b600060a0820190506130b76000830187612788565b6130c46020830186612788565b6130d16040830185612ac5565b6130de6060830184612ac5565b81810360808301526130ef8161307f565b905095945050505050565b600060608201905061310f6000830186612788565b61311c6020830185612788565b6131296040830184612ac5565b949350505050565b61313a8161226d565b811461314557600080fd5b50565b60008151905061315781613131565b92915050565b600060208284031215613173576131726121de565b5b600061318184828501613148565b91505092915050565b7f746f6b656e206d7573742062652045524331313535206f72204552433732312e600082015250565b60006131c0602083612d1a565b91506131cb8261318a565b602082019050919050565b600060208201905081810360008301526131ef816131b3565b9050919050565b600081905092915050565b7f416363657373436f6e74726f6c3a206163636f756e7420000000000000000000600082015250565b60006132376017836131f6565b915061324282613201565b601782019050919050565b600081519050919050565b60005b8381101561327657808201518184015260208101905061325b565b60008484015250505050565b600061328d8261324d565b61329781856131f6565b93506132a7818560208601613258565b80840191505092915050565b7f206973206d697373696e6720726f6c6520000000000000000000000000000000600082015250565b60006132e96011836131f6565b91506132f4826132b3565b601182019050919050565b600061330a8261322a565b91506133168285613282565b9150613321826132dc565b915061332d8284613282565b91508190509392505050565b60006133448261324d565b61334e8185612d1a565b935061335e818560208601613258565b613367816127f2565b840191505092915050565b6000602082019050818103600083015261338c8184613339565b905092915050565b600061339f826122cf565b91506133aa836122cf565b92508282026133b8816122cf565b915082820484148315176133cf576133ce612c40565b5b5092915050565b60006133e1826122cf565b91506133ec836122cf565b925082820190508082111561340457613403612c40565b5b92915050565b6000613415826122cf565b91506000820361342857613427612c40565b5b600182039050919050565b7f537472696e67733a20686578206c656e67746820696e73756666696369656e74600082015250565b6000613469602083612d1a565b915061347482613433565b602082019050919050565b600060208201905081810360008301526134988161345c565b9050919050565b7f4e487b7100000000000000000000000000000000000000000000000000000000600052603160045260246000fdfea264697066735822122001a4a77b8a36327a59bbf50469242f3ae3ea5f83e18f45baec05a5034cee322364736f6c63430008130033",
  "linkReferences": {},
  "deployedLinkReferences": {}
}