{
  "_format": "hh-sol-artifact-1",
  "contractName": "NFTMarket",
  "sourceName": "contracts/NFTMarket.sol",
  "abi": [
    {
      "inputs": [],
      "stateMutability": "nonpayable",
      "type": "constructor"
    },
    {
      "anonymous": false,
      "inputs": [
        {
          "indexed": true,
          "internalType": "uint256",
          "name": "itemId",
          "type": "uint256"
        },
        {
          "indexed": true,
          "internalType": "address",
          "name": "nftContract",
          "type": "address"
        },
        {
          "indexed": true,
          "internalType": "uint256",
          "name": "tokenId",
          "type": "uint256"
        },
        {
          "indexed": false,
          "internalType": "address",
          "name": "seller",
          "type": "address"
        },
        {
          "indexed": false,
          "internalType": "address",
          "name": "owner",
          "type": "address"
        },
        {
          "indexed": false,
          "internalType": "uint256",
          "name": "price",
          "type": "uint256"
        },
        {
          "indexed": false,
          "internalType": "bool",
          "name": "sold",
          "type": "bool"
        },
        {
          "indexed": false,
          "internalType": "enum NFTMarket.TokenType",
          "name": "TokenType",
          "type": "uint8"
        },
        {
          "indexed": false,
          "internalType": "uint256",
          "name": "amount",
          "type": "uint256"
        }
      ],
      "name": "MarketItemCreated",
      "type": "event"
    },
    {
      "anonymous": false,
      "inputs": [
        {
          "indexed": true,
          "internalType": "bytes32",
          "name": "role",
          "type": "bytes32"
        },
        {
          "indexed": true,
          "internalType": "bytes32",
          "name": "previousAdminRole",
          "type": "bytes32"
        },
        {
          "indexed": true,
          "internalType": "bytes32",
          "name": "newAdminRole",
          "type": "bytes32"
        }
      ],
      "name": "RoleAdminChanged",
      "type": "event"
    },
    {
      "anonymous": false,
      "inputs": [
        {
          "indexed": true,
          "internalType": "bytes32",
          "name": "role",
          "type": "bytes32"
        },
        {
          "indexed": true,
          "internalType": "address",
          "name": "account",
          "type": "address"
        },
        {
          "indexed": true,
          "internalType": "address",
          "name": "sender",
          "type": "address"
        }
      ],
      "name": "RoleGranted",
      "type": "event"
    },
    {
      "anonymous": false,
      "inputs": [
        {
          "indexed": true,
          "internalType": "bytes32",
          "name": "role",
          "type": "bytes32"
        },
        {
          "indexed": true,
          "internalType": "address",
          "name": "account",
          "type": "address"
        },
        {
          "indexed": true,
          "internalType": "address",
          "name": "sender",
          "type": "address"
        }
      ],
      "name": "RoleRevoked",
      "type": "event"
    },
    {
      "inputs": [],
      "name": "DEFAULT_ADMIN_ROLE",
      "outputs": [
        {
          "internalType": "bytes32",
          "name": "",
          "type": "bytes32"
        }
      ],
      "stateMutability": "view",
      "type": "function"
    },
    {
      "inputs": [
        {
          "internalType": "uint256",
          "name": "itemId",
          "type": "uint256"
        },
        {
          "internalType": "uint256",
          "name": "amount",
          "type": "uint256"
        }
      ],
      "name": "buyItem",
      "outputs": [],
      "stateMutability": "payable",
      "type": "function"
    },
    {
      "inputs": [],
      "name": "fetchListedItems",
      "outputs": [
        {
          "components": [
            {
              "internalType": "uint256",
              "name": "itemId",
              "type": "uint256"
            },
            {
              "internalType": "address",
              "name": "assetContract",
              "type": "address"
            },
            {
              "internalType": "uint256",
              "name": "tokenId",
              "type": "uint256"
            },
            {
              "internalType": "address",
              "name": "seller",
              "type": "address"
            },
            {
              "internalType": "address",
              "name": "owner",
              "type": "address"
            },
            {
              "internalType": "uint256",
              "name": "price",
              "type": "uint256"
            },
            {
              "internalType": "bool",
              "name": "sold",
              "type": "bool"
            },
            {
              "internalType": "enum NFTMarket.TokenType",
              "name": "tokenType",
              "type": "uint8"
            },
            {
              "internalType": "uint256",
              "name": "amount",
              "type": "uint256"
            }
          ],
          "internalType": "struct NFTMarket.MarketItem[]",
          "name": "",
          "type": "tuple[]"
        }
      ],
      "stateMutability": "view",
      "type": "function"
    },
    {
      "inputs": [],
      "name": "fetchMarketItems",
      "outputs": [
        {
          "components": [
            {
              "internalType": "uint256",
              "name": "itemId",
              "type": "uint256"
            },
            {
              "internalType": "address",
              "name": "assetContract",
              "type": "address"
            },
            {
              "internalType": "uint256",
              "name": "tokenId",
              "type": "uint256"
            },
            {
              "internalType": "address",
              "name": "seller",
              "type": "address"
            },
            {
              "internalType": "address",
              "name": "owner",
              "type": "address"
            },
            {
              "internalType": "uint256",
              "name": "price",
              "type": "uint256"
            },
            {
              "internalType": "bool",
              "name": "sold",
              "type": "bool"
            },
            {
              "internalType": "enum NFTMarket.TokenType",
              "name": "tokenType",
              "type": "uint8"
            },
            {
              "internalType": "uint256",
              "name": "amount",
              "type": "uint256"
            }
          ],
          "internalType": "struct NFTMarket.MarketItem[]",
          "name": "",
          "type": "tuple[]"
        }
      ],
      "stateMutability": "view",
      "type": "function"
    },
    {
      "inputs": [],
      "name": "fetchMyItems",
      "outputs": [
        {
          "components": [
            {
              "internalType": "uint256",
              "name": "itemId",
              "type": "uint256"
            },
            {
              "internalType": "address",
              "name": "assetContract",
              "type": "address"
            },
            {
              "internalType": "uint256",
              "name": "tokenId",
              "type": "uint256"
            },
            {
              "internalType": "address",
              "name": "seller",
              "type": "address"
            },
            {
              "internalType": "address",
              "name": "owner",
              "type": "address"
            },
            {
              "internalType": "uint256",
              "name": "price",
              "type": "uint256"
            },
            {
              "internalType": "bool",
              "name": "sold",
              "type": "bool"
            },
            {
              "internalType": "enum NFTMarket.TokenType",
              "name": "tokenType",
              "type": "uint8"
            },
            {
              "internalType": "uint256",
              "name": "amount",
              "type": "uint256"
            }
          ],
          "internalType": "struct NFTMarket.MarketItem[]",
          "name": "",
          "type": "tuple[]"
        }
      ],
      "stateMutability": "view",
      "type": "function"
    },
    {
      "inputs": [
        {
          "internalType": "bytes32",
          "name": "role",
          "type": "bytes32"
        }
      ],
      "name": "getRoleAdmin",
      "outputs": [
        {
          "internalType": "bytes32",
          "name": "",
          "type": "bytes32"
        }
      ],
      "stateMutability": "view",
      "type": "function"
    },
    {
      "inputs": [
        {
          "internalType": "bytes32",
          "name": "role",
          "type": "bytes32"
        },
        {
          "internalType": "uint256",
          "name": "index",
          "type": "uint256"
        }
      ],
      "name": "getRoleMember",
      "outputs": [
        {
          "internalType": "address",
          "name": "",
          "type": "address"
        }
      ],
      "stateMutability": "view",
      "type": "function"
    },
    {
      "inputs": [
        {
          "internalType": "bytes32",
          "name": "role",
          "type": "bytes32"
        }
      ],
      "name": "getRoleMemberCount",
      "outputs": [
        {
          "internalType": "uint256",
          "name": "",
          "type": "uint256"
        }
      ],
      "stateMutability": "view",
      "type": "function"
    },
    {
      "inputs": [
        {
          "internalType": "bytes32",
          "name": "role",
          "type": "bytes32"
        },
        {
          "internalType": "address",
          "name": "account",
          "type": "address"
        }
      ],
      "name": "grantRole",
      "outputs": [],
      "stateMutability": "nonpayable",
      "type": "function"
    },
    {
      "inputs": [
        {
          "internalType": "bytes32",
          "name": "role",
          "type": "bytes32"
        },
        {
          "internalType": "address",
          "name": "account",
          "type": "address"
        }
      ],
      "name": "hasRole",
      "outputs": [
        {
          "internalType": "bool",
          "name": "",
          "type": "bool"
        }
      ],
      "stateMutability": "view",
      "type": "function"
    },
    {
      "inputs": [
        {
          "internalType": "address",
          "name": "nftContract",
          "type": "address"
        },
        {
          "internalType": "uint256",
          "name": "tokenId",
          "type": "uint256"
        },
        {
          "internalType": "uint256",
          "name": "price",
          "type": "uint256"
        },
        {
          "internalType": "uint256",
          "name": "amount",
          "type": "uint256"
        }
      ],
      "name": "listItem",
      "outputs": [],
      "stateMutability": "payable",
      "type": "function"
    },
    {
      "inputs": [
        {
          "internalType": "address",
          "name": "",
          "type": "address"
        },
        {
          "internalType": "address",
          "name": "",
          "type": "address"
        },
        {
          "internalType": "uint256[]",
          "name": "",
          "type": "uint256[]"
        },
        {
          "internalType": "uint256[]",
          "name": "",
          "type": "uint256[]"
        },
        {
          "internalType": "bytes",
          "name": "",
          "type": "bytes"
        }
      ],
      "name": "onERC1155BatchReceived",
      "outputs": [
        {
          "internalType": "bytes4",
          "name": "",
          "type": "bytes4"
        }
      ],
      "stateMutability": "nonpayable",
      "type": "function"
    },
    {
      "inputs": [
        {
          "internalType": "address",
          "name": "",
          "type": "address"
        },
        {
          "internalType": "address",
          "name": "",
          "type": "address"
        },
        {
          "internalType": "uint256",
          "name": "",
          "type": "uint256"
        },
        {
          "internalType": "uint256",
          "name": "",
          "type": "uint256"
        },
        {
          "internalType": "bytes",
          "name": "",
          "type": "bytes"
        }
      ],
      "name": "onERC1155Received",
      "outputs": [
        {
          "internalType": "bytes4",
          "name": "",
          "type": "bytes4"
        }
      ],
      "stateMutability": "nonpayable",
      "type": "function"
    },
    {
      "inputs": [
        {
          "internalType": "address",
          "name": "",
          "type": "address"
        },
        {
          "internalType": "address",
          "name": "",
          "type": "address"
        },
        {
          "internalType": "uint256",
          "name": "",
          "type": "uint256"
        },
        {
          "internalType": "bytes",
          "name": "",
          "type": "bytes"
        }
      ],
      "name": "onERC721Received",
      "outputs": [
        {
          "internalType": "bytes4",
          "name": "",
          "type": "bytes4"
        }
      ],
      "stateMutability": "pure",
      "type": "function"
    },
    {
      "inputs": [
        {
          "internalType": "bytes32",
          "name": "role",
          "type": "bytes32"
        },
        {
          "internalType": "address",
          "name": "account",
          "type": "address"
        }
      ],
      "name": "renounceRole",
      "outputs": [],
      "stateMutability": "nonpayable",
      "type": "function"
    },
    {
      "inputs": [
        {
          "internalType": "bytes32",
          "name": "role",
          "type": "bytes32"
        },
        {
          "internalType": "address",
          "name": "account",
          "type": "address"
        }
      ],
      "name": "revokeRole",
      "outputs": [],
      "stateMutability": "nonpayable",
      "type": "function"
    },
    {
      "inputs": [
        {
          "internalType": "bytes4",
          "name": "interfaceId",
          "type": "bytes4"
        }
      ],
      "name": "supportsInterface",
      "outputs": [
        {
          "internalType": "bool",
          "name": "",
          "type": "bool"
        }
      ],
      "stateMutability": "view",
      "type": "function"
    }
  ],
  "bytecode": "0x608060405234801561001057600080fd5b50600160008190555033600560006101000a81548173ffffffffffffffffffffffffffffffffffffffff021916908373ffffffffffffffffffffffffffffffffffffffff1602179055506137eb806100696000396000f3fe6080604052600436106100fe5760003560e01c806391d1485411610095578063bcb143ef11610064578063bcb143ef14610360578063ca15c8731461037c578063cfd31e2c146103b9578063d547741f146103e4578063f23a6e611461040d576100fe565b806391d148541461029f5780639979c009146102dc578063a217fddf146102f8578063bc197c8114610323576100fe565b8063248a9ca3116100d1578063248a9ca3146101d35780632f2ff15d1461021057806336568abe146102395780639010d07c14610262576100fe565b806301ffc9a7146101035780630f08efe014610140578063150b7a021461016b57806315c9ae10146101a8575b600080fd5b34801561010f57600080fd5b5061012a6004803603810190610125919061264e565b61044a565b6040516101379190612696565b60405180910390f35b34801561014c57600080fd5b5061015561052c565b60405161016291906128f8565b60405180910390f35b34801561017757600080fd5b50610192600480360381019061018d91906129d7565b610851565b60405161019f9190612a6e565b60405180910390f35b3480156101b457600080fd5b506101bd610866565b6040516101ca91906128f8565b60405180910390f35b3480156101df57600080fd5b506101fa60048036038101906101f59190612abf565b610c0e565b6040516102079190612afb565b60405180910390f35b34801561021c57600080fd5b5061023760048036038101906102329190612b16565b610c2e565b005b34801561024557600080fd5b50610260600480360381019061025b9190612b16565b610c4f565b005b34801561026e57600080fd5b5061028960048036038101906102849190612b56565b610cd2565b6040516102969190612ba5565b60405180910390f35b3480156102ab57600080fd5b506102c660048036038101906102c19190612b16565b610d01565b6040516102d39190612696565b60405180910390f35b6102f660048036038101906102f19190612bc0565b610d6c565b005b34801561030457600080fd5b5061030d6111da565b60405161031a9190612afb565b60405180910390f35b34801561032f57600080fd5b5061034a60048036038101906103459190612e04565b6111e1565b6040516103579190612a6e565b60405180910390f35b61037a60048036038101906103759190612ed3565b6111f6565b005b34801561038857600080fd5b506103a3600480360381019061039e9190612abf565b6114ce565b6040516103b09190612f49565b60405180910390f35b3480156103c557600080fd5b506103ce6114f2565b6040516103db91906128f8565b60405180910390f35b3480156103f057600080fd5b5061040b60048036038101906104069190612b16565b61189a565b005b34801561041957600080fd5b50610434600480360381019061042f9190612f64565b6118bb565b6040516104419190612a6e565b60405180910390f35b60007f4e2312e0000000000000000000000000000000000000000000000000000000007bffffffffffffffffffffffffffffffffffffffffffffffffffffffff1916827bffffffffffffffffffffffffffffffffffffffffffffffffffffffff1916148061051557507f150b7a02000000000000000000000000000000000000000000000000000000007bffffffffffffffffffffffffffffffffffffffffffffffffffffffff1916827bffffffffffffffffffffffffffffffffffffffffffffffffffffffff1916145b806105255750610524826118d0565b5b9050919050565b6060600061053a600361194a565b90506000610548600461194a565b610552600361194a565b61055c919061302a565b90506000808267ffffffffffffffff81111561057b5761057a612c11565b5b6040519080825280602002602001820160405280156105b457816020015b6105a1612540565b8152602001906001900390816105995790505b50905060005b8481101561084657600073ffffffffffffffffffffffffffffffffffffffff16600660006001846105eb919061305e565b815260200190815260200160002060040160009054906101000a900473ffffffffffffffffffffffffffffffffffffffff1673ffffffffffffffffffffffffffffffffffffffff16036108335760006006600060018461064b919061305e565b815260200190815260200160002060000154905060006006600083815260200190815260200160002090508060405180610120016040529081600082015481526020016001820160009054906101000a900473ffffffffffffffffffffffffffffffffffffffff1673ffffffffffffffffffffffffffffffffffffffff1673ffffffffffffffffffffffffffffffffffffffff168152602001600282015481526020016003820160009054906101000a900473ffffffffffffffffffffffffffffffffffffffff1673ffffffffffffffffffffffffffffffffffffffff1673ffffffffffffffffffffffffffffffffffffffff1681526020016004820160009054906101000a900473ffffffffffffffffffffffffffffffffffffffff1673ffffffffffffffffffffffffffffffffffffffff1673ffffffffffffffffffffffffffffffffffffffff168152602001600582015481526020016006820160009054906101000a900460ff161515151581526020016006820160019054906101000a900460ff1660018111156107e3576107e2612746565b5b60018111156107f5576107f4612746565b5b815260200160078201548152505084868151811061081657610815613092565b5b602002602001018190525060018561082e919061305e565b945050505b808061083e906130c1565b9150506105ba565b508094505050505090565b600063150b7a0260e01b905095945050505050565b60606000610874600361194a565b905060008060005b8381101561091c573373ffffffffffffffffffffffffffffffffffffffff16600660006001846108ac919061305e565b815260200190815260200160002060040160009054906101000a900473ffffffffffffffffffffffffffffffffffffffff1673ffffffffffffffffffffffffffffffffffffffff160361090957600183610906919061305e565b92505b8080610914906130c1565b91505061087c565b5060008267ffffffffffffffff81111561093957610938612c11565b5b60405190808252806020026020018201604052801561097257816020015b61095f612540565b8152602001906001900390816109575790505b50905060005b84811015610c03573373ffffffffffffffffffffffffffffffffffffffff16600660006001846109a8919061305e565b815260200190815260200160002060040160009054906101000a900473ffffffffffffffffffffffffffffffffffffffff1673ffffffffffffffffffffffffffffffffffffffff1603610bf057600060066000600184610a08919061305e565b815260200190815260200160002060000154905060006006600083815260200190815260200160002090508060405180610120016040529081600082015481526020016001820160009054906101000a900473ffffffffffffffffffffffffffffffffffffffff1673ffffffffffffffffffffffffffffffffffffffff1673ffffffffffffffffffffffffffffffffffffffff168152602001600282015481526020016003820160009054906101000a900473ffffffffffffffffffffffffffffffffffffffff1673ffffffffffffffffffffffffffffffffffffffff1673ffffffffffffffffffffffffffffffffffffffff1681526020016004820160009054906101000a900473ffffffffffffffffffffffffffffffffffffffff1673ffffffffffffffffffffffffffffffffffffffff1673ffffffffffffffffffffffffffffffffffffffff168152602001600582015481526020016006820160009054906101000a900460ff161515151581526020016006820160019054906101000a900460ff166001811115610ba057610b9f612746565b5b6001811115610bb257610bb1612746565b5b8152602001600782015481525050848681518110610bd357610bd2613092565b5b6020026020010181905250600185610beb919061305e565b945050505b8080610bfb906130c1565b915050610978565b508094505050505090565b600060016000838152602001908152602001600020600101549050919050565b610c3782610c0e565b610c4081611958565b610c4a838361196c565b505050565b610c576119a0565b73ffffffffffffffffffffffffffffffffffffffff168173ffffffffffffffffffffffffffffffffffffffff1614610cc4576040517f08c379a0000000000000000000000000000000000000000000000000000000008152600401610cbb9061318c565b60405180910390fd5b610cce82826119a8565b5050565b6000610cf982600260008681526020019081526020016000206119dc90919063ffffffff16565b905092915050565b60006001600084815260200190815260200160002060000160008373ffffffffffffffffffffffffffffffffffffffff1673ffffffffffffffffffffffffffffffffffffffff16815260200190815260200160002060009054906101000a900460ff16905092915050565b610d746119f6565b6006600083815260200190815260200160002060050154341015610dcd576040517f08c379a0000000000000000000000000000000000000000000000000000000008152600401610dc49061321e565b60405180910390fd5b6006600083815260200190815260200160002060030160009054906101000a900473ffffffffffffffffffffffffffffffffffffffff1673ffffffffffffffffffffffffffffffffffffffff166108fc349081150290604051600060405180830381858888f19350505050158015610e49573d6000803e3d6000fd5b5061102a6006600084815260200190815260200160002060030160009054906101000a900473ffffffffffffffffffffffffffffffffffffffff1633836006600087815260200190815260200160002060405180610120016040529081600082015481526020016001820160009054906101000a900473ffffffffffffffffffffffffffffffffffffffff1673ffffffffffffffffffffffffffffffffffffffff1673ffffffffffffffffffffffffffffffffffffffff168152602001600282015481526020016003820160009054906101000a900473ffffffffffffffffffffffffffffffffffffffff1673ffffffffffffffffffffffffffffffffffffffff1673ffffffffffffffffffffffffffffffffffffffff1681526020016004820160009054906101000a900473ffffffffffffffffffffffffffffffffffffffff1673ffffffffffffffffffffffffffffffffffffffff1673ffffffffffffffffffffffffffffffffffffffff168152602001600582015481526020016006820160009054906101000a900460ff161515151581526020016006820160019054906101000a900460ff16600181111561100557611004612746565b5b600181111561101757611016612746565b5b8152602001600782015481525050611a45565b336006600084815260200190815260200160002060040160006101000a81548173ffffffffffffffffffffffffffffffffffffffff021916908373ffffffffffffffffffffffffffffffffffffffff16021790555060016006600084815260200190815260200160002060060160006101000a81548160ff0219169083151502179055506110b86004611ba1565b60066000838152602001908152602001600020600201546006600084815260200190815260200160002060010160009054906101000a900473ffffffffffffffffffffffffffffffffffffffff1673ffffffffffffffffffffffffffffffffffffffff16837f10c4afc646968ae0b079a300b42783ab0cda4b396a75485624da703bc83e3aee6006600087815260200190815260200160002060030160009054906101000a900473ffffffffffffffffffffffffffffffffffffffff1633346001600660008b815260200190815260200160002060060160019054906101000a900460ff16600660008c8152602001908152602001600020600701546040516111c69695949392919061324d565b60405180910390a46111d6611bb7565b5050565b6000801b81565b600063bc197c8160e01b905095945050505050565b6111fe6119f6565b600061120985611bc1565b90506000831161124e576040517f08c379a0000000000000000000000000000000000000000000000000000000008152600401611245906132fa565b60405180910390fd5b6112586003611ba1565b6000611264600361194a565b90506040518061012001604052808281526020018773ffffffffffffffffffffffffffffffffffffffff1681526020018681526020013373ffffffffffffffffffffffffffffffffffffffff168152602001600073ffffffffffffffffffffffffffffffffffffffff1681526020018581526020016000151581526020018360018111156112f5576112f4612746565b5b815260200184815250600660008381526020019081526020016000206000820151816000015560208201518160010160006101000a81548173ffffffffffffffffffffffffffffffffffffffff021916908373ffffffffffffffffffffffffffffffffffffffff1602179055506040820151816002015560608201518160030160006101000a81548173ffffffffffffffffffffffffffffffffffffffff021916908373ffffffffffffffffffffffffffffffffffffffff16021790555060808201518160040160006101000a81548173ffffffffffffffffffffffffffffffffffffffff021916908373ffffffffffffffffffffffffffffffffffffffff16021790555060a0820151816005015560c08201518160060160006101000a81548160ff02191690831515021790555060e08201518160060160016101000a81548160ff0219169083600181111561144f5761144e612746565b5b02179055506101008201518160070155905050848673ffffffffffffffffffffffffffffffffffffffff16827f10c4afc646968ae0b079a300b42783ab0cda4b396a75485624da703bc83e3aee336000896000898b6040516114b69695949392919061324d565b60405180910390a450506114c8611bb7565b50505050565b60006114eb60026000848152602001908152602001600020611d54565b9050919050565b60606000611500600361194a565b905060008060005b838110156115a8573373ffffffffffffffffffffffffffffffffffffffff1660066000600184611538919061305e565b815260200190815260200160002060030160009054906101000a900473ffffffffffffffffffffffffffffffffffffffff1673ffffffffffffffffffffffffffffffffffffffff160361159557600183611592919061305e565b92505b80806115a0906130c1565b915050611508565b5060008267ffffffffffffffff8111156115c5576115c4612c11565b5b6040519080825280602002602001820160405280156115fe57816020015b6115eb612540565b8152602001906001900390816115e35790505b50905060005b8481101561188f573373ffffffffffffffffffffffffffffffffffffffff1660066000600184611634919061305e565b815260200190815260200160002060030160009054906101000a900473ffffffffffffffffffffffffffffffffffffffff1673ffffffffffffffffffffffffffffffffffffffff160361187c57600060066000600184611694919061305e565b815260200190815260200160002060000154905060006006600083815260200190815260200160002090508060405180610120016040529081600082015481526020016001820160009054906101000a900473ffffffffffffffffffffffffffffffffffffffff1673ffffffffffffffffffffffffffffffffffffffff1673ffffffffffffffffffffffffffffffffffffffff168152602001600282015481526020016003820160009054906101000a900473ffffffffffffffffffffffffffffffffffffffff1673ffffffffffffffffffffffffffffffffffffffff1673ffffffffffffffffffffffffffffffffffffffff1681526020016004820160009054906101000a900473ffffffffffffffffffffffffffffffffffffffff1673ffffffffffffffffffffffffffffffffffffffff1673ffffffffffffffffffffffffffffffffffffffff168152602001600582015481526020016006820160009054906101000a900460ff161515151581526020016006820160019054906101000a900460ff16600181111561182c5761182b612746565b5b600181111561183e5761183d612746565b5b815260200160078201548152505084868151811061185f5761185e613092565b5b6020026020010181905250600185611877919061305e565b945050505b8080611887906130c1565b915050611604565b508094505050505090565b6118a382610c0e565b6118ac81611958565b6118b683836119a8565b505050565b600063f23a6e6160e01b905095945050505050565b60007f5a05180f000000000000000000000000000000000000000000000000000000007bffffffffffffffffffffffffffffffffffffffffffffffffffffffff1916827bffffffffffffffffffffffffffffffffffffffffffffffffffffffff19161480611943575061194282611d69565b5b9050919050565b600081600001549050919050565b611969816119646119a0565b611de3565b50565b6119768282611e68565b61199b8160026000858152602001908152602001600020611f4890919063ffffffff16565b505050565b600033905090565b6119b28282611f78565b6119d7816002600085815260200190815260200160002061205a90919063ffffffff16565b505050565b60006119eb836000018361208a565b60001c905092915050565b600260005403611a3b576040517f08c379a0000000000000000000000000000000000000000000000000000000008152600401611a3290613366565b60405180910390fd5b6002600081905550565b60006001811115611a5957611a58612746565b5b8160e001516001811115611a7057611a6f612746565b5b03611af357806020015173ffffffffffffffffffffffffffffffffffffffff1663f242432a85858460400151866040518563ffffffff1660e01b8152600401611abc94939291906133bd565b600060405180830381600087803b158015611ad657600080fd5b505af1158015611aea573d6000803e3d6000fd5b50505050611b9b565b600180811115611b0657611b05612746565b5b8160e001516001811115611b1d57611b1c612746565b5b03611b9a57806020015173ffffffffffffffffffffffffffffffffffffffff166342842e0e858584604001516040518463ffffffff1660e01b8152600401611b6793929190613415565b600060405180830381600087803b158015611b8157600080fd5b505af1158015611b95573d6000803e3d6000fd5b505050505b5b50505050565b6001816000016000828254019250508190555050565b6001600081905550565b60008173ffffffffffffffffffffffffffffffffffffffff166301ffc9a77fd9b67a26000000000000000000000000000000000000000000000000000000006040518263ffffffff1660e01b8152600401611c1c9190612a6e565b602060405180830381865afa158015611c39573d6000803e3d6000fd5b505050506040513d601f19601f82011682018060405250810190611c5d9190613478565b15611c6b5760009050611d4f565b8173ffffffffffffffffffffffffffffffffffffffff166301ffc9a77f80ac58cd000000000000000000000000000000000000000000000000000000006040518263ffffffff1660e01b8152600401611cc49190612a6e565b602060405180830381865afa158015611ce1573d6000803e3d6000fd5b505050506040513d601f19601f82011682018060405250810190611d059190613478565b15611d135760019050611d4e565b6040517f08c379a0000000000000000000000000000000000000000000000000000000008152600401611d45906134f1565b60405180910390fd5b5b919050565b6000611d62826000016120b5565b9050919050565b60007f7965db0b000000000000000000000000000000000000000000000000000000007bffffffffffffffffffffffffffffffffffffffffffffffffffffffff1916827bffffffffffffffffffffffffffffffffffffffffffffffffffffffff19161480611ddc5750611ddb826120c6565b5b9050919050565b611ded8282610d01565b611e6457611dfa81612130565b611e088360001c602061215d565b604051602001611e1992919061361a565b6040516020818303038152906040526040517f08c379a0000000000000000000000000000000000000000000000000000000008152600401611e5b919061368d565b60405180910390fd5b5050565b611e728282610d01565b611f4457600180600084815260200190815260200160002060000160008373ffffffffffffffffffffffffffffffffffffffff1673ffffffffffffffffffffffffffffffffffffffff16815260200190815260200160002060006101000a81548160ff021916908315150217905550611ee96119a0565b73ffffffffffffffffffffffffffffffffffffffff168173ffffffffffffffffffffffffffffffffffffffff16837f2f8788117e7eff1d82e926ec794901d17c78024a50270940304540a733656f0d60405160405180910390a45b5050565b6000611f70836000018373ffffffffffffffffffffffffffffffffffffffff1660001b612399565b905092915050565b611f828282610d01565b156120565760006001600084815260200190815260200160002060000160008373ffffffffffffffffffffffffffffffffffffffff1673ffffffffffffffffffffffffffffffffffffffff16815260200190815260200160002060006101000a81548160ff021916908315150217905550611ffb6119a0565b73ffffffffffffffffffffffffffffffffffffffff168173ffffffffffffffffffffffffffffffffffffffff16837ff6391f5c32d9c69d2a47ea670b442974b53935d1edc7fd64eb21e047a839171b60405160405180910390a45b5050565b6000612082836000018373ffffffffffffffffffffffffffffffffffffffff1660001b612409565b905092915050565b60008260000182815481106120a2576120a1613092565b5b9060005260206000200154905092915050565b600081600001805490509050919050565b60007f01ffc9a7000000000000000000000000000000000000000000000000000000007bffffffffffffffffffffffffffffffffffffffffffffffffffffffff1916827bffffffffffffffffffffffffffffffffffffffffffffffffffffffff1916149050919050565b60606121568273ffffffffffffffffffffffffffffffffffffffff16601460ff1661215d565b9050919050565b60606000600283600261217091906136af565b61217a919061305e565b67ffffffffffffffff81111561219357612192612c11565b5b6040519080825280601f01601f1916602001820160405280156121c55781602001600182028036833780820191505090505b5090507f3000000000000000000000000000000000000000000000000000000000000000816000815181106121fd576121fc613092565b5b60200101907effffffffffffffffffffffffffffffffffffffffffffffffffffffffffffff1916908160001a9053507f78000000000000000000000000000000000000000000000000000000000000008160018151811061226157612260613092565b5b60200101907effffffffffffffffffffffffffffffffffffffffffffffffffffffffffffff1916908160001a905350600060018460026122a191906136af565b6122ab919061305e565b90505b600181111561234b577f3031323334353637383961626364656600000000000000000000000000000000600f8616601081106122ed576122ec613092565b5b1a60f81b82828151811061230457612303613092565b5b60200101907effffffffffffffffffffffffffffffffffffffffffffffffffffffffffffff1916908160001a905350600485901c945080612344906136f1565b90506122ae565b506000841461238f576040517f08c379a000000000000000000000000000000000000000000000000000000000815260040161238690613766565b60405180910390fd5b8091505092915050565b60006123a5838361251d565b6123fe578260000182908060018154018082558091505060019003906000526020600020016000909190919091505582600001805490508360010160008481526020019081526020016000208190555060019050612403565b600090505b92915050565b6000808360010160008481526020019081526020016000205490506000811461251157600060018261243b919061302a565b9050600060018660000180549050612453919061302a565b90508181146124c257600086600001828154811061247457612473613092565b5b906000526020600020015490508087600001848154811061249857612497613092565b5b90600052602060002001819055508387600101600083815260200190815260200160002081905550505b856000018054806124d6576124d5613786565b5b600190038181906000526020600020016000905590558560010160008681526020019081526020016000206000905560019350505050612517565b60009150505b92915050565b600080836001016000848152602001908152602001600020541415905092915050565b60405180610120016040528060008152602001600073ffffffffffffffffffffffffffffffffffffffff16815260200160008152602001600073ffffffffffffffffffffffffffffffffffffffff168152602001600073ffffffffffffffffffffffffffffffffffffffff16815260200160008152602001600015158152602001600060018111156125d5576125d4612746565b5b8152602001600081525090565b6000604051905090565b600080fd5b600080fd5b60007fffffffff0000000000000000000000000000000000000000000000000000000082169050919050565b61262b816125f6565b811461263657600080fd5b50565b60008135905061264881612622565b92915050565b600060208284031215612664576126636125ec565b5b600061267284828501612639565b91505092915050565b60008115159050919050565b6126908161267b565b82525050565b60006020820190506126ab6000830184612687565b92915050565b600081519050919050565b600082825260208201905092915050565b6000819050602082019050919050565b6000819050919050565b6126f0816126dd565b82525050565b600073ffffffffffffffffffffffffffffffffffffffff82169050919050565b6000612721826126f6565b9050919050565b61273181612716565b82525050565b6127408161267b565b82525050565b7f4e487b7100000000000000000000000000000000000000000000000000000000600052602160045260246000fd5b6002811061278657612785612746565b5b50565b600081905061279782612775565b919050565b60006127a782612789565b9050919050565b6127b78161279c565b82525050565b610120820160008201516127d460008501826126e7565b5060208201516127e76020850182612728565b5060408201516127fa60408501826126e7565b50606082015161280d6060850182612728565b5060808201516128206080850182612728565b5060a082015161283360a08501826126e7565b5060c082015161284660c0850182612737565b5060e082015161285960e08501826127ae565b5061010082015161286e6101008501826126e7565b50505050565b600061288083836127bd565b6101208301905092915050565b6000602082019050919050565b60006128a5826126b1565b6128af81856126bc565b93506128ba836126cd565b8060005b838110156128eb5781516128d28882612874565b97506128dd8361288d565b9250506001810190506128be565b5085935050505092915050565b60006020820190508181036000830152612912818461289a565b905092915050565b61292381612716565b811461292e57600080fd5b50565b6000813590506129408161291a565b92915050565b61294f816126dd565b811461295a57600080fd5b50565b60008135905061296c81612946565b92915050565b600080fd5b600080fd5b600080fd5b60008083601f84011261299757612996612972565b5b8235905067ffffffffffffffff8111156129b4576129b3612977565b5b6020830191508360018202830111156129d0576129cf61297c565b5b9250929050565b6000806000806000608086880312156129f3576129f26125ec565b5b6000612a0188828901612931565b9550506020612a1288828901612931565b9450506040612a238882890161295d565b935050606086013567ffffffffffffffff811115612a4457612a436125f1565b5b612a5088828901612981565b92509250509295509295909350565b612a68816125f6565b82525050565b6000602082019050612a836000830184612a5f565b92915050565b6000819050919050565b612a9c81612a89565b8114612aa757600080fd5b50565b600081359050612ab981612a93565b92915050565b600060208284031215612ad557612ad46125ec565b5b6000612ae384828501612aaa565b91505092915050565b612af581612a89565b82525050565b6000602082019050612b106000830184612aec565b92915050565b60008060408385031215612b2d57612b2c6125ec565b5b6000612b3b85828601612aaa565b9250506020612b4c85828601612931565b9150509250929050565b60008060408385031215612b6d57612b6c6125ec565b5b6000612b7b85828601612aaa565b9250506020612b8c8582860161295d565b9150509250929050565b612b9f81612716565b82525050565b6000602082019050612bba6000830184612b96565b92915050565b60008060408385031215612bd757612bd66125ec565b5b6000612be58582860161295d565b9250506020612bf68582860161295d565b9150509250929050565b6000601f19601f8301169050919050565b7f4e487b7100000000000000000000000000000000000000000000000000000000600052604160045260246000fd5b612c4982612c00565b810181811067ffffffffffffffff82111715612c6857612c67612c11565b5b80604052505050565b6000612c7b6125e2565b9050612c878282612c40565b919050565b600067ffffffffffffffff821115612ca757612ca6612c11565b5b602082029050602081019050919050565b6000612ccb612cc684612c8c565b612c71565b90508083825260208201905060208402830185811115612cee57612ced61297c565b5b835b81811015612d175780612d03888261295d565b845260208401935050602081019050612cf0565b5050509392505050565b600082601f830112612d3657612d35612972565b5b8135612d46848260208601612cb8565b91505092915050565b600080fd5b600067ffffffffffffffff821115612d6f57612d6e612c11565b5b612d7882612c00565b9050602081019050919050565b82818337600083830152505050565b6000612da7612da284612d54565b612c71565b905082815260208101848484011115612dc357612dc2612d4f565b5b612dce848285612d85565b509392505050565b600082601f830112612deb57612dea612972565b5b8135612dfb848260208601612d94565b91505092915050565b600080600080600060a08688031215612e2057612e1f6125ec565b5b6000612e2e88828901612931565b9550506020612e3f88828901612931565b945050604086013567ffffffffffffffff811115612e6057612e5f6125f1565b5b612e6c88828901612d21565b935050606086013567ffffffffffffffff811115612e8d57612e8c6125f1565b5b612e9988828901612d21565b925050608086013567ffffffffffffffff811115612eba57612eb96125f1565b5b612ec688828901612dd6565b9150509295509295909350565b60008060008060808587031215612eed57612eec6125ec565b5b6000612efb87828801612931565b9450506020612f0c8782880161295d565b9350506040612f1d8782880161295d565b9250506060612f2e8782880161295d565b91505092959194509250565b612f43816126dd565b82525050565b6000602082019050612f5e6000830184612f3a565b92915050565b600080600080600060a08688031215612f8057612f7f6125ec565b5b6000612f8e88828901612931565b9550506020612f9f88828901612931565b9450506040612fb08882890161295d565b9350506060612fc18882890161295d565b925050608086013567ffffffffffffffff811115612fe257612fe16125f1565b5b612fee88828901612dd6565b9150509295509295909350565b7f4e487b7100000000000000000000000000000000000000000000000000000000600052601160045260246000fd5b6000613035826126dd565b9150613040836126dd565b925082820390508181111561305857613057612ffb565b5b92915050565b6000613069826126dd565b9150613074836126dd565b925082820190508082111561308c5761308b612ffb565b5b92915050565b7f4e487b7100000000000000000000000000000000000000000000000000000000600052603260045260246000fd5b60006130cc826126dd565b91507fffffffffffffffffffffffffffffffffffffffffffffffffffffffffffffffff82036130fe576130fd612ffb565b5b600182019050919050565b600082825260208201905092915050565b7f416363657373436f6e74726f6c3a2063616e206f6e6c792072656e6f756e636560008201527f20726f6c657320666f722073656c660000000000000000000000000000000000602082015250565b6000613176602f83613109565b91506131818261311a565b604082019050919050565b600060208201905081810360008301526131a581613169565b9050919050565b7f4572726f7220696e20636f6e74726163743a20496e636f72726563742070726960008201527f6365000000000000000000000000000000000000000000000000000000000000602082015250565b6000613208602283613109565b9150613213826131ac565b604082019050919050565b60006020820190508181036000830152613237816131fb565b9050919050565b6132478161279c565b82525050565b600060c0820190506132626000830189612b96565b61326f6020830188612b96565b61327c6040830187612f3a565b6132896060830186612687565b613296608083018561323e565b6132a360a0830184612f3a565b979650505050505050565b7f5072696365206d7573742062652067726561746572207468616e203000000000600082015250565b60006132e4601c83613109565b91506132ef826132ae565b602082019050919050565b60006020820190508181036000830152613313816132d7565b9050919050565b7f5265656e7472616e637947756172643a207265656e7472616e742063616c6c00600082015250565b6000613350601f83613109565b915061335b8261331a565b602082019050919050565b6000602082019050818103600083015261337f81613343565b9050919050565b600082825260208201905092915050565b50565b60006133a7600083613386565b91506133b282613397565b600082019050919050565b600060a0820190506133d26000830187612b96565b6133df6020830186612b96565b6133ec6040830185612f3a565b6133f96060830184612f3a565b818103608083015261340a8161339a565b905095945050505050565b600060608201905061342a6000830186612b96565b6134376020830185612b96565b6134446040830184612f3a565b949350505050565b6134558161267b565b811461346057600080fd5b50565b6000815190506134728161344c565b92915050565b60006020828403121561348e5761348d6125ec565b5b600061349c84828501613463565b91505092915050565b7f746f6b656e206d7573742062652045524331313535206f72204552433732312e600082015250565b60006134db602083613109565b91506134e6826134a5565b602082019050919050565b6000602082019050818103600083015261350a816134ce565b9050919050565b600081905092915050565b7f416363657373436f6e74726f6c3a206163636f756e7420000000000000000000600082015250565b6000613552601783613511565b915061355d8261351c565b601782019050919050565b600081519050919050565b60005b83811015613591578082015181840152602081019050613576565b60008484015250505050565b60006135a882613568565b6135b28185613511565b93506135c2818560208601613573565b80840191505092915050565b7f206973206d697373696e6720726f6c6520000000000000000000000000000000600082015250565b6000613604601183613511565b915061360f826135ce565b601182019050919050565b600061362582613545565b9150613631828561359d565b915061363c826135f7565b9150613648828461359d565b91508190509392505050565b600061365f82613568565b6136698185613109565b9350613679818560208601613573565b61368281612c00565b840191505092915050565b600060208201905081810360008301526136a78184613654565b905092915050565b60006136ba826126dd565b91506136c5836126dd565b92508282026136d3816126dd565b915082820484148315176136ea576136e9612ffb565b5b5092915050565b60006136fc826126dd565b91506000820361370f5761370e612ffb565b5b600182039050919050565b7f537472696e67733a20686578206c656e67746820696e73756666696369656e74600082015250565b6000613750602083613109565b915061375b8261371a565b602082019050919050565b6000602082019050818103600083015261377f81613743565b9050919050565b7f4e487b7100000000000000000000000000000000000000000000000000000000600052603160045260246000fdfea264697066735822122037a8b01901b0283c99b1d61b8b953e689b474944ea9c948b68da528ae8cb2d9664736f6c63430008130033",
  "linkReferences": {},
  "deployedLinkReferences": {}
}